{"abi":[{"type":"constructor","inputs":[{"name":"initialMembers","type":"address[]","internalType":"address[]"},{"name":"_chairman","type":"address","internalType":"address"}],"stateMutability":"nonpayable"},{"type":"function","name":"MAX_BOARD_SIZE","inputs":[],"outputs":[{"name":"","type":"uint256","internalType":"uint256"}],"stateMutability":"view"},{"type":"function","name":"MIN_BOARD_SIZE","inputs":[],"outputs":[{"name":"","type":"uint256","internalType":"uint256"}],"stateMutability":"view"},{"type":"function","name":"addBoardMember","inputs":[{"name":"member","type":"address","internalType":"address"}],"outputs":[],"stateMutability":"nonpayable"},{"type":"function","name":"chairman","inputs":[],"outputs":[{"name":"","type":"address","internalType":"address"}],"stateMutability":"view"},{"type":"function","name":"getBoardMembers","inputs":[],"outputs":[{"name":"","type":"address[]","internalType":"address[]"}],"stateMutability":"view"},{"type":"function","name":"getBoardSize","inputs":[],"outputs":[{"name":"","type":"uint256","internalType":"uint256"}],"stateMutability":"view"},{"type":"function","name":"isBoardMember","inputs":[{"name":"account","type":"address","internalType":"address"}],"outputs":[{"name":"","type":"bool","internalType":"bool"}],"stateMutability":"view"},{"type":"function","name":"isChairman","inputs":[{"name":"account","type":"address","internalType":"address"}],"outputs":[{"name":"","type":"bool","internalType":"bool"}],"stateMutability":"view"},{"type":"function","name":"removeBoardMember","inputs":[{"name":"member","type":"address","internalType":"address"}],"outputs":[],"stateMutability":"nonpayable"},{"type":"function","name":"transferChairmanship","inputs":[{"name":"newChairman","type":"address","internalType":"address"}],"outputs":[],"stateMutability":"nonpayable"},{"type":"event","name":"BoardMemberAdded","inputs":[{"name":"member","type":"address","indexed":true,"internalType":"address"},{"name":"timestamp","type":"uint256","indexed":false,"internalType":"uint256"}],"anonymous":false},{"type":"event","name":"BoardMemberRemoved","inputs":[{"name":"member","type":"address","indexed":true,"internalType":"address"},{"name":"timestamp","type":"uint256","indexed":false,"internalType":"uint256"}],"anonymous":false},{"type":"event","name":"BoardMembershipTransferred","inputs":[{"name":"from","type":"address","indexed":true,"internalType":"address"},{"name":"to","type":"address","indexed":true,"internalType":"address"}],"anonymous":false}],"bytecode":{"object":"0x608060405234801561000f575f5ffd5b50604051611db3380380611db383398181016040528101906100319190610660565b5f73ffffffffffffffffffffffffffffffffffffffff168173ffffffffffffffffffffffffffffffffffffffff160361009f576040517f08c379a000000000000000000000000000000000000000000000000000000000815260040161009690610714565b60405180910390fd5b5f5f8273ffffffffffffffffffffffffffffffffffffffff1673ffffffffffffffffffffffffffffffffffffffff1681526020019081526020015f205f9054906101000a900460ff1615610128576040517f08c379a000000000000000000000000000000000000000000000000000000000815260040161011f9061077c565b60405180910390fd5b600181908060018154018082558091505060019003905f5260205f20015f9091909190916101000a81548173ffffffffffffffffffffffffffffffffffffffff021916908373ffffffffffffffffffffffffffffffffffffffff16021790555060015f5f8373ffffffffffffffffffffffffffffffffffffffff1673ffffffffffffffffffffffffffffffffffffffff1681526020019081526020015f205f6101000a81548160ff0219169083151502179055508060025f6101000a81548173ffffffffffffffffffffffffffffffffffffffff021916908373ffffffffffffffffffffffffffffffffffffffff1602179055508073ffffffffffffffffffffffffffffffffffffffff167f5da9e3b1ce76554e35effebedf6f46871ecbe743a32c8984a2bd400617b5f3494260405161026291906107b2565b60405180910390a25f5f90505b825181101561049d575f83828151811061028c5761028b6107cb565b5b602002602001015190505f73ffffffffffffffffffffffffffffffffffffffff168173ffffffffffffffffffffffffffffffffffffffff1603610304576040517f08c379a00000000000000000000000000000000000000000000000000000000081526004016102fb90610842565b60405180910390fd5b5f5f8273ffffffffffffffffffffffffffffffffffffffff1673ffffffffffffffffffffffffffffffffffffffff1681526020019081526020015f205f9054906101000a900460ff161561038d576040517f08c379a0000000000000000000000000000000000000000000000000000000008152600401610384906108aa565b60405180910390fd5b600181908060018154018082558091505060019003905f5260205f20015f9091909190916101000a81548173ffffffffffffffffffffffffffffffffffffffff021916908373ffffffffffffffffffffffffffffffffffffffff16021790555060015f5f8373ffffffffffffffffffffffffffffffffffffffff1673ffffffffffffffffffffffffffffffffffffffff1681526020019081526020015f205f6101000a81548160ff0219169083151502179055508073ffffffffffffffffffffffffffffffffffffffff167f5da9e3b1ce76554e35effebedf6f46871ecbe743a32c8984a2bd400617b5f3494260405161048791906107b2565b60405180910390a250808060010191505061026f565b5050506108c8565b5f604051905090565b5f5ffd5b5f5ffd5b5f5ffd5b5f601f19601f8301169050919050565b7f4e487b71000000000000000000000000000000000000000000000000000000005f52604160045260245ffd5b610500826104ba565b810181811067ffffffffffffffff8211171561051f5761051e6104ca565b5b80604052505050565b5f6105316104a5565b905061053d82826104f7565b919050565b5f67ffffffffffffffff82111561055c5761055b6104ca565b5b602082029050602081019050919050565b5f5ffd5b5f73ffffffffffffffffffffffffffffffffffffffff82169050919050565b5f61059a82610571565b9050919050565b6105aa81610590565b81146105b4575f5ffd5b50565b5f815190506105c5816105a1565b92915050565b5f6105dd6105d884610542565b610528565b90508083825260208201905060208402830185811115610600576105ff61056d565b5b835b81811015610629578061061588826105b7565b845260208401935050602081019050610602565b5050509392505050565b5f82601f830112610647576106466104b6565b5b81516106578482602086016105cb565b91505092915050565b5f5f60408385031215610676576106756104ae565b5b5f83015167ffffffffffffffff811115610693576106926104b2565b5b61069f85828601610633565b92505060206106b0858286016105b7565b9150509250929050565b5f82825260208201905092915050565b7f496e76616c69642063686169726d616e206164647265737300000000000000005f82015250565b5f6106fe6018836106ba565b9150610709826106ca565b602082019050919050565b5f6020820190508181035f83015261072b816106f2565b9050919050565b7f43686169726d616e20616c7265616479206164646564000000000000000000005f82015250565b5f6107666016836106ba565b915061077182610732565b602082019050919050565b5f6020820190508181035f8301526107938161075a565b9050919050565b5f819050919050565b6107ac8161079a565b82525050565b5f6020820190506107c55f8301846107a3565b92915050565b7f4e487b71000000000000000000000000000000000000000000000000000000005f52603260045260245ffd5b7f496e76616c6964206d656d6265722061646472657373000000000000000000005f82015250565b5f61082c6016836106ba565b9150610837826107f8565b602082019050919050565b5f6020820190508181035f83015261085981610820565b9050919050565b7f4475706c696361746520626f617264206d656d626572000000000000000000005f82015250565b5f6108946016836106ba565b915061089f82610860565b602082019050919050565b5f6020820190508181035f8301526108c181610888565b9050919050565b6114de806108d55f395ff3fe608060405234801561000f575f5ffd5b506004361061009c575f3560e01c80636d882eaf116100645780636d882eaf1461014457806371942a011461016057806387f7b97514610190578063edd4ea9a146101ae578063f5dbdfb9146101cc5761009c565b80631668dbc3146100a05780631eac03ae146100be57806338287259146100da57806339a169f91461010a578063509081d714610126575b5f5ffd5b6100a86101ea565b6040516100b59190610dae565b60405180910390f35b6100d860048036038101906100d39190610e25565b6101f6565b005b6100f460048036038101906100ef9190610e25565b61041e565b6040516101019190610e6a565b60405180910390f35b610124600480360381019061011f9190610e25565b610476565b005b61012e61072c565b60405161013b9190610dae565b60405180910390f35b61015e60048036038101906101599190610e25565b610731565b005b61017a60048036038101906101759190610e25565b610a08565b6040516101879190610e6a565b60405180910390f35b610198610a59565b6040516101a59190610e92565b60405180910390f35b6101b6610a7e565b6040516101c39190610f62565b60405180910390f35b6101d4610b09565b6040516101e19190610dae565b60405180910390f35b5f600180549050905090565b60025f9054906101000a900473ffffffffffffffffffffffffffffffffffffffff1673ffffffffffffffffffffffffffffffffffffffff163373ffffffffffffffffffffffffffffffffffffffff1614610285576040517f08c379a000000000000000000000000000000000000000000000000000000000815260040161027c90611002565b60405180910390fd5b5f73ffffffffffffffffffffffffffffffffffffffff168173ffffffffffffffffffffffffffffffffffffffff16036102f3576040517f08c379a00000000000000000000000000000000000000000000000000000000081526004016102ea9061106a565b60405180910390fd5b5f5f8273ffffffffffffffffffffffffffffffffffffffff1673ffffffffffffffffffffffffffffffffffffffff1681526020019081526020015f205f9054906101000a900460ff161561037c576040517f08c379a0000000000000000000000000000000000000000000000000000000008152600401610373906110d2565b60405180910390fd5b600f600180549050106103c4576040517f08c379a00000000000000000000000000000000000000000000000000000000081526004016103bb9061113a565b60405180910390fd5b6103cd81610b0e565b8073ffffffffffffffffffffffffffffffffffffffff167f5da9e3b1ce76554e35effebedf6f46871ecbe743a32c8984a2bd400617b5f349426040516104139190610dae565b60405180910390a250565b5f60025f9054906101000a900473ffffffffffffffffffffffffffffffffffffffff1673ffffffffffffffffffffffffffffffffffffffff168273ffffffffffffffffffffffffffffffffffffffff16149050919050565b60025f9054906101000a900473ffffffffffffffffffffffffffffffffffffffff1673ffffffffffffffffffffffffffffffffffffffff163373ffffffffffffffffffffffffffffffffffffffff1614610505576040517f08c379a00000000000000000000000000000000000000000000000000000000081526004016104fc90611002565b60405180910390fd5b5f73ffffffffffffffffffffffffffffffffffffffff168173ffffffffffffffffffffffffffffffffffffffff1603610573576040517f08c379a000000000000000000000000000000000000000000000000000000000815260040161056a9061106a565b60405180910390fd5b5f5f8273ffffffffffffffffffffffffffffffffffffffff1673ffffffffffffffffffffffffffffffffffffffff1681526020019081526020015f205f9054906101000a900460ff166105fb576040517f08c379a00000000000000000000000000000000000000000000000000000000081526004016105f2906111a2565b60405180910390fd5b60025f9054906101000a900473ffffffffffffffffffffffffffffffffffffffff1673ffffffffffffffffffffffffffffffffffffffff168173ffffffffffffffffffffffffffffffffffffffff160361068a576040517f08c379a00000000000000000000000000000000000000000000000000000000081526004016106819061120a565b60405180910390fd5b6003600180549050116106d2576040517f08c379a00000000000000000000000000000000000000000000000000000000081526004016106c990611272565b60405180910390fd5b6106db81610bc5565b8073ffffffffffffffffffffffffffffffffffffffff167f319b390da9762dd26387377e90e2d4cb72f052bbf1441dbc982081b00d085a7f426040516107219190610dae565b60405180910390a250565b600381565b60025f9054906101000a900473ffffffffffffffffffffffffffffffffffffffff1673ffffffffffffffffffffffffffffffffffffffff163373ffffffffffffffffffffffffffffffffffffffff16146107c0576040517f08c379a00000000000000000000000000000000000000000000000000000000081526004016107b790611002565b60405180910390fd5b5f73ffffffffffffffffffffffffffffffffffffffff168173ffffffffffffffffffffffffffffffffffffffff160361082e576040517f08c379a0000000000000000000000000000000000000000000000000000000008152600401610825906112da565b60405180910390fd5b5f5f8273ffffffffffffffffffffffffffffffffffffffff1673ffffffffffffffffffffffffffffffffffffffff1681526020019081526020015f205f9054906101000a900460ff166108b6576040517f08c379a00000000000000000000000000000000000000000000000000000000081526004016108ad90611368565b60405180910390fd5b60025f9054906101000a900473ffffffffffffffffffffffffffffffffffffffff1673ffffffffffffffffffffffffffffffffffffffff168173ffffffffffffffffffffffffffffffffffffffff1603610945576040517f08c379a000000000000000000000000000000000000000000000000000000000815260040161093c906113d0565b60405180910390fd5b5f60025f9054906101000a900473ffffffffffffffffffffffffffffffffffffffff1690508160025f6101000a81548173ffffffffffffffffffffffffffffffffffffffff021916908373ffffffffffffffffffffffffffffffffffffffff1602179055508173ffffffffffffffffffffffffffffffffffffffff168173ffffffffffffffffffffffffffffffffffffffff167f624ac90c3e9c790ddaeb9178ab1fa7e56e45575ce391872b53ef0ed90f808bcc60405160405180910390a35050565b5f5f5f8373ffffffffffffffffffffffffffffffffffffffff1673ffffffffffffffffffffffffffffffffffffffff1681526020019081526020015f205f9054906101000a900460ff169050919050565b60025f9054906101000a900473ffffffffffffffffffffffffffffffffffffffff1681565b60606001805480602002602001604051908101604052809291908181526020018280548015610aff57602002820191905f5260205f20905b815f9054906101000a900473ffffffffffffffffffffffffffffffffffffffff1673ffffffffffffffffffffffffffffffffffffffff1681526020019060010190808311610ab6575b5050505050905090565b600f81565b60015f5f8373ffffffffffffffffffffffffffffffffffffffff1673ffffffffffffffffffffffffffffffffffffffff1681526020019081526020015f205f6101000a81548160ff021916908315150217905550600181908060018154018082558091505060019003905f5260205f20015f9091909190916101000a81548173ffffffffffffffffffffffffffffffffffffffff021916908373ffffffffffffffffffffffffffffffffffffffff16021790555050565b5f5f5f8373ffffffffffffffffffffffffffffffffffffffff1673ffffffffffffffffffffffffffffffffffffffff1681526020019081526020015f205f6101000a81548160ff0219169083151502179055505f5f90505b600180549050811015610d92578173ffffffffffffffffffffffffffffffffffffffff1660018281548110610c5557610c546113ee565b5b905f5260205f20015f9054906101000a900473ffffffffffffffffffffffffffffffffffffffff1673ffffffffffffffffffffffffffffffffffffffff1603610d85576001808080549050610caa9190611448565b81548110610cbb57610cba6113ee565b5b905f5260205f20015f9054906101000a900473ffffffffffffffffffffffffffffffffffffffff1660018281548110610cf757610cf66113ee565b5b905f5260205f20015f6101000a81548173ffffffffffffffffffffffffffffffffffffffff021916908373ffffffffffffffffffffffffffffffffffffffff1602179055506001805480610d4e57610d4d61147b565b5b600190038181905f5260205f20015f6101000a81549073ffffffffffffffffffffffffffffffffffffffff02191690559055610d92565b8080600101915050610c1d565b5050565b5f819050919050565b610da881610d96565b82525050565b5f602082019050610dc15f830184610d9f565b92915050565b5f5ffd5b5f73ffffffffffffffffffffffffffffffffffffffff82169050919050565b5f610df482610dcb565b9050919050565b610e0481610dea565b8114610e0e575f5ffd5b50565b5f81359050610e1f81610dfb565b92915050565b5f60208284031215610e3a57610e39610dc7565b5b5f610e4784828501610e11565b91505092915050565b5f8115159050919050565b610e6481610e50565b82525050565b5f602082019050610e7d5f830184610e5b565b92915050565b610e8c81610dea565b82525050565b5f602082019050610ea55f830184610e83565b92915050565b5f81519050919050565b5f82825260208201905092915050565b5f819050602082019050919050565b610edd81610dea565b82525050565b5f610eee8383610ed4565b60208301905092915050565b5f602082019050919050565b5f610f1082610eab565b610f1a8185610eb5565b9350610f2583610ec5565b805f5b83811015610f55578151610f3c8882610ee3565b9750610f4783610efa565b925050600181019050610f28565b5085935050505092915050565b5f6020820190508181035f830152610f7a8184610f06565b905092915050565b5f82825260208201905092915050565b7f4f6e6c792063686169726d616e2063616e20706572666f726d207468697320615f8201527f6374696f6e000000000000000000000000000000000000000000000000000000602082015250565b5f610fec602583610f82565b9150610ff782610f92565b604082019050919050565b5f6020820190508181035f83015261101981610fe0565b9050919050565b7f496e76616c6964206d656d6265722061646472657373000000000000000000005f82015250565b5f611054601683610f82565b915061105f82611020565b602082019050919050565b5f6020820190508181035f83015261108181611048565b9050919050565b7f416c7265616479206120626f617264206d656d626572000000000000000000005f82015250565b5f6110bc601683610f82565b91506110c782611088565b602082019050919050565b5f6020820190508181035f8301526110e9816110b0565b9050919050565b7f426f617264206174206d6178696d756d2073697a6500000000000000000000005f82015250565b5f611124601583610f82565b915061112f826110f0565b602082019050919050565b5f6020820190508181035f83015261115181611118565b9050919050565b7f4e6f74206120626f617264206d656d62657200000000000000000000000000005f82015250565b5f61118c601283610f82565b915061119782611158565b602082019050919050565b5f6020820190508181035f8301526111b981611180565b9050919050565b7f43616e6e6f742072656d6f76652063686169726d616e000000000000000000005f82015250565b5f6111f4601683610f82565b91506111ff826111c0565b602082019050919050565b5f6020820190508181035f830152611221816111e8565b9050919050565b7f43616e6e6f7420676f2062656c6f77206d696e696d756d2073697a65000000005f82015250565b5f61125c601c83610f82565b915061126782611228565b602082019050919050565b5f6020820190508181035f83015261128981611250565b9050919050565b7f496e76616c69642063686169726d616e206164647265737300000000000000005f82015250565b5f6112c4601883610f82565b91506112cf82611290565b602082019050919050565b5f6020820190508181035f8301526112f1816112b8565b9050919050565b7f4e65772063686169726d616e206d75737420626520626f617264206d656d62655f8201527f7200000000000000000000000000000000000000000000000000000000000000602082015250565b5f611352602183610f82565b915061135d826112f8565b604082019050919050565b5f6020820190508181035f83015261137f81611346565b9050919050565b7f416c72656164792063686169726d616e000000000000000000000000000000005f82015250565b5f6113ba601083610f82565b91506113c582611386565b602082019050919050565b5f6020820190508181035f8301526113e7816113ae565b9050919050565b7f4e487b71000000000000000000000000000000000000000000000000000000005f52603260045260245ffd5b7f4e487b71000000000000000000000000000000000000000000000000000000005f52601160045260245ffd5b5f61145282610d96565b915061145d83610d96565b92508282039050818111156114755761147461141b565b5b92915050565b7f4e487b71000000000000000000000000000000000000000000000000000000005f52603160045260245ffdfea264697066735822122024bd051be6833dc5181891e9920236c8bee7b7c86e25547f760f0d9f29a9da5564736f6c634300081e0033","linkReferences":{}},"methodIdentifiers":{"MAX_BOARD_SIZE()":"f5dbdfb9","MIN_BOARD_SIZE()":"509081d7","addBoardMember(address)":"1eac03ae","chairman()":"87f7b975","getBoardMembers()":"edd4ea9a","getBoardSize()":"1668dbc3","isBoardMember(address)":"71942a01","isChairman(address)":"38287259","removeBoardMember(address)":"39a169f9","transferChairmanship(address)":"6d882eaf"},"id":53}