{
    "abi": [
        {
            "type": "constructor",
            "inputs": [
                {
                    "name": "params",
                    "type": "tuple",
                    "internalType": "struct CreateEncryptedERCParams",
                    "components": [
                        {
                            "name": "registrar",
                            "type": "address",
                            "internalType": "address"
                        },
                        {
                            "name": "isConverter",
                            "type": "bool",
                            "internalType": "bool"
                        },
                        {
                            "name": "name",
                            "type": "string",
                            "internalType": "string"
                        },
                        {
                            "name": "symbol",
                            "type": "string",
                            "internalType": "string"
                        },
                        {
                            "name": "decimals",
                            "type": "uint8",
                            "internalType": "uint8"
                        },
                        {
                            "name": "mintVerifier",
                            "type": "address",
                            "internalType": "address"
                        },
                        {
                            "name": "withdrawVerifier",
                            "type": "address",
                            "internalType": "address"
                        },
                        {
                            "name": "transferVerifier",
                            "type": "address",
                            "internalType": "address"
                        },
                        {
                            "name": "burnVerifier",
                            "type": "address",
                            "internalType": "address"
                        }
                    ]
                }
            ],
            "stateMutability": "nonpayable"
        },
        {
            "type": "function",
            "name": "acceptOwnership",
            "inputs": [],
            "outputs": [],
            "stateMutability": "nonpayable"
        },
        {
            "type": "function",
            "name": "alreadyMinted",
            "inputs": [
                {
                    "name": "mintNullifier",
                    "type": "uint256",
                    "internalType": "uint256"
                }
            ],
            "outputs": [
                {
                    "name": "isUsed",
                    "type": "bool",
                    "internalType": "bool"
                }
            ],
            "stateMutability": "view"
        },
        {
            "type": "function",
            "name": "auditor",
            "inputs": [],
            "outputs": [
                {
                    "name": "",
                    "type": "address",
                    "internalType": "address"
                }
            ],
            "stateMutability": "view"
        },
        {
            "type": "function",
            "name": "auditorPublicKey",
            "inputs": [],
            "outputs": [
                {
                    "name": "x",
                    "type": "uint256",
                    "internalType": "uint256"
                },
                {
                    "name": "y",
                    "type": "uint256",
                    "internalType": "uint256"
                }
            ],
            "stateMutability": "view"
        },
        {
            "type": "function",
            "name": "balanceOf",
            "inputs": [
                {
                    "name": "user",
                    "type": "address",
                    "internalType": "address"
                },
                {
                    "name": "tokenId",
                    "type": "uint256",
                    "internalType": "uint256"
                }
            ],
            "outputs": [
                {
                    "name": "eGCT",
                    "type": "tuple",
                    "internalType": "struct EGCT",
                    "components": [
                        {
                            "name": "c1",
                            "type": "tuple",
                            "internalType": "struct Point",
                            "components": [
                                {
                                    "name": "x",
                                    "type": "uint256",
                                    "internalType": "uint256"
                                },
                                {
                                    "name": "y",
                                    "type": "uint256",
                                    "internalType": "uint256"
                                }
                            ]
                        },
                        {
                            "name": "c2",
                            "type": "tuple",
                            "internalType": "struct Point",
                            "components": [
                                {
                                    "name": "x",
                                    "type": "uint256",
                                    "internalType": "uint256"
                                },
                                {
                                    "name": "y",
                                    "type": "uint256",
                                    "internalType": "uint256"
                                }
                            ]
                        }
                    ]
                },
                {
                    "name": "nonce",
                    "type": "uint256",
                    "internalType": "uint256"
                },
                {
                    "name": "amountPCTs",
                    "type": "tuple[]",
                    "internalType": "struct AmountPCT[]",
                    "components": [
                        {
                            "name": "pct",
                            "type": "uint256[7]",
                            "internalType": "uint256[7]"
                        },
                        {
                            "name": "index",
                            "type": "uint256",
                            "internalType": "uint256"
                        }
                    ]
                },
                {
                    "name": "balancePCT",
                    "type": "uint256[7]",
                    "internalType": "uint256[7]"
                },
                {
                    "name": "transactionIndex",
                    "type": "uint256",
                    "internalType": "uint256"
                }
            ],
            "stateMutability": "view"
        },
        {
            "type": "function",
            "name": "balanceOfStandalone",
            "inputs": [
                {
                    "name": "user",
                    "type": "address",
                    "internalType": "address"
                }
            ],
            "outputs": [
                {
                    "name": "eGCT",
                    "type": "tuple",
                    "internalType": "struct EGCT",
                    "components": [
                        {
                            "name": "c1",
                            "type": "tuple",
                            "internalType": "struct Point",
                            "components": [
                                {
                                    "name": "x",
                                    "type": "uint256",
                                    "internalType": "uint256"
                                },
                                {
                                    "name": "y",
                                    "type": "uint256",
                                    "internalType": "uint256"
                                }
                            ]
                        },
                        {
                            "name": "c2",
                            "type": "tuple",
                            "internalType": "struct Point",
                            "components": [
                                {
                                    "name": "x",
                                    "type": "uint256",
                                    "internalType": "uint256"
                                },
                                {
                                    "name": "y",
                                    "type": "uint256",
                                    "internalType": "uint256"
                                }
                            ]
                        }
                    ]
                },
                {
                    "name": "nonce",
                    "type": "uint256",
                    "internalType": "uint256"
                },
                {
                    "name": "amountPCTs",
                    "type": "tuple[]",
                    "internalType": "struct AmountPCT[]",
                    "components": [
                        {
                            "name": "pct",
                            "type": "uint256[7]",
                            "internalType": "uint256[7]"
                        },
                        {
                            "name": "index",
                            "type": "uint256",
                            "internalType": "uint256"
                        }
                    ]
                },
                {
                    "name": "balancePCT",
                    "type": "uint256[7]",
                    "internalType": "uint256[7]"
                },
                {
                    "name": "transactionIndex",
                    "type": "uint256",
                    "internalType": "uint256"
                }
            ],
            "stateMutability": "view"
        },
        {
            "type": "function",
            "name": "balances",
            "inputs": [
                {
                    "name": "user",
                    "type": "address",
                    "internalType": "address"
                },
                {
                    "name": "tokenId",
                    "type": "uint256",
                    "internalType": "uint256"
                }
            ],
            "outputs": [
                {
                    "name": "eGCT",
                    "type": "tuple",
                    "internalType": "struct EGCT",
                    "components": [
                        {
                            "name": "c1",
                            "type": "tuple",
                            "internalType": "struct Point",
                            "components": [
                                {
                                    "name": "x",
                                    "type": "uint256",
                                    "internalType": "uint256"
                                },
                                {
                                    "name": "y",
                                    "type": "uint256",
                                    "internalType": "uint256"
                                }
                            ]
                        },
                        {
                            "name": "c2",
                            "type": "tuple",
                            "internalType": "struct Point",
                            "components": [
                                {
                                    "name": "x",
                                    "type": "uint256",
                                    "internalType": "uint256"
                                },
                                {
                                    "name": "y",
                                    "type": "uint256",
                                    "internalType": "uint256"
                                }
                            ]
                        }
                    ]
                },
                {
                    "name": "nonce",
                    "type": "uint256",
                    "internalType": "uint256"
                },
                {
                    "name": "transactionIndex",
                    "type": "uint256",
                    "internalType": "uint256"
                }
            ],
            "stateMutability": "view"
        },
        {
            "type": "function",
            "name": "blacklistedTokens",
            "inputs": [
                {
                    "name": "tokenAddress",
                    "type": "address",
                    "internalType": "address"
                }
            ],
            "outputs": [
                {
                    "name": "isBlacklisted",
                    "type": "bool",
                    "internalType": "bool"
                }
            ],
            "stateMutability": "view"
        },
        {
            "type": "function",
            "name": "burnVerifier",
            "inputs": [],
            "outputs": [
                {
                    "name": "",
                    "type": "address",
                    "internalType": "contract IBurnVerifier"
                }
            ],
            "stateMutability": "view"
        },
        {
            "type": "function",
            "name": "decimals",
            "inputs": [],
            "outputs": [
                {
                    "name": "",
                    "type": "uint8",
                    "internalType": "uint8"
                }
            ],
            "stateMutability": "view"
        },
        {
            "type": "function",
            "name": "deposit",
            "inputs": [
                {
                    "name": "amount",
                    "type": "uint256",
                    "internalType": "uint256"
                },
                {
                    "name": "tokenAddress",
                    "type": "address",
                    "internalType": "address"
                },
                {
                    "name": "amountPCT",
                    "type": "uint256[7]",
                    "internalType": "uint256[7]"
                }
            ],
            "outputs": [],
            "stateMutability": "nonpayable"
        },
        {
            "type": "function",
            "name": "deposit",
            "inputs": [
                {
                    "name": "amount",
                    "type": "uint256",
                    "internalType": "uint256"
                },
                {
                    "name": "tokenAddress",
                    "type": "address",
                    "internalType": "address"
                },
                {
                    "name": "amountPCT",
                    "type": "uint256[7]",
                    "internalType": "uint256[7]"
                },
                {
                    "name": "message",
                    "type": "bytes",
                    "internalType": "bytes"
                }
            ],
            "outputs": [],
            "stateMutability": "nonpayable"
        },
        {
            "type": "function",
            "name": "getBalanceFromTokenAddress",
            "inputs": [
                {
                    "name": "user",
                    "type": "address",
                    "internalType": "address"
                },
                {
                    "name": "tokenAddress",
                    "type": "address",
                    "internalType": "address"
                }
            ],
            "outputs": [
                {
                    "name": "eGCT",
                    "type": "tuple",
                    "internalType": "struct EGCT",
                    "components": [
                        {
                            "name": "c1",
                            "type": "tuple",
                            "internalType": "struct Point",
                            "components": [
                                {
                                    "name": "x",
                                    "type": "uint256",
                                    "internalType": "uint256"
                                },
                                {
                                    "name": "y",
                                    "type": "uint256",
                                    "internalType": "uint256"
                                }
                            ]
                        },
                        {
                            "name": "c2",
                            "type": "tuple",
                            "internalType": "struct Point",
                            "components": [
                                {
                                    "name": "x",
                                    "type": "uint256",
                                    "internalType": "uint256"
                                },
                                {
                                    "name": "y",
                                    "type": "uint256",
                                    "internalType": "uint256"
                                }
                            ]
                        }
                    ]
                },
                {
                    "name": "nonce",
                    "type": "uint256",
                    "internalType": "uint256"
                },
                {
                    "name": "amountPCTs",
                    "type": "tuple[]",
                    "internalType": "struct AmountPCT[]",
                    "components": [
                        {
                            "name": "pct",
                            "type": "uint256[7]",
                            "internalType": "uint256[7]"
                        },
                        {
                            "name": "index",
                            "type": "uint256",
                            "internalType": "uint256"
                        }
                    ]
                },
                {
                    "name": "balancePCT",
                    "type": "uint256[7]",
                    "internalType": "uint256[7]"
                },
                {
                    "name": "transactionIndex",
                    "type": "uint256",
                    "internalType": "uint256"
                }
            ],
            "stateMutability": "view"
        },
        {
            "type": "function",
            "name": "getTokens",
            "inputs": [],
            "outputs": [
                {
                    "name": "",
                    "type": "address[]",
                    "internalType": "address[]"
                }
            ],
            "stateMutability": "view"
        },
        {
            "type": "function",
            "name": "isAuditorKeySet",
            "inputs": [],
            "outputs": [
                {
                    "name": "",
                    "type": "bool",
                    "internalType": "bool"
                }
            ],
            "stateMutability": "view"
        },
        {
            "type": "function",
            "name": "isConverter",
            "inputs": [],
            "outputs": [
                {
                    "name": "",
                    "type": "bool",
                    "internalType": "bool"
                }
            ],
            "stateMutability": "view"
        },
        {
            "type": "function",
            "name": "mintVerifier",
            "inputs": [],
            "outputs": [
                {
                    "name": "",
                    "type": "address",
                    "internalType": "contract IMintVerifier"
                }
            ],
            "stateMutability": "view"
        },
        {
            "type": "function",
            "name": "name",
            "inputs": [],
            "outputs": [
                {
                    "name": "",
                    "type": "string",
                    "internalType": "string"
                }
            ],
            "stateMutability": "view"
        },
        {
            "type": "function",
            "name": "nextTokenId",
            "inputs": [],
            "outputs": [
                {
                    "name": "",
                    "type": "uint256",
                    "internalType": "uint256"
                }
            ],
            "stateMutability": "view"
        },
        {
            "type": "function",
            "name": "owner",
            "inputs": [],
            "outputs": [
                {
                    "name": "",
                    "type": "address",
                    "internalType": "address"
                }
            ],
            "stateMutability": "view"
        },
        {
            "type": "function",
            "name": "pendingOwner",
            "inputs": [],
            "outputs": [
                {
                    "name": "",
                    "type": "address",
                    "internalType": "address"
                }
            ],
            "stateMutability": "view"
        },
        {
            "type": "function",
            "name": "privateBurn",
            "inputs": [
                {
                    "name": "user",
                    "type": "address",
                    "internalType": "address"
                },
                {
                    "name": "proof",
                    "type": "tuple",
                    "internalType": "struct BurnProof",
                    "components": [
                        {
                            "name": "proofPoints",
                            "type": "tuple",
                            "internalType": "struct ProofPoints",
                            "components": [
                                {
                                    "name": "a",
                                    "type": "uint256[2]",
                                    "internalType": "uint256[2]"
                                },
                                {
                                    "name": "b",
                                    "type": "uint256[2][2]",
                                    "internalType": "uint256[2][2]"
                                },
                                {
                                    "name": "c",
                                    "type": "uint256[2]",
                                    "internalType": "uint256[2]"
                                }
                            ]
                        },
                        {
                            "name": "publicSignals",
                            "type": "uint256[19]",
                            "internalType": "uint256[19]"
                        }
                    ]
                },
                {
                    "name": "balancePCT",
                    "type": "uint256[7]",
                    "internalType": "uint256[7]"
                },
                {
                    "name": "message",
                    "type": "bytes",
                    "internalType": "bytes"
                }
            ],
            "outputs": [],
            "stateMutability": "nonpayable"
        },
        {
            "type": "function",
            "name": "privateBurn",
            "inputs": [
                {
                    "name": "proof",
                    "type": "tuple",
                    "internalType": "struct BurnProof",
                    "components": [
                        {
                            "name": "proofPoints",
                            "type": "tuple",
                            "internalType": "struct ProofPoints",
                            "components": [
                                {
                                    "name": "a",
                                    "type": "uint256[2]",
                                    "internalType": "uint256[2]"
                                },
                                {
                                    "name": "b",
                                    "type": "uint256[2][2]",
                                    "internalType": "uint256[2][2]"
                                },
                                {
                                    "name": "c",
                                    "type": "uint256[2]",
                                    "internalType": "uint256[2]"
                                }
                            ]
                        },
                        {
                            "name": "publicSignals",
                            "type": "uint256[19]",
                            "internalType": "uint256[19]"
                        }
                    ]
                },
                {
                    "name": "balancePCT",
                    "type": "uint256[7]",
                    "internalType": "uint256[7]"
                }
            ],
            "outputs": [],
            "stateMutability": "nonpayable"
        },
        {
            "type": "function",
            "name": "privateMint",
            "inputs": [
                {
                    "name": "user",
                    "type": "address",
                    "internalType": "address"
                },
                {
                    "name": "proof",
                    "type": "tuple",
                    "internalType": "struct MintProof",
                    "components": [
                        {
                            "name": "proofPoints",
                            "type": "tuple",
                            "internalType": "struct ProofPoints",
                            "components": [
                                {
                                    "name": "a",
                                    "type": "uint256[2]",
                                    "internalType": "uint256[2]"
                                },
                                {
                                    "name": "b",
                                    "type": "uint256[2][2]",
                                    "internalType": "uint256[2][2]"
                                },
                                {
                                    "name": "c",
                                    "type": "uint256[2]",
                                    "internalType": "uint256[2]"
                                }
                            ]
                        },
                        {
                            "name": "publicSignals",
                            "type": "uint256[24]",
                            "internalType": "uint256[24]"
                        }
                    ]
                }
            ],
            "outputs": [],
            "stateMutability": "nonpayable"
        },
        {
            "type": "function",
            "name": "privateMint",
            "inputs": [
                {
                    "name": "user",
                    "type": "address",
                    "internalType": "address"
                },
                {
                    "name": "proof",
                    "type": "tuple",
                    "internalType": "struct MintProof",
                    "components": [
                        {
                            "name": "proofPoints",
                            "type": "tuple",
                            "internalType": "struct ProofPoints",
                            "components": [
                                {
                                    "name": "a",
                                    "type": "uint256[2]",
                                    "internalType": "uint256[2]"
                                },
                                {
                                    "name": "b",
                                    "type": "uint256[2][2]",
                                    "internalType": "uint256[2][2]"
                                },
                                {
                                    "name": "c",
                                    "type": "uint256[2]",
                                    "internalType": "uint256[2]"
                                }
                            ]
                        },
                        {
                            "name": "publicSignals",
                            "type": "uint256[24]",
                            "internalType": "uint256[24]"
                        }
                    ]
                },
                {
                    "name": "message",
                    "type": "bytes",
                    "internalType": "bytes"
                }
            ],
            "outputs": [],
            "stateMutability": "nonpayable"
        },
        {
            "type": "function",
            "name": "registrar",
            "inputs": [],
            "outputs": [
                {
                    "name": "",
                    "type": "address",
                    "internalType": "contract IRegistrar"
                }
            ],
            "stateMutability": "view"
        },
        {
            "type": "function",
            "name": "renounceOwnership",
            "inputs": [],
            "outputs": [],
            "stateMutability": "nonpayable"
        },
        {
            "type": "function",
            "name": "sendEncryptedMetadata",
            "inputs": [
                {
                    "name": "to",
                    "type": "address",
                    "internalType": "address"
                },
                {
                    "name": "message",
                    "type": "bytes",
                    "internalType": "bytes"
                }
            ],
            "outputs": [],
            "stateMutability": "nonpayable"
        },
        {
            "type": "function",
            "name": "setAuditorPublicKey",
            "inputs": [
                {
                    "name": "user",
                    "type": "address",
                    "internalType": "address"
                }
            ],
            "outputs": [],
            "stateMutability": "nonpayable"
        },
        {
            "type": "function",
            "name": "setTokenBlacklist",
            "inputs": [
                {
                    "name": "token",
                    "type": "address",
                    "internalType": "address"
                },
                {
                    "name": "blacklisted",
                    "type": "bool",
                    "internalType": "bool"
                }
            ],
            "outputs": [],
            "stateMutability": "nonpayable"
        },
        {
            "type": "function",
            "name": "symbol",
            "inputs": [],
            "outputs": [
                {
                    "name": "",
                    "type": "string",
                    "internalType": "string"
                }
            ],
            "stateMutability": "view"
        },
        {
            "type": "function",
            "name": "tokenAddresses",
            "inputs": [
                {
                    "name": "tokenId",
                    "type": "uint256",
                    "internalType": "uint256"
                }
            ],
            "outputs": [
                {
                    "name": "tokenAddress",
                    "type": "address",
                    "internalType": "address"
                }
            ],
            "stateMutability": "view"
        },
        {
            "type": "function",
            "name": "tokenIds",
            "inputs": [
                {
                    "name": "tokenAddress",
                    "type": "address",
                    "internalType": "address"
                }
            ],
            "outputs": [
                {
                    "name": "tokenId",
                    "type": "uint256",
                    "internalType": "uint256"
                }
            ],
            "stateMutability": "view"
        },
        {
            "type": "function",
            "name": "tokens",
            "inputs": [
                {
                    "name": "",
                    "type": "uint256",
                    "internalType": "uint256"
                }
            ],
            "outputs": [
                {
                    "name": "",
                    "type": "address",
                    "internalType": "address"
                }
            ],
            "stateMutability": "view"
        },
        {
            "type": "function",
            "name": "transfer",
            "inputs": [
                {
                    "name": "to",
                    "type": "address",
                    "internalType": "address"
                },
                {
                    "name": "tokenId",
                    "type": "uint256",
                    "internalType": "uint256"
                },
                {
                    "name": "proof",
                    "type": "tuple",
                    "internalType": "struct TransferProof",
                    "components": [
                        {
                            "name": "proofPoints",
                            "type": "tuple",
                            "internalType": "struct ProofPoints",
                            "components": [
                                {
                                    "name": "a",
                                    "type": "uint256[2]",
                                    "internalType": "uint256[2]"
                                },
                                {
                                    "name": "b",
                                    "type": "uint256[2][2]",
                                    "internalType": "uint256[2][2]"
                                },
                                {
                                    "name": "c",
                                    "type": "uint256[2]",
                                    "internalType": "uint256[2]"
                                }
                            ]
                        },
                        {
                            "name": "publicSignals",
                            "type": "uint256[32]",
                            "internalType": "uint256[32]"
                        }
                    ]
                },
                {
                    "name": "balancePCT",
                    "type": "uint256[7]",
                    "internalType": "uint256[7]"
                }
            ],
            "outputs": [],
            "stateMutability": "nonpayable"
        },
        {
            "type": "function",
            "name": "transfer",
            "inputs": [
                {
                    "name": "to",
                    "type": "address",
                    "internalType": "address"
                },
                {
                    "name": "tokenId",
                    "type": "uint256",
                    "internalType": "uint256"
                },
                {
                    "name": "proof",
                    "type": "tuple",
                    "internalType": "struct TransferProof",
                    "components": [
                        {
                            "name": "proofPoints",
                            "type": "tuple",
                            "internalType": "struct ProofPoints",
                            "components": [
                                {
                                    "name": "a",
                                    "type": "uint256[2]",
                                    "internalType": "uint256[2]"
                                },
                                {
                                    "name": "b",
                                    "type": "uint256[2][2]",
                                    "internalType": "uint256[2][2]"
                                },
                                {
                                    "name": "c",
                                    "type": "uint256[2]",
                                    "internalType": "uint256[2]"
                                }
                            ]
                        },
                        {
                            "name": "publicSignals",
                            "type": "uint256[32]",
                            "internalType": "uint256[32]"
                        }
                    ]
                },
                {
                    "name": "balancePCT",
                    "type": "uint256[7]",
                    "internalType": "uint256[7]"
                },
                {
                    "name": "message",
                    "type": "bytes",
                    "internalType": "bytes"
                }
            ],
            "outputs": [],
            "stateMutability": "nonpayable"
        },
        {
            "type": "function",
            "name": "transferOwnership",
            "inputs": [
                {
                    "name": "newOwner",
                    "type": "address",
                    "internalType": "address"
                }
            ],
            "outputs": [],
            "stateMutability": "nonpayable"
        },
        {
            "type": "function",
            "name": "transferVerifier",
            "inputs": [],
            "outputs": [
                {
                    "name": "",
                    "type": "address",
                    "internalType": "contract ITransferVerifier"
                }
            ],
            "stateMutability": "view"
        },
        {
            "type": "function",
            "name": "withdraw",
            "inputs": [
                {
                    "name": "tokenId",
                    "type": "uint256",
                    "internalType": "uint256"
                },
                {
                    "name": "proof",
                    "type": "tuple",
                    "internalType": "struct WithdrawProof",
                    "components": [
                        {
                            "name": "proofPoints",
                            "type": "tuple",
                            "internalType": "struct ProofPoints",
                            "components": [
                                {
                                    "name": "a",
                                    "type": "uint256[2]",
                                    "internalType": "uint256[2]"
                                },
                                {
                                    "name": "b",
                                    "type": "uint256[2][2]",
                                    "internalType": "uint256[2][2]"
                                },
                                {
                                    "name": "c",
                                    "type": "uint256[2]",
                                    "internalType": "uint256[2]"
                                }
                            ]
                        },
                        {
                            "name": "publicSignals",
                            "type": "uint256[16]",
                            "internalType": "uint256[16]"
                        }
                    ]
                },
                {
                    "name": "balancePCT",
                    "type": "uint256[7]",
                    "internalType": "uint256[7]"
                }
            ],
            "outputs": [],
            "stateMutability": "nonpayable"
        },
        {
            "type": "function",
            "name": "withdraw",
            "inputs": [
                {
                    "name": "tokenId",
                    "type": "uint256",
                    "internalType": "uint256"
                },
                {
                    "name": "proof",
                    "type": "tuple",
                    "internalType": "struct WithdrawProof",
                    "components": [
                        {
                            "name": "proofPoints",
                            "type": "tuple",
                            "internalType": "struct ProofPoints",
                            "components": [
                                {
                                    "name": "a",
                                    "type": "uint256[2]",
                                    "internalType": "uint256[2]"
                                },
                                {
                                    "name": "b",
                                    "type": "uint256[2][2]",
                                    "internalType": "uint256[2][2]"
                                },
                                {
                                    "name": "c",
                                    "type": "uint256[2]",
                                    "internalType": "uint256[2]"
                                }
                            ]
                        },
                        {
                            "name": "publicSignals",
                            "type": "uint256[16]",
                            "internalType": "uint256[16]"
                        }
                    ]
                },
                {
                    "name": "balancePCT",
                    "type": "uint256[7]",
                    "internalType": "uint256[7]"
                },
                {
                    "name": "message",
                    "type": "bytes",
                    "internalType": "bytes"
                }
            ],
            "outputs": [],
            "stateMutability": "nonpayable"
        },
        {
            "type": "function",
            "name": "withdrawVerifier",
            "inputs": [],
            "outputs": [
                {
                    "name": "",
                    "type": "address",
                    "internalType": "contract IWithdrawVerifier"
                }
            ],
            "stateMutability": "view"
        },
        {
            "type": "event",
            "name": "AuditorChanged",
            "inputs": [
                {
                    "name": "oldAuditor",
                    "type": "address",
                    "indexed": true,
                    "internalType": "address"
                },
                {
                    "name": "newAuditor",
                    "type": "address",
                    "indexed": true,
                    "internalType": "address"
                }
            ],
            "anonymous": false
        },
        {
            "type": "event",
            "name": "Deposit",
            "inputs": [
                {
                    "name": "user",
                    "type": "address",
                    "indexed": true,
                    "internalType": "address"
                },
                {
                    "name": "amount",
                    "type": "uint256",
                    "indexed": false,
                    "internalType": "uint256"
                },
                {
                    "name": "dust",
                    "type": "uint256",
                    "indexed": false,
                    "internalType": "uint256"
                },
                {
                    "name": "tokenId",
                    "type": "uint256",
                    "indexed": false,
                    "internalType": "uint256"
                }
            ],
            "anonymous": false
        },
        {
            "type": "event",
            "name": "OwnershipTransferStarted",
            "inputs": [
                {
                    "name": "previousOwner",
                    "type": "address",
                    "indexed": true,
                    "internalType": "address"
                },
                {
                    "name": "newOwner",
                    "type": "address",
                    "indexed": true,
                    "internalType": "address"
                }
            ],
            "anonymous": false
        },
        {
            "type": "event",
            "name": "OwnershipTransferred",
            "inputs": [
                {
                    "name": "previousOwner",
                    "type": "address",
                    "indexed": true,
                    "internalType": "address"
                },
                {
                    "name": "newOwner",
                    "type": "address",
                    "indexed": true,
                    "internalType": "address"
                }
            ],
            "anonymous": false
        },
        {
            "type": "event",
            "name": "PrivateBurn",
            "inputs": [
                {
                    "name": "user",
                    "type": "address",
                    "indexed": true,
                    "internalType": "address"
                },
                {
                    "name": "auditorPCT",
                    "type": "uint256[7]",
                    "indexed": false,
                    "internalType": "uint256[7]"
                },
                {
                    "name": "auditorAddress",
                    "type": "address",
                    "indexed": true,
                    "internalType": "address"
                }
            ],
            "anonymous": false
        },
        {
            "type": "event",
            "name": "PrivateMessage",
            "inputs": [
                {
                    "name": "from",
                    "type": "address",
                    "indexed": true,
                    "internalType": "address"
                },
                {
                    "name": "to",
                    "type": "address",
                    "indexed": true,
                    "internalType": "address"
                },
                {
                    "name": "metadata",
                    "type": "tuple",
                    "indexed": false,
                    "internalType": "struct Metadata",
                    "components": [
                        {
                            "name": "messageFrom",
                            "type": "address",
                            "internalType": "address"
                        },
                        {
                            "name": "messageTo",
                            "type": "address",
                            "internalType": "address"
                        },
                        {
                            "name": "messageType",
                            "type": "string",
                            "internalType": "string"
                        },
                        {
                            "name": "encryptedMsg",
                            "type": "bytes",
                            "internalType": "bytes"
                        }
                    ]
                }
            ],
            "anonymous": false
        },
        {
            "type": "event",
            "name": "PrivateMint",
            "inputs": [
                {
                    "name": "user",
                    "type": "address",
                    "indexed": true,
                    "internalType": "address"
                },
                {
                    "name": "auditorPCT",
                    "type": "uint256[7]",
                    "indexed": false,
                    "internalType": "uint256[7]"
                },
                {
                    "name": "auditorAddress",
                    "type": "address",
                    "indexed": true,
                    "internalType": "address"
                }
            ],
            "anonymous": false
        },
        {
            "type": "event",
            "name": "PrivateTransfer",
            "inputs": [
                {
                    "name": "from",
                    "type": "address",
                    "indexed": true,
                    "internalType": "address"
                },
                {
                    "name": "to",
                    "type": "address",
                    "indexed": true,
                    "internalType": "address"
                },
                {
                    "name": "auditorPCT",
                    "type": "uint256[7]",
                    "indexed": false,
                    "internalType": "uint256[7]"
                },
                {
                    "name": "auditorAddress",
                    "type": "address",
                    "indexed": true,
                    "internalType": "address"
                }
            ],
            "anonymous": false
        },
        {
            "type": "event",
            "name": "Withdraw",
            "inputs": [
                {
                    "name": "user",
                    "type": "address",
                    "indexed": true,
                    "internalType": "address"
                },
                {
                    "name": "amount",
                    "type": "uint256",
                    "indexed": false,
                    "internalType": "uint256"
                },
                {
                    "name": "tokenId",
                    "type": "uint256",
                    "indexed": false,
                    "internalType": "uint256"
                },
                {
                    "name": "auditorPCT",
                    "type": "uint256[7]",
                    "indexed": false,
                    "internalType": "uint256[7]"
                },
                {
                    "name": "auditorAddress",
                    "type": "address",
                    "indexed": true,
                    "internalType": "address"
                }
            ],
            "anonymous": false
        },
        {
            "type": "error",
            "name": "InvalidChainId",
            "inputs": []
        },
        {
            "type": "error",
            "name": "InvalidNullifier",
            "inputs": []
        },
        {
            "type": "error",
            "name": "InvalidOperation",
            "inputs": []
        },
        {
            "type": "error",
            "name": "InvalidProof",
            "inputs": []
        },
        {
            "type": "error",
            "name": "OwnableInvalidOwner",
            "inputs": [
                {
                    "name": "owner",
                    "type": "address",
                    "internalType": "address"
                }
            ]
        },
        {
            "type": "error",
            "name": "OwnableUnauthorizedAccount",
            "inputs": [
                {
                    "name": "account",
                    "type": "address",
                    "internalType": "address"
                }
            ]
        },
        {
            "type": "error",
            "name": "SafeERC20FailedOperation",
            "inputs": [
                {
                    "name": "token",
                    "type": "address",
                    "internalType": "address"
                }
            ]
        },
        {
            "type": "error",
            "name": "TokenBlacklisted",
            "inputs": [
                {
                    "name": "token",
                    "type": "address",
                    "internalType": "address"
                }
            ]
        },
        {
            "type": "error",
            "name": "TransferFailed",
            "inputs": []
        },
        {
            "type": "error",
            "name": "UnknownToken",
            "inputs": []
        },
        {
            "type": "error",
            "name": "UserNotRegistered",
            "inputs": []
        },
        {
            "type": "error",
            "name": "ZeroAddress",
            "inputs": []
        }
    ],
    "bytecode": {
        "object": "0x60a060405260016002555f60095f6101000a81548173ffffffffffffffffffffffffffffffffffffffff021916908373ffffffffffffffffffffffffffffffffffffffff16021790555060405180604001604052805f81526020015f815250600a5f820151815f015560208201518160010155505034801561007f575f5ffd5b50604051618e7b380380618e7b83398181016040528101906100a19190610857565b8060200151335f73ffffffffffffffffffffffffffffffffffffffff168173ffffffffffffffffffffffffffffffffffffffff1603610117575f6040517f1e4fbdf700000000000000000000000000000000000000000000000000000000815260040161010e91906108ad565b60405180910390fd5b6101268161043160201b60201c565b508060035f6101000a81548160ff021916908315150217905550505f73ffffffffffffffffffffffffffffffffffffffff16815f015173ffffffffffffffffffffffffffffffffffffffff1614806101ad57505f73ffffffffffffffffffffffffffffffffffffffff168160a0015173ffffffffffffffffffffffffffffffffffffffff16145b806101e757505f73ffffffffffffffffffffffffffffffffffffffff168160c0015173ffffffffffffffffffffffffffffffffffffffff16145b8061022157505f73ffffffffffffffffffffffffffffffffffffffff168160e0015173ffffffffffffffffffffffffffffffffffffffff16145b8061025c57505f73ffffffffffffffffffffffffffffffffffffffff1681610100015173ffffffffffffffffffffffffffffffffffffffff16145b15610293576040517fd92e233d00000000000000000000000000000000000000000000000000000000815260040160405180910390fd5b805f0151600c5f6101000a81548173ffffffffffffffffffffffffffffffffffffffff021916908373ffffffffffffffffffffffffffffffffffffffff1602179055508060a00151600d5f6101000a81548173ffffffffffffffffffffffffffffffffffffffff021916908373ffffffffffffffffffffffffffffffffffffffff1602179055508060c00151600e5f6101000a81548173ffffffffffffffffffffffffffffffffffffffff021916908373ffffffffffffffffffffffffffffffffffffffff1602179055508060e00151600f5f6101000a81548173ffffffffffffffffffffffffffffffffffffffff021916908373ffffffffffffffffffffffffffffffffffffffff16021790555080610100015160105f6101000a81548173ffffffffffffffffffffffffffffffffffffffff021916908373ffffffffffffffffffffffffffffffffffffffff1602179055508060200151610419578060400151601190816104039190610ad6565b508060600151601290816104179190610ad6565b505b806080015160ff1660808160ff168152505050610ba5565b60015f6101000a81549073ffffffffffffffffffffffffffffffffffffffff02191690556104648161046760201b60201c565b50565b5f5f5f9054906101000a900473ffffffffffffffffffffffffffffffffffffffff169050815f5f6101000a81548173ffffffffffffffffffffffffffffffffffffffff021916908373ffffffffffffffffffffffffffffffffffffffff1602179055508173ffffffffffffffffffffffffffffffffffffffff168173ffffffffffffffffffffffffffffffffffffffff167f8be0079c531659141344cd1fd0a4f28419497f9722a3daafe3b4186f6b6457e060405160405180910390a35050565b5f604051905090565b5f5ffd5b5f5ffd5b5f5ffd5b5f601f19601f8301169050919050565b7f4e487b71000000000000000000000000000000000000000000000000000000005f52604160045260245ffd5b6105838261053d565b810181811067ffffffffffffffff821117156105a2576105a161054d565b5b80604052505050565b5f6105b4610528565b90506105c0828261057a565b919050565b5f5ffd5b5f73ffffffffffffffffffffffffffffffffffffffff82169050919050565b5f6105f2826105c9565b9050919050565b610602816105e8565b811461060c575f5ffd5b50565b5f8151905061061d816105f9565b92915050565b5f8115159050919050565b61063781610623565b8114610641575f5ffd5b50565b5f815190506106528161062e565b92915050565b5f5ffd5b5f5ffd5b5f67ffffffffffffffff82111561067a5761067961054d565b5b6106838261053d565b9050602081019050919050565b8281835e5f83830152505050565b5f6106b06106ab84610660565b6105ab565b9050828152602081018484840111156106cc576106cb61065c565b5b6106d7848285610690565b509392505050565b5f82601f8301126106f3576106f2610658565b5b815161070384826020860161069e565b91505092915050565b5f60ff82169050919050565b6107218161070c565b811461072b575f5ffd5b50565b5f8151905061073c81610718565b92915050565b5f610120828403121561075857610757610539565b5b6107636101206105ab565b90505f6107728482850161060f565b5f83015250602061078584828501610644565b602083015250604082015167ffffffffffffffff8111156107a9576107a86105c5565b5b6107b5848285016106df565b604083015250606082015167ffffffffffffffff8111156107d9576107d86105c5565b5b6107e5848285016106df565b60608301525060806107f98482850161072e565b60808301525060a061080d8482850161060f565b60a08301525060c06108218482850161060f565b60c08301525060e06108358482850161060f565b60e08301525061010061084a8482850161060f565b6101008301525092915050565b5f6020828403121561086c5761086b610531565b5b5f82015167ffffffffffffffff81111561088957610888610535565b5b61089584828501610742565b91505092915050565b6108a7816105e8565b82525050565b5f6020820190506108c05f83018461089e565b92915050565b5f81519050919050565b7f4e487b71000000000000000000000000000000000000000000000000000000005f52602260045260245ffd5b5f600282049050600182168061091457607f821691505b602082108103610927576109266108d0565b5b50919050565b5f819050815f5260205f209050919050565b5f6020601f8301049050919050565b5f82821b905092915050565b5f600883026109897fffffffffffffffffffffffffffffffffffffffffffffffffffffffffffffffff8261094e565b610993868361094e565b95508019841693508086168417925050509392505050565b5f819050919050565b5f819050919050565b5f6109d76109d26109cd846109ab565b6109b4565b6109ab565b9050919050565b5f819050919050565b6109f0836109bd565b610a046109fc826109de565b84845461095a565b825550505050565b5f5f905090565b610a1b610a0c565b610a268184846109e7565b505050565b5b81811015610a4957610a3e5f82610a13565b600181019050610a2c565b5050565b601f821115610a8e57610a5f8161092d565b610a688461093f565b81016020851015610a77578190505b610a8b610a838561093f565b830182610a2b565b50505b505050565b5f82821c905092915050565b5f610aae5f1984600802610a93565b1980831691505092915050565b5f610ac68383610a9f565b9150826002028217905092915050565b610adf826108c6565b67ffffffffffffffff811115610af857610af761054d565b5b610b0282546108fd565b610b0d828285610a4d565b5f60209050601f831160018114610b3e575f8415610b2c578287015190505b610b368582610abb565b865550610b9d565b601f198416610b4c8661092d565b5f5b82811015610b7357848901518255600182019150602085019450602081019050610b4e565b86831015610b905784890151610b8c601f891682610a9f565b8355505b6001600288020188555050505b505050505050565b608051618286610bf55f395f818161142001528181614a7201528181614aa101528181614afd01528181614b2d01528181615a7801528181615aa301528181615af30152615b1f01526182865ff3fe608060405234801561000f575f5ffd5b506004361061024f575f3560e01c806379ba509711610144578063b7365f1f116100c1578063e5df8b8411610085578063e5df8b84146106be578063f2fde38b146106ee578063f4b2be441461070a578063f813562a14610726578063fc97a30314610742578063ff8ae773146107725761024f565b8063b7365f1f14610604578063c3a716eb14610634578063cbf1304d14610652578063ce6a500914610684578063e30c3978146106a05761024f565b806391584d491161010857806391584d491461055957806395d89b4114610578578063a5566e2514610596578063a865d5b2146105b2578063aa6ca808146105e65761024f565b806379ba5097146104d957806382f09ea2146104e3578063864eb164146104ff5780638da5cb5b1461051d5780638daed5281461053b5761024f565b80632dc9157d116101d25780635c8b5f44116101965780635c8b5f44146104475780636183276714610477578063620be59214610495578063715018a6146104b157806375794a3c146104bb5761024f565b80632dc9157d146103a3578063313ce567146103bf578063375b9aeb146103dd5780633ec045a6146103f95780634f64b2be146104175761024f565b806314dda7fd1161021957806314dda7fd146102fd5780631ff0769a14610331578063204ac7cc1461034d5780632b20e397146103695780632d947610146103875761024f565b8062b0938d14610253578062fdd58e14610271578063034a1c18146102a557806306fdde03146102c357806313a4f0db146102e1575b5f5ffd5b61025b61078e565b60405161026891906160e2565b60405180910390f35b61028b6004803603810190610286919061617a565b6107b3565b60405161029c9594939291906163fd565b60405180910390f35b6102ad61097e565b6040516102ba9190616471565b60405180910390f35b6102cb61099e565b6040516102d891906164fa565b60405180910390f35b6102fb60048036038101906102f6919061651a565b610a2a565b005b61031760048036038101906103129190616545565b610bb1565b6040516103289594939291906163fd565b60405180910390f35b61034b600480360381019061034691906165ad565b610c25565b005b6103676004803603810190610362919061660e565b610c85565b005b610371610eae565b60405161037e919061666d565b60405180910390f35b6103a1600480360381019061039c91906169e6565b610ed3565b005b6103bd60048036038101906103b89190616aa5565b6111be565b005b6103c761141e565b6040516103d49190616b33565b60405180910390f35b6103f760048036038101906103f29190616b4c565b611442565b005b610401611764565b60405161040e9190616bf4565b60405180910390f35b610431600480360381019061042c9190616c0d565b611789565b60405161043e9190616bf4565b60405180910390f35b610461600480360381019061045c919061651a565b6117c4565b60405161046e9190616471565b60405180910390f35b61047f6117e1565b60405161048c9190616471565b60405180910390f35b6104af60048036038101906104aa9190616c57565b6117f3565b005b6104b9611a4c565b005b6104c3611a5f565b6040516104d09190616cde565b60405180910390f35b6104e1611a65565b005b6104fd60048036038101906104f89190616da5565b611af3565b005b610507611da3565b6040516105149190616e16565b60405180910390f35b610525611dc8565b6040516105329190616bf4565b60405180910390f35b610543611def565b6040516105509190616e4f565b60405180910390f35b610561611e14565b60405161056f929190616e68565b60405180910390f35b610580611e25565b60405161058d91906164fa565b60405180910390f35b6105b060048036038101906105ab9190616f8c565b611eb1565b005b6105cc60048036038101906105c7919061651a565b6120d3565b6040516105dd9594939291906163fd565b60405180910390f35b6105ee612104565b6040516105fb9190617095565b60405180910390f35b61061e60048036038101906106199190616c0d565b61218f565b60405161062b9190616471565b60405180910390f35b61063c6121ac565b60405161064991906170d5565b60405180910390f35b61066c6004803603810190610667919061617a565b6121d1565b60405161067b939291906170ee565b60405180910390f35b61069e60048036038101906106999190617123565b612259565b005b6106a8612540565b6040516106b59190616bf4565b60405180910390f35b6106d860048036038101906106d39190616c0d565b612568565b6040516106e59190616bf4565b60405180910390f35b6107086004803603810190610703919061651a565b612598565b005b610724600480360381019061071f91906171a9565b612644565b005b610740600480360381019061073b91906171e9565b612865565b005b61075c6004803603810190610757919061651a565b612abe565b6040516107699190616cde565b60405180910390f35b61078c60048036038101906107879190617270565b612ad3565b005b600d5f9054906101000a900473ffffffffffffffffffffffffffffffffffffffff1681565b6107bb615ecb565b5f60606107c6615ef1565b5f5f60085f8973ffffffffffffffffffffffffffffffffffffffff1673ffffffffffffffffffffffffffffffffffffffff1681526020019081526020015f205f8881526020019081526020015f209050805f01816005015482600e01836007018460060154846040518060400160405290815f82016040518060400160405290815f82015481526020016001820154815250508152602001600282016040518060400160405290815f820154815260200160018201548152505081525050945082805480602002602001604051908101604052809291908181526020015f905b82821015610924578382905f5260205f2090600802016040518060400160405290815f8201600780602002604051908101604052809291908260078015610902576020028201915b8154815260200190600101908083116108ee575b50505050508152602001600782015481525050815260200190600101906108a6565b50505050925081600780602002604051908101604052809291908260078015610962576020028201915b81548152602001906001019080831161094e575b5050505050915095509550955095509550509295509295909350565b5f5f600a5f01541415801561099957506001600a6001015414155b905090565b601180546109ab906172fa565b80601f01602080910402602001604051908101604052809291908181526020018280546109d7906172fa565b8015610a225780601f106109f957610100808354040283529160200191610a22565b820191905f5260205f20905b815481529060010190602001808311610a0557829003601f168201915b505050505081565b610a32612c8f565b805f600c5f9054906101000a900473ffffffffffffffffffffffffffffffffffffffff1673ffffffffffffffffffffffffffffffffffffffff1663163f7522836040518263ffffffff1660e01b8152600401610a8e9190616bf4565b602060405180830381865afa158015610aa9573d5f5f3e3d5ffd5b505050506040513d601f19601f82011682018060405250810190610acd919061733e565b905080610b06576040517f2163950f00000000000000000000000000000000000000000000000000000000815260040160405180910390fd5b5f600c5f9054906101000a900473ffffffffffffffffffffffffffffffffffffffff1673ffffffffffffffffffffffffffffffffffffffff166311231fe0856040518263ffffffff1660e01b8152600401610b619190616bf4565b6040805180830381865afa158015610b7b573d5f5f3e3d5ffd5b505050506040513d601f19601f82011682018060405250810190610b9f9190617406565b9050610bab8482612d16565b50505050565b610bb9615ecb565b5f6060610bc4615ef1565b5f5f60045f8873ffffffffffffffffffffffffffffffffffffffff1673ffffffffffffffffffffffffffffffffffffffff1681526020019081526020015f20549050610c1088826107b3565b95509550955095509550509295509295909350565b610c2d612c8f565b8060075f8473ffffffffffffffffffffffffffffffffffffffff1673ffffffffffffffffffffffffffffffffffffffff1681526020019081526020015f205f6101000a81548160ff0219169083151502179055505050565b610c8d612c8f565b5f600a5f015414158015610ca757506001600a6001015414155b610ce6576040517f08c379a0000000000000000000000000000000000000000000000000000000008152600401610cdd9061747b565b60405180910390fd5b5f73ffffffffffffffffffffffffffffffffffffffff1660095f9054906101000a900473ffffffffffffffffffffffffffffffffffffffff1673ffffffffffffffffffffffffffffffffffffffff1603610d75576040517f08c379a0000000000000000000000000000000000000000000000000000000008152600401610d6c906174e3565b60405180910390fd5b60035f9054906101000a900460ff1615610dbb576040517f398d4d3200000000000000000000000000000000000000000000000000000000815260040160405180910390fd5b815f600c5f9054906101000a900473ffffffffffffffffffffffffffffffffffffffff1673ffffffffffffffffffffffffffffffffffffffff1663163f7522836040518263ffffffff1660e01b8152600401610e179190616bf4565b602060405180830381865afa158015610e32573d5f5f3e3d5ffd5b505050506040513d601f19601f82011682018060405250810190610e56919061733e565b905080610e8f576040517f2163950f00000000000000000000000000000000000000000000000000000000815260040160405180910390fd5b610ea8848460405180602001604052805f815250612e9a565b50505050565b600c5f9054906101000a900473ffffffffffffffffffffffffffffffffffffffff1681565b5f600a5f015414158015610eed57506001600a6001015414155b610f2c576040517f08c379a0000000000000000000000000000000000000000000000000000000008152600401610f239061747b565b60405180910390fd5b5f73ffffffffffffffffffffffffffffffffffffffff1660095f9054906101000a900473ffffffffffffffffffffffffffffffffffffffff1673ffffffffffffffffffffffffffffffffffffffff1603610fbb576040517f08c379a0000000000000000000000000000000000000000000000000000000008152600401610fb2906174e3565b60405180910390fd5b335f600c5f9054906101000a900473ffffffffffffffffffffffffffffffffffffffff1673ffffffffffffffffffffffffffffffffffffffff1663163f7522836040518263ffffffff1660e01b81526004016110179190616bf4565b602060405180830381865afa158015611032573d5f5f3e3d5ffd5b505050506040513d601f19601f82011682018060405250810190611056919061733e565b90508061108f576040517f2163950f00000000000000000000000000000000000000000000000000000000815260040160405180910390fd5b855f600c5f9054906101000a900473ffffffffffffffffffffffffffffffffffffffff1673ffffffffffffffffffffffffffffffffffffffff1663163f7522836040518263ffffffff1660e01b81526004016110eb9190616bf4565b602060405180830381865afa158015611106573d5f5f3e3d5ffd5b505050506040513d601f19601f8201168201806040525081019061112a919061733e565b905080611163576040517f2163950f00000000000000000000000000000000000000000000000000000000815260040160405180910390fd5b6111b48888888860078060200260405190810160405280929190826007602002808284375f81840152601f19601f82011690508083019250505050505060405180602001604052805f8152506133e7565b5050505050505050565b6111c6612c8f565b5f600a5f0154141580156111e057506001600a6001015414155b61121f576040517f08c379a00000000000000000000000000000000000000000000000000000000081526004016112169061747b565b60405180910390fd5b5f73ffffffffffffffffffffffffffffffffffffffff1660095f9054906101000a900473ffffffffffffffffffffffffffffffffffffffff1673ffffffffffffffffffffffffffffffffffffffff16036112ae576040517f08c379a00000000000000000000000000000000000000000000000000000000081526004016112a5906174e3565b60405180910390fd5b60035f9054906101000a900460ff16156112f4576040517f398d4d3200000000000000000000000000000000000000000000000000000000815260040160405180910390fd5b835f600c5f9054906101000a900473ffffffffffffffffffffffffffffffffffffffff1673ffffffffffffffffffffffffffffffffffffffff1663163f7522836040518263ffffffff1660e01b81526004016113509190616bf4565b602060405180830381865afa15801561136b573d5f5f3e3d5ffd5b505050506040513d601f19601f8201168201806040525081019061138f919061733e565b9050806113c8576040517f2163950f00000000000000000000000000000000000000000000000000000000815260040160405180910390fd5b611416868686868080601f0160208091040260200160405190810160405280939291908181526020018383808284375f81840152601f19601f82011690508083019250505050505050612e9a565b505050505050565b7f000000000000000000000000000000000000000000000000000000000000000081565b5f600a5f01541415801561145c57506001600a6001015414155b61149b576040517f08c379a00000000000000000000000000000000000000000000000000000000081526004016114929061747b565b60405180910390fd5b5f73ffffffffffffffffffffffffffffffffffffffff1660095f9054906101000a900473ffffffffffffffffffffffffffffffffffffffff1673ffffffffffffffffffffffffffffffffffffffff160361152a576040517f08c379a0000000000000000000000000000000000000000000000000000000008152600401611521906174e3565b60405180910390fd5b335f600c5f9054906101000a900473ffffffffffffffffffffffffffffffffffffffff1673ffffffffffffffffffffffffffffffffffffffff1663163f7522836040518263ffffffff1660e01b81526004016115869190616bf4565b602060405180830381865afa1580156115a1573d5f5f3e3d5ffd5b505050506040513d601f19601f820116820180604052508101906115c5919061733e565b9050806115fe576040517f2163950f00000000000000000000000000000000000000000000000000000000815260040160405180910390fd5b875f600c5f9054906101000a900473ffffffffffffffffffffffffffffffffffffffff1673ffffffffffffffffffffffffffffffffffffffff1663163f7522836040518263ffffffff1660e01b815260040161165a9190616bf4565b602060405180830381865afa158015611675573d5f5f3e3d5ffd5b505050506040513d601f19601f82011682018060405250810190611699919061733e565b9050806116d2576040517f2163950f00000000000000000000000000000000000000000000000000000000815260040160405180910390fd5b6117588a8a8a8a60078060200260405190810160405280929190826007602002808284375f81840152601f19601f8201169050808301925050505050508a8a8080601f0160208091040260200160405190810160405280939291908181526020018383808284375f81840152601f19601f820116905080830192505050505050506133e7565b50505050505050505050565b60095f9054906101000a900473ffffffffffffffffffffffffffffffffffffffff1681565b60068181548110611798575f80fd5b905f5260205f20015f915054906101000a900473ffffffffffffffffffffffffffffffffffffffff1681565b6007602052805f5260405f205f915054906101000a900460ff1681565b60035f9054906101000a900460ff1681565b5f600a5f01541415801561180d57506001600a6001015414155b61184c576040517f08c379a00000000000000000000000000000000000000000000000000000000081526004016118439061747b565b60405180910390fd5b5f73ffffffffffffffffffffffffffffffffffffffff1660095f9054906101000a900473ffffffffffffffffffffffffffffffffffffffff1673ffffffffffffffffffffffffffffffffffffffff16036118db576040517f08c379a00000000000000000000000000000000000000000000000000000000081526004016118d2906174e3565b60405180910390fd5b60035f9054906101000a900460ff1615611921576040517f398d4d3200000000000000000000000000000000000000000000000000000000815260040160405180910390fd5b845f600c5f9054906101000a900473ffffffffffffffffffffffffffffffffffffffff1673ffffffffffffffffffffffffffffffffffffffff1663163f7522836040518263ffffffff1660e01b815260040161197d9190616bf4565b602060405180830381865afa158015611998573d5f5f3e3d5ffd5b505050506040513d601f19601f820116820180604052508101906119bc919061733e565b9050806119f5576040517f2163950f00000000000000000000000000000000000000000000000000000000815260040160405180910390fd5b611a43868686868080601f0160208091040260200160405190810160405280939291908181526020018383808284375f81840152601f19601f82011690508083019250505050505050613740565b50505050505050565b611a54612c8f565b611a5d5f613b8a565b565b60025481565b5f611a6e613bba565b90508073ffffffffffffffffffffffffffffffffffffffff16611a8f612540565b73ffffffffffffffffffffffffffffffffffffffff1614611ae757806040517f118cdaa7000000000000000000000000000000000000000000000000000000008152600401611ade9190616bf4565b60405180910390fd5b611af081613b8a565b50565b5f600a5f015414158015611b0d57506001600a6001015414155b611b4c576040517f08c379a0000000000000000000000000000000000000000000000000000000008152600401611b439061747b565b60405180910390fd5b5f73ffffffffffffffffffffffffffffffffffffffff1660095f9054906101000a900473ffffffffffffffffffffffffffffffffffffffff1673ffffffffffffffffffffffffffffffffffffffff1603611bdb576040517f08c379a0000000000000000000000000000000000000000000000000000000008152600401611bd2906174e3565b60405180910390fd5b60035f9054906101000a900460ff16611c20576040517f398d4d3200000000000000000000000000000000000000000000000000000000815260040160405180910390fd5b8160075f8273ffffffffffffffffffffffffffffffffffffffff1673ffffffffffffffffffffffffffffffffffffffff1681526020019081526020015f205f9054906101000a900460ff1615611cad57806040517f75519c51000000000000000000000000000000000000000000000000000000008152600401611ca49190616bf4565b60405180910390fd5b335f600c5f9054906101000a900473ffffffffffffffffffffffffffffffffffffffff1673ffffffffffffffffffffffffffffffffffffffff1663163f7522836040518263ffffffff1660e01b8152600401611d099190616bf4565b602060405180830381865afa158015611d24573d5f5f3e3d5ffd5b505050506040513d601f19601f82011682018060405250810190611d48919061733e565b905080611d81576040517f2163950f00000000000000000000000000000000000000000000000000000000815260040160405180910390fd5b611d9b86868660405180602001604052805f815250613bc1565b505050505050565b600e5f9054906101000a900473ffffffffffffffffffffffffffffffffffffffff1681565b5f5f5f9054906101000a900473ffffffffffffffffffffffffffffffffffffffff16905090565b600f5f9054906101000a900473ffffffffffffffffffffffffffffffffffffffff1681565b600a805f0154908060010154905082565b60128054611e32906172fa565b80601f0160208091040260200160405190810160405280929190818152602001828054611e5e906172fa565b8015611ea95780601f10611e8057610100808354040283529160200191611ea9565b820191905f5260205f20905b815481529060010190602001808311611e8c57829003601f168201915b505050505081565b5f600a5f015414158015611ecb57506001600a6001015414155b611f0a576040517f08c379a0000000000000000000000000000000000000000000000000000000008152600401611f019061747b565b60405180910390fd5b5f73ffffffffffffffffffffffffffffffffffffffff1660095f9054906101000a900473ffffffffffffffffffffffffffffffffffffffff1673ffffffffffffffffffffffffffffffffffffffff1603611f99576040517f08c379a0000000000000000000000000000000000000000000000000000000008152600401611f90906174e3565b60405180910390fd5b60035f9054906101000a900460ff16611fde576040517f398d4d3200000000000000000000000000000000000000000000000000000000815260040160405180910390fd5b335f600c5f9054906101000a900473ffffffffffffffffffffffffffffffffffffffff1673ffffffffffffffffffffffffffffffffffffffff1663163f7522836040518263ffffffff1660e01b815260040161203a9190616bf4565b602060405180830381865afa158015612055573d5f5f3e3d5ffd5b505050506040513d601f19601f82011682018060405250810190612079919061733e565b9050806120b2576040517f2163950f00000000000000000000000000000000000000000000000000000000815260040160405180910390fd5b6120cc85858560405180602001604052805f815250613ddd565b5050505050565b6120db615ecb565b5f60606120e6615ef1565b5f6120f1865f6107b3565b9450945094509450945091939590929450565b6060600680548060200260200160405190810160405280929190818152602001828054801561218557602002820191905f5260205f20905b815f9054906101000a900473ffffffffffffffffffffffffffffffffffffffff1673ffffffffffffffffffffffffffffffffffffffff168152602001906001019080831161213c575b5050505050905090565b6013602052805f5260405f205f915054906101000a900460ff1681565b60105f9054906101000a900473ffffffffffffffffffffffffffffffffffffffff1681565b6008602052815f5260405f20602052805f5260405f205f9150915050805f016040518060400160405290815f82016040518060400160405290815f82015481526020016001820154815250508152602001600282016040518060400160405290815f820154815260200160018201548152505081525050908060050154908060060154905083565b5f600a5f01541415801561227357506001600a6001015414155b6122b2576040517f08c379a00000000000000000000000000000000000000000000000000000000081526004016122a99061747b565b60405180910390fd5b5f73ffffffffffffffffffffffffffffffffffffffff1660095f9054906101000a900473ffffffffffffffffffffffffffffffffffffffff1673ffffffffffffffffffffffffffffffffffffffff1603612341576040517f08c379a0000000000000000000000000000000000000000000000000000000008152600401612338906174e3565b60405180910390fd5b60035f9054906101000a900460ff16612386576040517f398d4d3200000000000000000000000000000000000000000000000000000000815260040160405180910390fd5b8360075f8273ffffffffffffffffffffffffffffffffffffffff1673ffffffffffffffffffffffffffffffffffffffff1681526020019081526020015f205f9054906101000a900460ff161561241357806040517f75519c5100000000000000000000000000000000000000000000000000000000815260040161240a9190616bf4565b60405180910390fd5b335f600c5f9054906101000a900473ffffffffffffffffffffffffffffffffffffffff1673ffffffffffffffffffffffffffffffffffffffff1663163f7522836040518263ffffffff1660e01b815260040161246f9190616bf4565b602060405180830381865afa15801561248a573d5f5f3e3d5ffd5b505050506040513d601f19601f820116820180604052508101906124ae919061733e565b9050806124e7576040517f2163950f00000000000000000000000000000000000000000000000000000000815260040160405180910390fd5b61253688888888888080601f0160208091040260200160405190810160405280939291908181526020018383808284375f81840152601f19601f82011690508083019250505050505050613bc1565b5050505050505050565b5f60015f9054906101000a900473ffffffffffffffffffffffffffffffffffffffff16905090565b6005602052805f5260405f205f915054906101000a900473ffffffffffffffffffffffffffffffffffffffff1681565b6125a0612c8f565b8060015f6101000a81548173ffffffffffffffffffffffffffffffffffffffff021916908373ffffffffffffffffffffffffffffffffffffffff1602179055508073ffffffffffffffffffffffffffffffffffffffff166125ff611dc8565b73ffffffffffffffffffffffffffffffffffffffff167f38d16b8cac22d99fc7c124b9cd0de2d3fa1faef420bfe791d8c362d765e2270060405160405180910390a350565b5f600a5f01541415801561265e57506001600a6001015414155b61269d576040517f08c379a00000000000000000000000000000000000000000000000000000000081526004016126949061747b565b60405180910390fd5b5f73ffffffffffffffffffffffffffffffffffffffff1660095f9054906101000a900473ffffffffffffffffffffffffffffffffffffffff1673ffffffffffffffffffffffffffffffffffffffff160361272c576040517f08c379a0000000000000000000000000000000000000000000000000000000008152600401612723906174e3565b60405180910390fd5b60035f9054906101000a900460ff1615612772576040517f398d4d3200000000000000000000000000000000000000000000000000000000815260040160405180910390fd5b335f600c5f9054906101000a900473ffffffffffffffffffffffffffffffffffffffff1673ffffffffffffffffffffffffffffffffffffffff1663163f7522836040518263ffffffff1660e01b81526004016127ce9190616bf4565b602060405180830381865afa1580156127e9573d5f5f3e3d5ffd5b505050506040513d601f19601f8201168201806040525081019061280d919061733e565b905080612846576040517f2163950f00000000000000000000000000000000000000000000000000000000815260040160405180910390fd5b61285f848460405180602001604052805f815250613740565b50505050565b5f600a5f01541415801561287f57506001600a6001015414155b6128be576040517f08c379a00000000000000000000000000000000000000000000000000000000081526004016128b59061747b565b60405180910390fd5b5f73ffffffffffffffffffffffffffffffffffffffff1660095f9054906101000a900473ffffffffffffffffffffffffffffffffffffffff1673ffffffffffffffffffffffffffffffffffffffff160361294d576040517f08c379a0000000000000000000000000000000000000000000000000000000008152600401612944906174e3565b60405180910390fd5b60035f9054906101000a900460ff16612992576040517f398d4d3200000000000000000000000000000000000000000000000000000000815260040160405180910390fd5b335f600c5f9054906101000a900473ffffffffffffffffffffffffffffffffffffffff1673ffffffffffffffffffffffffffffffffffffffff1663163f7522836040518263ffffffff1660e01b81526004016129ee9190616bf4565b602060405180830381865afa158015612a09573d5f5f3e3d5ffd5b505050506040513d601f19601f82011682018060405250810190612a2d919061733e565b905080612a66576040517f2163950f00000000000000000000000000000000000000000000000000000000815260040160405180910390fd5b612ab587878787878080601f0160208091040260200160405190810160405280939291908181526020018383808284375f81840152601f19601f82011690508083019250505050505050613ddd565b50505050505050565b6004602052805f5260405f205f915090505481565b335f600c5f9054906101000a900473ffffffffffffffffffffffffffffffffffffffff1673ffffffffffffffffffffffffffffffffffffffff1663163f7522836040518263ffffffff1660e01b8152600401612b2f9190616bf4565b602060405180830381865afa158015612b4a573d5f5f3e3d5ffd5b505050506040513d601f19601f82011682018060405250810190612b6e919061733e565b905080612ba7576040517f2163950f00000000000000000000000000000000000000000000000000000000815260040160405180910390fd5b845f600c5f9054906101000a900473ffffffffffffffffffffffffffffffffffffffff1673ffffffffffffffffffffffffffffffffffffffff1663163f7522836040518263ffffffff1660e01b8152600401612c039190616bf4565b602060405180830381865afa158015612c1e573d5f5f3e3d5ffd5b505050506040513d601f19601f82011682018060405250810190612c42919061733e565b905080612c7b576040517f2163950f00000000000000000000000000000000000000000000000000000000815260040160405180910390fd5b612c868787876140d7565b50505050505050565b612c97613bba565b73ffffffffffffffffffffffffffffffffffffffff16612cb5611dc8565b73ffffffffffffffffffffffffffffffffffffffff1614612d1457612cd8613bba565b6040517f118cdaa7000000000000000000000000000000000000000000000000000000008152600401612d0b9190616bf4565b60405180910390fd5b565b5f60095f9054906101000a900473ffffffffffffffffffffffffffffffffffffffff1690505f73ffffffffffffffffffffffffffffffffffffffff168373ffffffffffffffffffffffffffffffffffffffff1603612da0576040517fd92e233d00000000000000000000000000000000000000000000000000000000815260040160405180910390fd5b8260095f6101000a81548173ffffffffffffffffffffffffffffffffffffffff021916908373ffffffffffffffffffffffffffffffffffffffff1602179055506040518060400160405280835f60028110612dfe57612dfd617501565b5b6020020151815260200183600160028110612e1c57612e1b617501565b5b6020020151815250600a5f820151815f0155602082015181600101559050508273ffffffffffffffffffffffffffffffffffffffff168173ffffffffffffffffffffffffffffffffffffffff167fdbeeb2970745c839058876b084c0d772566ff6b5aaa47938c394cd171a38c24c60405160405180910390a3505050565b5f826101000160188060200260405190810160405280929190826018602002808284375f81840152601f19601f8201169050808301925050505050509050805f60188110612eeb57612eea617501565b5b60200201514614612f28576040517f7a47c9a200000000000000000000000000000000000000000000000000000000815260040160405180910390fd5b612f7684604051806040016040528084600260188110612f4b57612f4a617501565b5b6020020151815260200184600360188110612f6957612f68617501565b5b60200201518152506141ce565b612fc3604051806040016040528083600f60188110612f9857612f97617501565b5b6020020151815260200183601060188110612fb657612fb5617501565b5b6020020151815250614312565b5f81600160188110612fd857612fd7617501565b5b602002015190507f30644e72e131a029b85045b68181585d2833e84879b9709143e1f593f00000018110613038576040517f5d904cb200000000000000000000000000000000000000000000000000000000815260040160405180910390fd5b60135f8281526020019081526020015f205f9054906101000a900460ff161561308d576040517f09bde33900000000000000000000000000000000000000000000000000000000815260040160405180910390fd5b5f600d5f9054906101000a900473ffffffffffffffffffffffffffffffffffffffff1673ffffffffffffffffffffffffffffffffffffffff16634d01c5a0865f015f01875f01604001885f0160c00189610100016040518563ffffffff1660e01b81526004016131009493929190617610565b602060405180830381865afa15801561311b573d5f5f3e3d5ffd5b505050506040513d601f19601f8201168201806040525081019061313f919061733e565b905080613178576040517f09bde33900000000000000000000000000000000000000000000000000000000815260040160405180910390fd5b5f60405180604001604052806040518060400160405280876004601881106131a3576131a2617501565b5b60200201518152602001876005601881106131c1576131c0617501565b5b602002015181525081526020016040518060400160405280876006601881106131ed576131ec617501565b5b602002015181526020018760076018811061320b5761320a617501565b5b60200201518152508152509050613220615ef1565b5f5f90505b600781101561327b578581600861323c9190617682565b6018811061324d5761324c617501565b5b602002015182826007811061326557613264617501565b5b6020020181815250508080600101915050613225565b50613288885f8484614393565b5050600160135f8481526020019081526020015f205f6101000a81548160ff0219169083151502179055506132bb615ef1565b5f5f90505b600781101561331657848160116132d79190617682565b601881106132e8576132e7617501565b5b6020020151828260078110613300576132ff617501565b5b60200201818152505080806001019150506132c0565b5060095f9054906101000a900473ffffffffffffffffffffffffffffffffffffffff1673ffffffffffffffffffffffffffffffffffffffff168773ffffffffffffffffffffffffffffffffffffffff167f0d78494055b7f1585d1e50d778838efd294162edeaf41569996739183722254b8360405161339591906176b5565b60405180910390a36133de33886040518060400160405280600c81526020017f505249564154455f4d494e5400000000000000000000000000000000000000008152508861458e565b50505050505050565b5f8360200151905061343c336040518060400160405280845f6020811061341157613410617501565b5b602002015181526020018460016020811061342f5761342e617501565b5b60200201518152506141ce565b61348a86604051806040016040528084600a6020811061345f5761345e617501565b5b6020020151815260200184600b6020811061347d5761347c617501565b5b60200201518152506141ce565b6134d76040518060400160405280836017602081106134ac576134ab617501565b5b60200201518152602001836018602081106134ca576134c9617501565b5b6020020151815250614312565b5f600f5f9054906101000a900473ffffffffffffffffffffffffffffffffffffffff1673ffffffffffffffffffffffffffffffffffffffff16633cc08b24865f01515f0151875f015160200151885f01516040015189602001516040518563ffffffff1660e01b815260040161355094939291906178b8565b602060405180830381865afa15801561356b573d5f5f3e3d5ffd5b505050506040513d601f19601f8201168201806040525081019061358f919061733e565b9050806135c8576040517f09bde33900000000000000000000000000000000000000000000000000000000815260040160405180910390fd5b5f6135d283614613565b90506135f3338989845f0151856020015186604001518b886060015161486e565b6135fb615ef1565b5f5f90505b600781101561365657848160196136179190617682565b6020811061362857613627617501565b5b60200201518282600781106136405761363f617501565b5b6020020181815250508080600101915050613600565b5060095f9054906101000a900473ffffffffffffffffffffffffffffffffffffffff1673ffffffffffffffffffffffffffffffffffffffff168973ffffffffffffffffffffffffffffffffffffffff163373ffffffffffffffffffffffffffffffffffffffff167f1fe42c57a12ee7d4848276c111f82c24fe213a94a603b21da88785cd882c9ccf846040516136ec91906176b5565b60405180910390a45061373633896040518060400160405280601081526020017f505249564154455f5452414e53464552000000000000000000000000000000008152508761458e565b5050505050505050565b36836101000190505f339050613799816040518060400160405280855f6013811061376e5761376d617501565b5b602002013581526020018560016013811061378c5761378b617501565b5b60200201358152506141ce565b6137e6604051806040016040528084600a601381106137bb576137ba617501565b5b6020020135815260200184600b601381106137d9576137d8617501565b5b6020020135815250614312565b5f60105f9054906101000a900473ffffffffffffffffffffffffffffffffffffffff1673ffffffffffffffffffffffffffffffffffffffff1663f3f22e72875f015f01885f01604001895f0160c0018a610100016040518563ffffffff1660e01b8152600401613859949392919061790e565b602060405180830381865afa158015613874573d5f5f3e3d5ffd5b505050506040513d601f19601f82011682018060405250810190613898919061733e565b9050806138d1576040517f09bde33900000000000000000000000000000000000000000000000000000000815260040160405180910390fd5b5f60405180604001604052806040518060400160405280876002601381106138fc576138fb617501565b5b602002013581526020018760036013811061391a57613919617501565b5b6020020135815250815260200160405180604001604052808760046013811061394657613945617501565b5b602002013581526020018760056013811061396457613963617501565b5b602002013581525081525090505f604051806040016040528060405180604001604052808860066013811061399c5761399b617501565b5b60200201358152602001886007601381106139ba576139b9617501565b5b602002013581525081526020016040518060400160405280886008601381106139e6576139e5617501565b5b6020020135815260200188600960138110613a0457613a03617501565b5b60200201358152508152509050613a54845f84848b60078060200260405190810160405280929190826007602002808284375f81840152601f19601f820116905080830192505050505050614891565b613a5c615ef1565b5f5f90505b6007811015613ab7578681600c613a789190617682565b60138110613a8957613a88617501565b5b6020020135828260078110613aa157613aa0617501565b5b6020020181815250508080600101915050613a61565b5060095f9054906101000a900473ffffffffffffffffffffffffffffffffffffffff1673ffffffffffffffffffffffffffffffffffffffff168573ffffffffffffffffffffffffffffffffffffffff167f047fabd75c92ead101dbbb10dd37a09c205f633da9db8ce7078c2f33e84710e583604051613b3691906176b5565b60405180910390a3613b7f33866040518060400160405280600c81526020017f505249564154455f4255524e00000000000000000000000000000000000000008152508a61458e565b505050505050505050565b60015f6101000a81549073ffffffffffffffffffffffffffffffffffffffff0219169055613bb7816148b4565b50565b5f33905090565b5f8390505f5f5f3390505f8473ffffffffffffffffffffffffffffffffffffffff166370a08231306040518263ffffffff1660e01b8152600401613c059190616bf4565b602060405180830381865afa158015613c20573d5f5f3e3d5ffd5b505050506040513d601f19601f82011682018060405250810190613c449190617953565b9050613c528583308c614975565b5f8573ffffffffffffffffffffffffffffffffffffffff166370a08231306040518263ffffffff1660e01b8152600401613c8c9190616bf4565b602060405180830381865afa158015613ca7573d5f5f3e3d5ffd5b505050506040513d601f19601f82011682018060405250810190613ccb9190617953565b90505f8282613cda919061797e565b90508a8114613d15576040517f90b8ec1800000000000000000000000000000000000000000000000000000000815260040160405180910390fd5b613d21848c8c8c6149f7565b80965081975050505f861115613d3d57613d3c878588614fed565b5b8373ffffffffffffffffffffffffffffffffffffffff167f36af321ec8d3c75236829c5317affd40ddb308863a1236d2d277a4025cccee1e8c8888604051613d87939291906179b1565b60405180910390a2613dd033856040518060400160405280600781526020017f4445504f534954000000000000000000000000000000000000000000000000008152508b61458e565b5050505050505050505050565b5f3390505f846020015190505f815f60108110613dfd57613dfc617501565b5b60200201519050613e5283604051806040016040528085600160108110613e2757613e26617501565b5b6020020151815260200185600260108110613e4557613e44617501565b5b60200201518152506141ce565b613e9f604051806040016040528084600760108110613e7457613e73617501565b5b6020020151815260200184600860108110613e9257613e91617501565b5b6020020151815250614312565b5f600e5f9054906101000a900473ffffffffffffffffffffffffffffffffffffffff1673ffffffffffffffffffffffffffffffffffffffff1663c82febf5885f01515f0151895f0151602001518a5f0151604001518b602001516040518563ffffffff1660e01b8152600401613f189493929190617a65565b602060405180830381865afa158015613f33573d5f5f3e3d5ffd5b505050506040513d601f19601f82011682018060405250810190613f57919061733e565b905080613f90576040517f09bde33900000000000000000000000000000000000000000000000000000000815260040160405180910390fd5b613f9d84838a868a61506c565b613fa5615ef1565b5f5f90505b60078110156140005784816009613fc19190617682565b60108110613fd257613fd1617501565b5b6020020151828260078110613fea57613fe9617501565b5b6020020181815250508080600101915050613faa565b5060095f9054906101000a900473ffffffffffffffffffffffffffffffffffffffff1673ffffffffffffffffffffffffffffffffffffffff168573ffffffffffffffffffffffffffffffffffffffff167fae09dce9b789cf9600e6765940d134d8247429396faf72db0f7b33ed5ca8294c858c8560405161408393929190617aaa565b60405180910390a3506140cd33856040518060400160405280600881526020017f57495448445241570000000000000000000000000000000000000000000000008152508861458e565b5050505050505050565b5f3390505f61416082866040518060400160405280600781526020017f4d4553534147450000000000000000000000000000000000000000000000000081525087878080601f0160208091040260200160405190810160405280939291908181526020018383808284375f81840152601f19601f82011690508083019250505050505050615286565b90508473ffffffffffffffffffffffffffffffffffffffff168273ffffffffffffffffffffffffffffffffffffffff167f1f6b4a0b0bf257641ef071e408e7bebfd8daf23291e1cac7f338349de9e0aa99836040516141bf9190617be1565b60405180910390a35050505050565b5f600c5f9054906101000a900473ffffffffffffffffffffffffffffffffffffffff1673ffffffffffffffffffffffffffffffffffffffff166311231fe0846040518263ffffffff1660e01b81526004016142299190616bf4565b6040805180830381865afa158015614243573d5f5f3e3d5ffd5b505050506040513d601f19601f820116820180604052508101906142679190617406565b9050815f6002811061427c5761427b617501565b5b6020020151815f6002811061429457614293617501565b5b60200201511415806142d65750816001600281106142b5576142b4617501565b5b6020020151816001600281106142ce576142cd617501565b5b602002015114155b1561430d576040517f09bde33900000000000000000000000000000000000000000000000000000000815260040160405180910390fd5b505050565b805f6002811061432557614324617501565b5b6020020151600a5f015414158061435957508060016002811061434b5761434a617501565b5b6020020151600a6001015414155b15614390576040517f09bde33900000000000000000000000000000000000000000000000000000000815260040160405180910390fd5b50565b5f60085f8673ffffffffffffffffffffffffffffffffffffffff1673ffffffffffffffffffffffffffffffffffffffff1681526020019081526020015f205f8581526020019081526020015f2090505f815f015f015f01541480156143ff57505f815f015f0160010154145b156144485782815f015f820151815f015f820151815f01556020820151816001015550506020820151816002015f820151815f015560208201518160010155505090505061457c565b73__$23cf76067881e46c90cd7e900ada7c884e$__637bb10bcb825f015f01855f01516040518363ffffffff1660e01b8152600401614488929190617caf565b6040805180830381865af41580156144a2573d5f5f3e3d5ffd5b505050506040513d601f19601f820116820180604052508101906144c69190617d23565b815f015f015f820151815f01556020820151816001015590505073__$23cf76067881e46c90cd7e900ada7c884e$__637bb10bcb825f0160020185602001516040518363ffffffff1660e01b8152600401614522929190617caf565b6040805180830381865af415801561453c573d5f5f3e3d5ffd5b505050506040513d601f19601f820116820180604052508101906145609190617d23565b815f016002015f820151815f0155602082015181600101559050505b614587858584615317565b5050505050565b5f8151111561460d575f6145a485858585615286565b90508373ffffffffffffffffffffffffffffffffffffffff168573ffffffffffffffffffffffffffffffffffffffff167f1f6b4a0b0bf257641ef071e408e7bebfd8daf23291e1cac7f338349de9e0aa99836040516146039190617be1565b60405180910390a3505b50505050565b61461b615f13565b604051806040016040528060405180604001604052808560026020811061464557614644617501565b5b602002015181526020018560036020811061466357614662617501565b5b6020020151815250815260200160405180604001604052808560046020811061468f5761468e617501565b5b60200201518152602001856005602081106146ad576146ac617501565b5b6020020151815250815250815f018190525060405180604001604052806040518060400160405280856006602081106146e9576146e8617501565b5b602002015181526020018560076020811061470757614706617501565b5b6020020151815250815260200160405180604001604052808560086020811061473357614732617501565b5b602002015181526020018560096020811061475157614750617501565b5b602002015181525081525081602001819052506040518060400160405280604051806040016040528085600c6020811061478e5761478d617501565b5b6020020151815260200185600d602081106147ac576147ab617501565b5b60200201518152508152602001604051806040016040528085600e602081106147d8576147d7617501565b5b6020020151815260200185600f602081106147f6576147f5617501565b5b602002015181525081525081604001819052505f5f90505b600781101561486857828160106148259190617682565b6020811061483657614835617501565b5b60200201518260600151826007811061485257614851617501565b5b602002018181525050808060010191505061480e565b50919050565b61487b8887878786614891565b61488787878584614393565b5050505050505050565b5f61489d8686866154e0565b90506148ac8686858585615542565b505050505050565b5f5f5f9054906101000a900473ffffffffffffffffffffffffffffffffffffffff169050815f5f6101000a81548173ffffffffffffffffffffffffffffffffffffffff021916908373ffffffffffffffffffffffffffffffffffffffff1602179055508173ffffffffffffffffffffffffffffffffffffffff168173ffffffffffffffffffffffffffffffffffffffff167f8be0079c531659141344cd1fd0a4f28419497f9722a3daafe3b4186f6b6457e060405160405180910390a35050565b6149f1848573ffffffffffffffffffffffffffffffffffffffff166323b872dd8686866040516024016149aa93929190617d4e565b604051602081830303815290604052915060e01b6020820180517bffffffffffffffffffffffffffffffffffffffffffffffffffffffff83818316178352505050506156eb565b50505050565b5f5f5f8473ffffffffffffffffffffffffffffffffffffffff1663313ce5676040518163ffffffff1660e01b8152600401602060405180830381865afa158015614a43573d5f5f3e3d5ffd5b505050506040513d601f19601f82011682018060405250810190614a679190617dad565b90505f8690505f93507f000000000000000000000000000000000000000000000000000000000000000060ff168260ff161115614afb575f7f000000000000000000000000000000000000000000000000000000000000000083614acb9190617dd8565b600a614ad79190617f3b565b90508088614ae59190617fb2565b91508088614af39190617fe2565b945050614b78565b7f000000000000000000000000000000000000000000000000000000000000000060ff168260ff161015614b77575f827f0000000000000000000000000000000000000000000000000000000000000000614b569190617dd8565b600a614b629190617f3b565b90508088614b709190618012565b91505f9450505b5b5f60045f8873ffffffffffffffffffffffffffffffffffffffff1673ffffffffffffffffffffffffffffffffffffffff1681526020019081526020015f205403614bc657614bc586615786565b5b60045f8773ffffffffffffffffffffffffffffffffffffffff1673ffffffffffffffffffffffffffffffffffffffff1681526020019081526020015f205492505f8103614c14575050614fe4565b5f600c5f9054906101000a900473ffffffffffffffffffffffffffffffffffffffff1673ffffffffffffffffffffffffffffffffffffffff166311231fe08a6040518263ffffffff1660e01b8152600401614c6f9190616bf4565b6040805180830381865afa158015614c89573d5f5f3e3d5ffd5b505050506040513d601f19601f82011682018060405250810190614cad9190617406565b90505f73__$23cf76067881e46c90cd7e900ada7c884e$__6304068d3a6040518060400160405280855f60028110614ce857614ce7617501565b5b6020020151815260200185600160028110614d0657614d05617501565b5b6020020151815250856040518363ffffffff1660e01b8152600401614d2c929190618062565b608060405180830381865af4158015614d47573d5f5f3e3d5ffd5b505050506040513d601f19601f82011682018060405250810190614d6b91906180d6565b90505f60085f8c73ffffffffffffffffffffffffffffffffffffffff1673ffffffffffffffffffffffffffffffffffffffff1681526020019081526020015f205f8781526020019081526020015f2090505f815f015f015f0154148015614dd957505f815f015f0160010154145b15614e225781815f015f820151815f015f820151815f01556020820151816001015550506020820151816002015f820151815f0155602082015181600101555050905050614f56565b73__$23cf76067881e46c90cd7e900ada7c884e$__637bb10bcb825f015f01845f01516040518363ffffffff1660e01b8152600401614e62929190617caf565b6040805180830381865af4158015614e7c573d5f5f3e3d5ffd5b505050506040513d601f19601f82011682018060405250810190614ea09190617d23565b815f015f015f820151815f01556020820151816001015590505073__$23cf76067881e46c90cd7e900ada7c884e$__637bb10bcb825f0160020184602001516040518363ffffffff1660e01b8152600401614efc929190617caf565b6040805180830381865af4158015614f16573d5f5f3e3d5ffd5b505050506040513d601f19601f82011682018060405250810190614f3a9190617d23565b815f016002015f820151815f0155602082015181600101559050505b80600e0160405180604001604052808a81526020018360060154815250908060018154018082558091505060019003905f5260205f2090600802015f909190919091505f820151815f01906007614fae929190615f53565b50602082015181600701555050806006015f815480929190614fcf90618101565b9190505550614fde8b87615898565b50505050505b94509492505050565b615067838473ffffffffffffffffffffffffffffffffffffffff1663a9059cbb8585604051602401615020929190618148565b604051602081830303815290604052915060e01b6020820180517bffffffffffffffffffffffffffffffffffffffffffffffffffffffff83818316178352505050506156eb565b505050565b5f60055f8581526020019081526020015f205f9054906101000a900473ffffffffffffffffffffffffffffffffffffffff1690505f73ffffffffffffffffffffffffffffffffffffffff168173ffffffffffffffffffffffffffffffffffffffff1603615105576040517f8698bf3700000000000000000000000000000000000000000000000000000000815260040160405180910390fd5b5f60405180604001604052806040518060400160405280876003601081106151305761512f617501565b5b602002015181526020018760046010811061514e5761514d617501565b5b6020020151815250815260200160405180604001604052808760056010811061517a57615179617501565b5b602002015181526020018760066010811061519857615197617501565b5b602002015181525081525090505f73__$23cf76067881e46c90cd7e900ada7c884e$__6304068d3a6040518060400160405280886001601081106151df576151de617501565b5b60200201518152602001886002601081106151fd576151fc617501565b5b6020020151815250896040518363ffffffff1660e01b8152600401615223929190618062565b608060405180830381865af415801561523e573d5f5f3e3d5ffd5b505050506040513d601f19601f8201168201806040525081019061526291906180d6565b90506152718887848488614891565b505061527e8686836159fb565b505050505050565b61528e615f93565b84815f019073ffffffffffffffffffffffffffffffffffffffff16908173ffffffffffffffffffffffffffffffffffffffff168152505083816020019073ffffffffffffffffffffffffffffffffffffffff16908173ffffffffffffffffffffffffffffffffffffffff1681525050828160400181905250818160600181905250949350505050565b5f60085f8573ffffffffffffffffffffffffffffffffffffffff1673ffffffffffffffffffffffffffffffffffffffff1681526020019081526020015f205f8481526020019081526020015f2090505f816005015490505f6153d2835f016040518060400160405290815f82016040518060400160405290815f82015481526020016001820154815250508152602001600282016040518060400160405290815f820154815260200160018201548152505081525050615b81565b905080826040516020016153e7929190616e68565b604051602081830303815290604052805190602001205f1c905060405180604001604052808460060154815260200160011515815250836004015f8381526020019081526020015f205f820151815f01556020820151816001015f6101000a81548160ff02191690831515021790555090505082600e0160405180604001604052808681526020018560060154815250908060018154018082558091505060019003905f5260205f2090600802015f909190919091505f820151815f019060076154b2929190615f53565b50602082015181600701555050826006015f8154809291906154d390618101565b9190505550505050505050565b5f5f6154eb83615b81565b90505f5f6154fa878785615bd4565b9150915081615535576040517f09bde33900000000000000000000000000000000000000000000000000000000815260040160405180910390fd5b8093505050509392505050565b5f60085f8773ffffffffffffffffffffffffffffffffffffffff1673ffffffffffffffffffffffffffffffffffffffff1681526020019081526020015f205f8681526020019081526020015f20905073__$23cf76067881e46c90cd7e900ada7c884e$__634fa78ada825f015f01865f01516040518363ffffffff1660e01b81526004016155d1929190617caf565b6040805180830381865af41580156155eb573d5f5f3e3d5ffd5b505050506040513d601f19601f8201168201806040525081019061560f9190617d23565b815f015f015f820151815f01556020820151816001015590505073__$23cf76067881e46c90cd7e900ada7c884e$__634fa78ada825f0160020186602001516040518363ffffffff1660e01b815260040161566b929190617caf565b6040805180830381865af4158015615685573d5f5f3e3d5ffd5b505050506040513d601f19601f820116820180604052508101906156a99190617d23565b815f016002015f820151815f0155602082015181600101559050506156cf868684615d34565b82816007019060076156e2929190615f53565b50505050505050565b5f5f60205f8451602086015f885af18061570a576040513d5f823e3d81fd5b3d92505f519150505f821461572357600181141561573e565b5f8473ffffffffffffffffffffffffffffffffffffffff163b145b1561578057836040517f5274afe70000000000000000000000000000000000000000000000000000000081526004016157779190616bf4565b60405180910390fd5b50505050565b5f60025490508060045f8473ffffffffffffffffffffffffffffffffffffffff1673ffffffffffffffffffffffffffffffffffffffff1681526020019081526020015f20819055508160055f8381526020019081526020015f205f6101000a81548173ffffffffffffffffffffffffffffffffffffffff021916908373ffffffffffffffffffffffffffffffffffffffff160217905550600682908060018154018082558091505060019003905f5260205f20015f9091909190916101000a81548173ffffffffffffffffffffffffffffffffffffffff021916908373ffffffffffffffffffffffffffffffffffffffff16021790555060025f81548092919061588f90618101565b91905055505050565b5f60085f8473ffffffffffffffffffffffffffffffffffffffff1673ffffffffffffffffffffffffffffffffffffffff1681526020019081526020015f205f8381526020019081526020015f2090505f816005015490505f615953835f016040518060400160405290815f82016040518060400160405290815f82015481526020016001820154815250508152602001600282016040518060400160405290815f820154815260200160018201548152505081525050615b81565b90508082604051602001615968929190616e68565b604051602081830303815290604052805190602001205f1c905060405180604001604052808460060154815260200160011515815250836004015f8381526020019081526020015f205f820151815f01556020820151816001015f6101000a81548160ff021916908315150217905550905050826006015f8154809291906159ef90618101565b91905055505050505050565b5f8173ffffffffffffffffffffffffffffffffffffffff1663313ce5676040518163ffffffff1660e01b8152600401602060405180830381865afa158015615a45573d5f5f3e3d5ffd5b505050506040513d601f19601f82011682018060405250810190615a699190617dad565b60ff1690505f8390505f5f90507f000000000000000000000000000000000000000000000000000000000000000060ff16831115615af1577f000000000000000000000000000000000000000000000000000000000000000060ff1683615ad0919061797e565b600a615adc919061816f565b90508085615aea9190618012565b9150615b69565b7f000000000000000000000000000000000000000000000000000000000000000060ff16831015615b6857827f000000000000000000000000000000000000000000000000000000000000000060ff16615b4b919061797e565b600a615b57919061816f565b90508085615b659190617fb2565b91505b5b5f849050615b78818885614fed565b50505050505050565b5f815f01515f0151825f01516020015183602001515f0151846020015160200151604051602001615bb594939291906181b9565b604051602081830303815290604052805190602001205f1c9050919050565b5f5f5f60085f8773ffffffffffffffffffffffffffffffffffffffff1673ffffffffffffffffffffffffffffffffffffffff1681526020019081526020015f205f8681526020019081526020015f206005015490505f8482604051602001615c3d929190616e68565b604051602081830303815290604052805190602001205f1c905060085f8873ffffffffffffffffffffffffffffffffffffffff1673ffffffffffffffffffffffffffffffffffffffff1681526020019081526020015f205f8781526020019081526020015f206004015f8281526020019081526020015f206001015f9054906101000a900460ff1660085f8973ffffffffffffffffffffffffffffffffffffffff1673ffffffffffffffffffffffffffffffffffffffff1681526020019081526020015f205f8881526020019081526020015f206004015f8381526020019081526020015f205f0154935093505050935093915050565b5f60085f8573ffffffffffffffffffffffffffffffffffffffff1673ffffffffffffffffffffffffffffffffffffffff1681526020019081526020015f205f8481526020019081526020015f2090505f81600e018054905090505b5f811115615ea1575f600182615da5919061797e565b90508383600e018281548110615dbe57615dbd617501565b5b905f5260205f2090600802016007015411615e8d5782600e01600184600e0180549050615deb919061797e565b81548110615dfc57615dfb617501565b5b905f5260205f20906008020183600e018281548110615e1e57615e1d617501565b5b905f5260205f2090600802015f8201815f01906007615e3e929190615fe5565b506007820154816007015590505082600e01805480615e6057615e5f6181fc565b5b600190038181905f5260205f2090600802015f5f82015f615e819190616022565b600782015f9055505090555b508080615e9990618229565b915050615d8f565b50806005015f815480929190615eb690618101565b9190505550615ec58484615898565b50505050565b6040518060400160405280615ede616035565b8152602001615eeb616035565b81525090565b6040518060e00160405280600790602082028036833780820191505090505090565b6040518060800160405280615f26615ecb565b8152602001615f33615ecb565b8152602001615f40615ecb565b8152602001615f4d615ef1565b81525090565b8260078101928215615f82579160200282015b82811115615f81578251825591602001919060010190615f66565b5b509050615f8f919061604d565b5090565b60405180608001604052805f73ffffffffffffffffffffffffffffffffffffffff1681526020015f73ffffffffffffffffffffffffffffffffffffffff16815260200160608152602001606081525090565b8260078101928215616011579182015b82811115616010578254825591600101919060010190615ff5565b5b50905061601e919061604d565b5090565b508060070190616032919061604d565b50565b60405180604001604052805f81526020015f81525090565b5b80821115616064575f815f90555060010161604e565b5090565b5f73ffffffffffffffffffffffffffffffffffffffff82169050919050565b5f819050919050565b5f6160aa6160a56160a084616068565b616087565b616068565b9050919050565b5f6160bb82616090565b9050919050565b5f6160cc826160b1565b9050919050565b6160dc816160c2565b82525050565b5f6020820190506160f55f8301846160d3565b92915050565b5f604051905090565b5f5ffd5b5f5ffd5b5f61611682616068565b9050919050565b6161268161610c565b8114616130575f5ffd5b50565b5f813590506161418161611d565b92915050565b5f819050919050565b61615981616147565b8114616163575f5ffd5b50565b5f8135905061617481616150565b92915050565b5f5f604083850312156161905761618f616104565b5b5f61619d85828601616133565b92505060206161ae85828601616166565b9150509250929050565b6161c181616147565b82525050565b604082015f8201516161db5f8501826161b8565b5060208201516161ee60208501826161b8565b50505050565b608082015f8201516162085f8501826161c7565b50602082015161621b60408501826161c7565b50505050565b61622a81616147565b82525050565b5f81519050919050565b5f82825260208201905092915050565b5f819050602082019050919050565b5f60079050919050565b5f81905092915050565b5f819050919050565b5f61628183836161b8565b60208301905092915050565b5f602082019050919050565b6162a281616259565b6162ac8184616263565b92506162b78261626d565b805f5b838110156162e75781516162ce8782616276565b96506162d98361628d565b9250506001810190506162ba565b505050505050565b61010082015f8201516163045f850182616299565b50602082015161631760e08501826161b8565b50505050565b5f61632883836162ef565b6101008301905092915050565b5f602082019050919050565b5f61634b82616230565b616355818561623a565b93506163608361624a565b805f5b83811015616390578151616377888261631d565b975061638283616335565b925050600181019050616363565b5085935050505092915050565b5f81905092915050565b6163b081616259565b6163ba818461639d565b92506163c58261626d565b805f5b838110156163f55781516163dc8782616276565b96506163e78361628d565b9250506001810190506163c8565b505050505050565b5f6101c0820190506164115f8301886161f4565b61641e6080830187616221565b81810360a08301526164308186616341565b905061643f60c08301856163a7565b61644d6101a0830184616221565b9695505050505050565b5f8115159050919050565b61646b81616457565b82525050565b5f6020820190506164845f830184616462565b92915050565b5f81519050919050565b5f82825260208201905092915050565b8281835e5f83830152505050565b5f601f19601f8301169050919050565b5f6164cc8261648a565b6164d68185616494565b93506164e68185602086016164a4565b6164ef816164b2565b840191505092915050565b5f6020820190508181035f83015261651281846164c2565b905092915050565b5f6020828403121561652f5761652e616104565b5b5f61653c84828501616133565b91505092915050565b5f5f6040838503121561655b5761655a616104565b5b5f61656885828601616133565b925050602061657985828601616133565b9150509250929050565b61658c81616457565b8114616596575f5ffd5b50565b5f813590506165a781616583565b92915050565b5f5f604083850312156165c3576165c2616104565b5b5f6165d085828601616133565b92505060206165e185828601616599565b9150509250929050565b5f5ffd5b5f6104008284031215616605576166046165eb565b5b81905092915050565b5f5f610420838503121561662557616624616104565b5b5f61663285828601616133565b9250506020616643858286016165ef565b9150509250929050565b5f616657826160b1565b9050919050565b6166678161664d565b82525050565b5f6020820190506166805f83018461665e565b92915050565b5f5ffd5b7f4e487b71000000000000000000000000000000000000000000000000000000005f52604160045260245ffd5b6166c0826164b2565b810181811067ffffffffffffffff821117156166df576166de61668a565b5b80604052505050565b5f6166f16160fb565b90506166fd82826166b7565b919050565b5f5ffd5b5f67ffffffffffffffff8211156167205761671f61668a565b5b602082029050919050565b5f5ffd5b5f61674161673c84616706565b6166e8565b9050806020840283018581111561675b5761675a61672b565b5b835b8181101561678457806167708882616166565b84526020840193505060208101905061675d565b5050509392505050565b5f82601f8301126167a2576167a1616702565b5b60026167af84828561672f565b91505092915050565b5f67ffffffffffffffff8211156167d2576167d161668a565b5b602082029050919050565b5f6167ef6167ea846167b8565b6166e8565b905080604084028301858111156168095761680861672b565b5b835b81811015616832578061681e888261678e565b84526020840193505060408101905061680b565b5050509392505050565b5f82601f8301126168505761684f616702565b5b600261685d8482856167dd565b91505092915050565b5f610100828403121561687c5761687b616686565b5b61688660606166e8565b90505f6168958482850161678e565b5f8301525060406168a88482850161683c565b60208301525060c06168bc8482850161678e565b60408301525092915050565b5f67ffffffffffffffff8211156168e2576168e161668a565b5b602082029050919050565b5f6168ff6168fa846168c8565b6166e8565b905080602084028301858111156169195761691861672b565b5b835b81811015616942578061692e8882616166565b84526020840193505060208101905061691b565b5050509392505050565b5f82601f8301126169605761695f616702565b5b602061696d8482856168ed565b91505092915050565b5f610500828403121561698c5761698b616686565b5b61699660406166e8565b90505f6169a584828501616866565b5f830152506101006169b98482850161694c565b60208301525092915050565b5f819050826020600702820111156169e0576169df61672b565b5b92915050565b5f5f5f5f61062085870312156169ff576169fe616104565b5b5f616a0c87828801616133565b9450506020616a1d87828801616166565b9350506040616a2e87828801616976565b925050610540616a40878288016169c5565b91505092959194509250565b5f5ffd5b5f5f83601f840112616a6557616a64616702565b5b8235905067ffffffffffffffff811115616a8257616a81616a4c565b5b602083019150836001820283011115616a9e57616a9d61672b565b5b9250929050565b5f5f5f5f6104408587031215616abe57616abd616104565b5b5f616acb87828801616133565b9450506020616adc878288016165ef565b93505061042085013567ffffffffffffffff811115616afe57616afd616108565b5b616b0a87828801616a50565b925092505092959194509250565b5f60ff82169050919050565b616b2d81616b18565b82525050565b5f602082019050616b465f830184616b24565b92915050565b5f5f5f5f5f5f6106408789031215616b6757616b66616104565b5b5f616b7489828a01616133565b9650506020616b8589828a01616166565b9550506040616b9689828a01616976565b945050610540616ba889828a016169c5565b93505061062087013567ffffffffffffffff811115616bca57616bc9616108565b5b616bd689828a01616a50565b92509250509295509295509295565b616bee8161610c565b82525050565b5f602082019050616c075f830184616be5565b92915050565b5f60208284031215616c2257616c21616104565b5b5f616c2f84828501616166565b91505092915050565b5f6103608284031215616c4e57616c4d6165eb565b5b81905092915050565b5f5f5f5f5f6104808688031215616c7157616c70616104565b5b5f616c7e88828901616133565b9550506020616c8f88828901616c38565b945050610380616ca1888289016169c5565b93505061046086013567ffffffffffffffff811115616cc357616cc2616108565b5b616ccf88828901616a50565b92509250509295509295909350565b5f602082019050616cf15f830184616221565b92915050565b5f67ffffffffffffffff821115616d1157616d1061668a565b5b602082029050919050565b5f616d2e616d2984616cf7565b6166e8565b90508060208402830185811115616d4857616d4761672b565b5b835b81811015616d715780616d5d8882616166565b845260208401935050602081019050616d4a565b5050509392505050565b5f82601f830112616d8f57616d8e616702565b5b6007616d9c848285616d1c565b91505092915050565b5f5f5f6101208486031215616dbd57616dbc616104565b5b5f616dca86828701616166565b9350506020616ddb86828701616133565b9250506040616dec86828701616d7b565b9150509250925092565b5f616e00826160b1565b9050919050565b616e1081616df6565b82525050565b5f602082019050616e295f830184616e07565b92915050565b5f616e39826160b1565b9050919050565b616e4981616e2f565b82525050565b5f602082019050616e625f830184616e40565b92915050565b5f604082019050616e7b5f830185616221565b616e886020830184616221565b9392505050565b5f67ffffffffffffffff821115616ea957616ea861668a565b5b602082029050919050565b5f616ec6616ec184616e8f565b6166e8565b90508060208402830185811115616ee057616edf61672b565b5b835b81811015616f095780616ef58882616166565b845260208401935050602081019050616ee2565b5050509392505050565b5f82601f830112616f2757616f26616702565b5b6010616f34848285616eb4565b91505092915050565b5f6103008284031215616f5357616f52616686565b5b616f5d60406166e8565b90505f616f6c84828501616866565b5f83015250610100616f8084828501616f13565b60208301525092915050565b5f5f5f6104008486031215616fa457616fa3616104565b5b5f616fb186828701616166565b9350506020616fc286828701616f3d565b925050610320616fd486828701616d7b565b9150509250925092565b5f81519050919050565b5f82825260208201905092915050565b5f819050602082019050919050565b6170108161610c565b82525050565b5f6170218383617007565b60208301905092915050565b5f602082019050919050565b5f61704382616fde565b61704d8185616fe8565b935061705883616ff8565b805f5b8381101561708857815161706f8882617016565b975061707a8361702d565b92505060018101905061705b565b5085935050505092915050565b5f6020820190508181035f8301526170ad8184617039565b905092915050565b5f6170bf826160b1565b9050919050565b6170cf816170b5565b82525050565b5f6020820190506170e85f8301846170c6565b92915050565b5f60c0820190506171015f8301866161f4565b61710e6080830185616221565b61711b60a0830184616221565b949350505050565b5f5f5f5f5f610140868803121561713d5761713c616104565b5b5f61714a88828901616166565b955050602061715b88828901616133565b945050604061716c88828901616d7b565b93505061012086013567ffffffffffffffff81111561718e5761718d616108565b5b61719a88828901616a50565b92509250509295509295909350565b5f5f61044083850312156171c0576171bf616104565b5b5f6171cd85828601616c38565b9250506103606171df858286016169c5565b9150509250929050565b5f5f5f5f5f610420868803121561720357617202616104565b5b5f61721088828901616166565b955050602061722188828901616f3d565b94505061032061723388828901616d7b565b93505061040086013567ffffffffffffffff81111561725557617254616108565b5b61726188828901616a50565b92509250509295509295909350565b5f5f5f6040848603121561728757617286616104565b5b5f61729486828701616133565b935050602084013567ffffffffffffffff8111156172b5576172b4616108565b5b6172c186828701616a50565b92509250509250925092565b7f4e487b71000000000000000000000000000000000000000000000000000000005f52602260045260245ffd5b5f600282049050600182168061731157607f821691505b602082108103617324576173236172cd565b5b50919050565b5f8151905061733881616583565b92915050565b5f6020828403121561735357617352616104565b5b5f6173608482850161732a565b91505092915050565b5f8151905061737781616150565b92915050565b5f61738f61738a84616706565b6166e8565b905080602084028301858111156173a9576173a861672b565b5b835b818110156173d257806173be8882617369565b8452602084019350506020810190506173ab565b5050509392505050565b5f82601f8301126173f0576173ef616702565b5b60026173fd84828561737d565b91505092915050565b5f6040828403121561741b5761741a616104565b5b5f617428848285016173dc565b91505092915050565b7f41756469746f72207075626c6963206b6579206e6f74207365740000000000005f82015250565b5f617465601a83616494565b915061747082617431565b602082019050919050565b5f6020820190508181035f83015261749281617459565b9050919050565b7f41756469746f72206e6f742073657400000000000000000000000000000000005f82015250565b5f6174cd600f83616494565b91506174d882617499565b602082019050919050565b5f6020820190508181035f8301526174fa816174c1565b9050919050565b7f4e487b71000000000000000000000000000000000000000000000000000000005f52603260045260245ffd5b82818337505050565b6175436040838361752e565b5050565b5f60029050919050565b5f81905092915050565b5f819050919050565b6175706040838361752e565b5050565b5f61757f8383617564565b60408301905092915050565b5f82905092915050565b5f604082019050919050565b6175aa81617547565b6175b48184617551565b92506175bf8261755b565b805f5b838110156175f7576175d4828461758b565b6175de8782617574565b96506175e983617595565b9250506001810190506175c2565b505050505050565b61760c610300838361752e565b5050565b5f610400820190506176245f830187617537565b61763160408301866175a1565b61763e60c0830185617537565b61764c6101008301846175ff565b95945050505050565b7f4e487b71000000000000000000000000000000000000000000000000000000005f52601160045260245ffd5b5f61768c82616147565b915061769783616147565b92508282019050808211156176af576176ae617655565b5b92915050565b5f60e0820190506176c85f8301846163a7565b92915050565b5f60029050919050565b5f81905092915050565b5f819050919050565b5f602082019050919050565b617700816176ce565b61770a81846176d8565b9250617715826176e2565b805f5b8381101561774557815161772c8782616276565b9650617737836176eb565b925050600181019050617718565b505050505050565b5f60029050919050565b5f819050919050565b5f81905092915050565b617773816176ce565b61777d8184617760565b9250617788826176e2565b805f5b838110156177b857815161779f8782616276565b96506177aa836176eb565b92505060018101905061778b565b505050505050565b5f6177cb838361776a565b60408301905092915050565b5f602082019050919050565b6177ec8161774d565b6177f68184617551565b925061780182617757565b805f5b8381101561783157815161781887826177c0565b9650617823836177d7565b925050600181019050617804565b505050505050565b5f60209050919050565b5f81905092915050565b5f819050919050565b5f602082019050919050565b61786b81617839565b6178758184617843565b92506178808261784d565b805f5b838110156178b05781516178978782616276565b96506178a283617856565b925050600181019050617883565b505050505050565b5f610500820190506178cc5f8301876176f7565b6178d960408301866177e3565b6178e660c08301856176f7565b6178f4610100830184617862565b95945050505050565b61790a610260838361752e565b5050565b5f610360820190506179225f830187617537565b61792f60408301866175a1565b61793c60c0830185617537565b61794a6101008301846178fd565b95945050505050565b5f6020828403121561796857617967616104565b5b5f61797584828501617369565b91505092915050565b5f61798882616147565b915061799383616147565b92508282039050818111156179ab576179aa617655565b5b92915050565b5f6060820190506179c45f830186616221565b6179d16020830185616221565b6179de6040830184616221565b949350505050565b5f60109050919050565b5f81905092915050565b5f819050919050565b5f602082019050919050565b617a18816179e6565b617a2281846179f0565b9250617a2d826179fa565b805f5b83811015617a5d578151617a448782616276565b9650617a4f83617a03565b925050600181019050617a30565b505050505050565b5f61030082019050617a795f8301876176f7565b617a8660408301866177e3565b617a9360c08301856176f7565b617aa1610100830184617a0f565b95945050505050565b5f61012082019050617abe5f830186616221565b617acb6020830185616221565b617ad860408301846163a7565b949350505050565b5f82825260208201905092915050565b5f617afa8261648a565b617b048185617ae0565b9350617b148185602086016164a4565b617b1d816164b2565b840191505092915050565b5f81519050919050565b5f82825260208201905092915050565b5f617b4c82617b28565b617b568185617b32565b9350617b668185602086016164a4565b617b6f816164b2565b840191505092915050565b5f608083015f830151617b8f5f860182617007565b506020830151617ba26020860182617007565b5060408301518482036040860152617bba8282617af0565b91505060608301518482036060860152617bd48282617b42565b9150508091505092915050565b5f6020820190508181035f830152617bf98184617b7a565b905092915050565b5f815f1c9050919050565b5f819050919050565b5f617c27617c2283617c01565b617c0c565b9050919050565b617c3781616147565b82525050565b604082015f5f8301549050617c5181617c15565b617c5d5f860182617c2e565b5060018301549050617c6e81617c15565b617c7b6020860182617c2e565b5050505050565b604082015f820151617c965f850182617c2e565b506020820151617ca96020850182617c2e565b50505050565b5f608082019050617cc25f830185617c3d565b617ccf6040830184617c82565b9392505050565b5f60408284031215617ceb57617cea616686565b5b617cf560406166e8565b90505f617d0484828501617369565b5f830152506020617d1784828501617369565b60208301525092915050565b5f60408284031215617d3857617d37616104565b5b5f617d4584828501617cd6565b91505092915050565b5f606082019050617d615f830186616be5565b617d6e6020830185616be5565b617d7b6040830184616221565b949350505050565b617d8c81616b18565b8114617d96575f5ffd5b50565b5f81519050617da781617d83565b92915050565b5f60208284031215617dc257617dc1616104565b5b5f617dcf84828501617d99565b91505092915050565b5f617de282616b18565b9150617ded83616b18565b9250828203905060ff811115617e0657617e05617655565b5b92915050565b5f8160011c9050919050565b5f5f8291508390505b6001851115617e6157808604811115617e3d57617e3c617655565b5b6001851615617e4c5780820291505b8081029050617e5a85617e0c565b9450617e21565b94509492505050565b5f82617e795760019050617f34565b81617e86575f9050617f34565b8160018114617e9c5760028114617ea657617ed5565b6001915050617f34565b60ff841115617eb857617eb7617655565b5b8360020a915084821115617ecf57617ece617655565b5b50617f34565b5060208310610133831016604e8410600b8410161715617f0a5782820a905083811115617f0557617f04617655565b5b617f34565b617f178484846001617e18565b92509050818404811115617f2e57617f2d617655565b5b81810290505b9392505050565b5f617f4582616147565b9150617f5083616b18565b9250617f7d7fffffffffffffffffffffffffffffffffffffffffffffffffffffffffffffffff8484617e6a565b905092915050565b7f4e487b71000000000000000000000000000000000000000000000000000000005f52601260045260245ffd5b5f617fbc82616147565b9150617fc783616147565b925082617fd757617fd6617f85565b5b828204905092915050565b5f617fec82616147565b9150617ff783616147565b92508261800757618006617f85565b5b828206905092915050565b5f61801c82616147565b915061802783616147565b925082820261803581616147565b9150828204841483151761804c5761804b617655565b5b5092915050565b61805c81616147565b82525050565b5f6060820190506180755f830185617c82565b6180826040830184618053565b9392505050565b5f6080828403121561809e5761809d616686565b5b6180a860406166e8565b90505f6180b784828501617cd6565b5f8301525060406180ca84828501617cd6565b60208301525092915050565b5f608082840312156180eb576180ea616104565b5b5f6180f884828501618089565b91505092915050565b5f61810b82616147565b91507fffffffffffffffffffffffffffffffffffffffffffffffffffffffffffffffff820361813d5761813c617655565b5b600182019050919050565b5f60408201905061815b5f830185616be5565b6181686020830184616221565b9392505050565b5f61817982616147565b915061818483616147565b92506181b17fffffffffffffffffffffffffffffffffffffffffffffffffffffffffffffffff8484617e6a565b905092915050565b5f6080820190506181cc5f830187616221565b6181d96020830186616221565b6181e66040830185616221565b6181f36060830184616221565b95945050505050565b7f4e487b71000000000000000000000000000000000000000000000000000000005f52603160045260245ffd5b5f61823382616147565b91505f820361824557618244617655565b5b60018203905091905056fea2646970667358221220623b3c600a4ab885f697f89939698a151042663287c2fa3805e41cd04642598664736f6c634300081b0033",
        "linkReferences": {
            "lib/encrypted-erc/contracts/libraries/BabyJubJub.sol": {
                "BabyJubJub": [
                    {
                        "start": 20543,
                        "length": 20
                    },
                    {
                        "start": 20695,
                        "length": 20
                    },
                    {
                        "start": 22695,
                        "length": 20
                    },
                    {
                        "start": 23065,
                        "length": 20
                    },
                    {
                        "start": 23217,
                        "length": 20
                    },
                    {
                        "start": 23965,
                        "length": 20
                    },
                    {
                        "start": 24968,
                        "length": 20
                    },
                    {
                        "start": 25120,
                        "length": 20
                    }
                ]
            }
        }
    },
    "methodIdentifiers": {
        "acceptOwnership()": "79ba5097",
        "alreadyMinted(uint256)": "b7365f1f",
        "auditor()": "3ec045a6",
        "auditorPublicKey()": "91584d49",
        "balanceOf(address,uint256)": "00fdd58e",
        "balanceOfStandalone(address)": "a865d5b2",
        "balances(address,uint256)": "cbf1304d",
        "blacklistedTokens(address)": "5c8b5f44",
        "burnVerifier()": "c3a716eb",
        "decimals()": "313ce567",
        "deposit(uint256,address,uint256[7])": "82f09ea2",
        "deposit(uint256,address,uint256[7],bytes)": "ce6a5009",
        "getBalanceFromTokenAddress(address,address)": "14dda7fd",
        "getTokens()": "aa6ca808",
        "isAuditorKeySet()": "034a1c18",
        "isConverter()": "61832767",
        "mintVerifier()": "00b0938d",
        "name()": "06fdde03",
        "nextTokenId()": "75794a3c",
        "owner()": "8da5cb5b",
        "pendingOwner()": "e30c3978",
        "privateBurn(((uint256[2],uint256[2][2],uint256[2]),uint256[19]),uint256[7])": "f4b2be44",
        "privateBurn(address,((uint256[2],uint256[2][2],uint256[2]),uint256[19]),uint256[7],bytes)": "620be592",
        "privateMint(address,((uint256[2],uint256[2][2],uint256[2]),uint256[24]))": "204ac7cc",
        "privateMint(address,((uint256[2],uint256[2][2],uint256[2]),uint256[24]),bytes)": "2dc9157d",
        "registrar()": "2b20e397",
        "renounceOwnership()": "715018a6",
        "sendEncryptedMetadata(address,bytes)": "ff8ae773",
        "setAuditorPublicKey(address)": "13a4f0db",
        "setTokenBlacklist(address,bool)": "1ff0769a",
        "symbol()": "95d89b41",
        "tokenAddresses(uint256)": "e5df8b84",
        "tokenIds(address)": "fc97a303",
        "tokens(uint256)": "4f64b2be",
        "transfer(address,uint256,((uint256[2],uint256[2][2],uint256[2]),uint256[32]),uint256[7])": "2d947610",
        "transfer(address,uint256,((uint256[2],uint256[2][2],uint256[2]),uint256[32]),uint256[7],bytes)": "375b9aeb",
        "transferOwnership(address)": "f2fde38b",
        "transferVerifier()": "8daed528",
        "withdraw(uint256,((uint256[2],uint256[2][2],uint256[2]),uint256[16]),uint256[7])": "a5566e25",
        "withdraw(uint256,((uint256[2],uint256[2][2],uint256[2]),uint256[16]),uint256[7],bytes)": "f813562a",
        "withdrawVerifier()": "864eb164"
    },
    "id": 0
}