{"abi":[{"type":"constructor","inputs":[{"name":"_boardManagement","type":"address","internalType":"address"},{"name":"_governanceToken","type":"address","internalType":"address"}],"stateMutability":"nonpayable"},{"type":"function","name":"DEFAULT_QUORUM","inputs":[],"outputs":[{"name":"","type":"uint256","internalType":"uint256"}],"stateMutability":"view"},{"type":"function","name":"PROPOSAL_THRESHOLD","inputs":[],"outputs":[{"name":"","type":"uint256","internalType":"uint256"}],"stateMutability":"view"},{"type":"function","name":"boardManagement","inputs":[],"outputs":[{"name":"","type":"address","internalType":"contract BoardManagement"}],"stateMutability":"view"},{"type":"function","name":"cancel","inputs":[{"name":"proposalId","type":"bytes32","internalType":"bytes32"}],"outputs":[],"stateMutability":"nonpayable"},{"type":"function","name":"castVote","inputs":[{"name":"proposalId","type":"bytes32","internalType":"bytes32"},{"name":"support","type":"uint8","internalType":"uint8"}],"outputs":[{"name":"","type":"uint256","internalType":"uint256"}],"stateMutability":"nonpayable"},{"type":"function","name":"decryptBudget","inputs":[{"name":"proposalId","type":"bytes32","internalType":"bytes32"},{"name":"decryptedContent","type":"string","internalType":"string"}],"outputs":[],"stateMutability":"nonpayable"},{"type":"function","name":"execute","inputs":[{"name":"proposalId","type":"bytes32","internalType":"bytes32"}],"outputs":[],"stateMutability":"nonpayable"},{"type":"function","name":"getBoardVotingPower","inputs":[],"outputs":[{"name":"","type":"uint256","internalType":"uint256"}],"stateMutability":"view"},{"type":"function","name":"getEncryptedBudget","inputs":[{"name":"proposalId","type":"bytes32","internalType":"bytes32"}],"outputs":[{"name":"","type":"tuple","internalType":"struct ProposalTypes.EncryptedBudget","components":[{"name":"budgetHash","type":"bytes32","internalType":"bytes32"},{"name":"encryptedData","type":"bytes","internalType":"bytes"},{"name":"decryptionKeys","type":"bytes32[]","internalType":"bytes32[]"},{"name":"isDecrypted","type":"bool","internalType":"bool"},{"name":"decryptedContent","type":"string","internalType":"string"}]}],"stateMutability":"view"},{"type":"function","name":"getProposalActions","inputs":[{"name":"proposalId","type":"bytes32","internalType":"bytes32"}],"outputs":[{"name":"","type":"tuple","internalType":"struct ProposalTypes.ProposalActions","components":[{"name":"targets","type":"address[]","internalType":"address[]"},{"name":"values","type":"uint256[]","internalType":"uint256[]"},{"name":"calldatas","type":"bytes[]","internalType":"bytes[]"},{"name":"signatures","type":"string[]","internalType":"string[]"}]}],"stateMutability":"view"},{"type":"function","name":"getProposalDetails","inputs":[{"name":"proposalId","type":"bytes32","internalType":"bytes32"}],"outputs":[{"name":"proposal","type":"tuple","internalType":"struct ProposalTypes.ProposalCore","components":[{"name":"id","type":"bytes32","internalType":"bytes32"},{"name":"proposer","type":"address","internalType":"address"},{"name":"proposalType","type":"uint8","internalType":"enum ProposalTypes.ProposalType"},{"name":"title","type":"string","internalType":"string"},{"name":"description","type":"string","internalType":"string"},{"name":"metadataURI","type":"string","internalType":"string"},{"name":"startTime","type":"uint256","internalType":"uint256"},{"name":"endTime","type":"uint256","internalType":"uint256"},{"name":"executionDelay","type":"uint256","internalType":"uint256"},{"name":"executed","type":"bool","internalType":"bool"},{"name":"canceled","type":"bool","internalType":"bool"}]},{"name":"results","type":"tuple","internalType":"struct ProposalTypes.VotingResults","components":[{"name":"forVotes","type":"uint256","internalType":"uint256"},{"name":"againstVotes","type":"uint256","internalType":"uint256"},{"name":"abstainVotes","type":"uint256","internalType":"uint256"},{"name":"totalVotes","type":"uint256","internalType":"uint256"},{"name":"quorumRequired","type":"uint256","internalType":"uint256"},{"name":"approvalThreshold","type":"uint256","internalType":"uint256"}]}],"stateMutability":"view"},{"type":"function","name":"governanceToken","inputs":[],"outputs":[{"name":"","type":"address","internalType":"contract IEERC20"}],"stateMutability":"view"},{"type":"function","name":"hasVoted","inputs":[{"name":"","type":"bytes32","internalType":"bytes32"},{"name":"","type":"address","internalType":"address"}],"outputs":[{"name":"","type":"bool","internalType":"bool"}],"stateMutability":"view"},{"type":"function","name":"proposals","inputs":[{"name":"","type":"bytes32","internalType":"bytes32"}],"outputs":[{"name":"id","type":"bytes32","internalType":"bytes32"},{"name":"proposer","type":"address","internalType":"address"},{"name":"proposalType","type":"uint8","internalType":"enum ProposalTypes.ProposalType"},{"name":"title","type":"string","internalType":"string"},{"name":"description","type":"string","internalType":"string"},{"name":"metadataURI","type":"string","internalType":"string"},{"name":"startTime","type":"uint256","internalType":"uint256"},{"name":"endTime","type":"uint256","internalType":"uint256"},{"name":"executionDelay","type":"uint256","internalType":"uint256"},{"name":"executed","type":"bool","internalType":"bool"},{"name":"canceled","type":"bool","internalType":"bool"}],"stateMutability":"view"},{"type":"function","name":"propose","inputs":[{"name":"proposalId","type":"bytes32","internalType":"bytes32"},{"name":"description","type":"string","internalType":"string"},{"name":"proposalData","type":"bytes","internalType":"bytes"}],"outputs":[{"name":"","type":"bytes32","internalType":"bytes32"}],"stateMutability":"nonpayable"},{"type":"function","name":"setZKVerifier","inputs":[{"name":"verifier","type":"address","internalType":"address"}],"outputs":[],"stateMutability":"nonpayable"},{"type":"function","name":"state","inputs":[{"name":"proposalId","type":"bytes32","internalType":"bytes32"}],"outputs":[{"name":"","type":"uint8","internalType":"enum IGovernor.ProposalState"}],"stateMutability":"view"},{"type":"function","name":"usedNullifiers","inputs":[{"name":"","type":"bytes32","internalType":"bytes32"}],"outputs":[{"name":"","type":"bool","internalType":"bool"}],"stateMutability":"view"},{"type":"function","name":"votingResults","inputs":[{"name":"","type":"bytes32","internalType":"bytes32"}],"outputs":[{"name":"forVotes","type":"uint256","internalType":"uint256"},{"name":"againstVotes","type":"uint256","internalType":"uint256"},{"name":"abstainVotes","type":"uint256","internalType":"uint256"},{"name":"totalVotes","type":"uint256","internalType":"uint256"},{"name":"quorumRequired","type":"uint256","internalType":"uint256"},{"name":"approvalThreshold","type":"uint256","internalType":"uint256"}],"stateMutability":"view"},{"type":"function","name":"zkVerifier","inputs":[],"outputs":[{"name":"","type":"address","internalType":"contract IVerifier"}],"stateMutability":"view"},{"type":"event","name":"BudgetDecrypted","inputs":[{"name":"proposalId","type":"bytes32","indexed":true,"internalType":"bytes32"},{"name":"budgetDetails","type":"string","indexed":false,"internalType":"string"},{"name":"timestamp","type":"uint256","indexed":false,"internalType":"uint256"}],"anonymous":false},{"type":"event","name":"BudgetEncrypted","inputs":[{"name":"proposalId","type":"bytes32","indexed":true,"internalType":"bytes32"},{"name":"budgetHash","type":"bytes32","indexed":false,"internalType":"bytes32"},{"name":"timestamp","type":"uint256","indexed":false,"internalType":"uint256"}],"anonymous":false},{"type":"event","name":"ProposalCreated","inputs":[{"name":"proposalId","type":"bytes32","indexed":true,"internalType":"bytes32"},{"name":"proposer","type":"address","indexed":true,"internalType":"address"},{"name":"proposalType","type":"uint8","indexed":true,"internalType":"enum ProposalTypes.ProposalType"},{"name":"startTime","type":"uint256","indexed":false,"internalType":"uint256"},{"name":"endTime","type":"uint256","indexed":false,"internalType":"uint256"}],"anonymous":false},{"type":"event","name":"ProposalCreated","inputs":[{"name":"proposalId","type":"bytes32","indexed":true,"internalType":"bytes32"},{"name":"proposer","type":"address","indexed":true,"internalType":"address"},{"name":"startTime","type":"uint256","indexed":false,"internalType":"uint256"},{"name":"endTime","type":"uint256","indexed":false,"internalType":"uint256"},{"name":"description","type":"string","indexed":false,"internalType":"string"}],"anonymous":false},{"type":"event","name":"ProposalExecuted","inputs":[{"name":"proposalId","type":"bytes32","indexed":true,"internalType":"bytes32"}],"anonymous":false},{"type":"event","name":"VoteCast","inputs":[{"name":"proposalId","type":"bytes32","indexed":true,"internalType":"bytes32"},{"name":"voter","type":"address","indexed":true,"internalType":"address"},{"name":"voteType","type":"uint8","indexed":true,"internalType":"enum ProposalTypes.VoteType"},{"name":"weight","type":"uint256","indexed":false,"internalType":"uint256"},{"name":"nullifierHash","type":"bytes32","indexed":false,"internalType":"bytes32"}],"anonymous":false},{"type":"event","name":"VoteCast","inputs":[{"name":"voter","type":"address","indexed":true,"internalType":"address"},{"name":"proposalId","type":"bytes32","indexed":true,"internalType":"bytes32"},{"name":"support","type":"uint8","indexed":false,"internalType":"uint8"},{"name":"weight","type":"uint256","indexed":false,"internalType":"uint256"},{"name":"reason","type":"string","indexed":false,"internalType":"string"}],"anonymous":false}],"bytecode":{"object":"0x60a060405234801561000f575f5ffd5b5060405161586b38038061586b833981810160405281019061003191906101e6565b5f73ffffffffffffffffffffffffffffffffffffffff168273ffffffffffffffffffffffffffffffffffffffff160361009f576040517f08c379a00000000000000000000000000000000000000000000000000000000081526004016100969061027e565b60405180910390fd5b5f73ffffffffffffffffffffffffffffffffffffffff168173ffffffffffffffffffffffffffffffffffffffff160361010d576040517f08c379a0000000000000000000000000000000000000000000000000000000008152600401610104906102e6565b60405180910390fd5b8173ffffffffffffffffffffffffffffffffffffffff1660808173ffffffffffffffffffffffffffffffffffffffff16815250508060015f6101000a81548173ffffffffffffffffffffffffffffffffffffffff021916908373ffffffffffffffffffffffffffffffffffffffff1602179055505050610304565b5f5ffd5b5f73ffffffffffffffffffffffffffffffffffffffff82169050919050565b5f6101b58261018c565b9050919050565b6101c5816101ab565b81146101cf575f5ffd5b50565b5f815190506101e0816101bc565b92915050565b5f5f604083850312156101fc576101fb610188565b5b5f610209858286016101d2565b925050602061021a858286016101d2565b9150509250929050565b5f82825260208201905092915050565b7f496e76616c696420626f617264206d616e6167656d656e7420616464726573735f82015250565b5f610268602083610224565b915061027382610234565b602082019050919050565b5f6020820190508181035f8301526102958161025c565b9050919050565b7f496e76616c696420746f6b656e206164647265737300000000000000000000005f82015250565b5f6102d0601583610224565b91506102db8261029c565b602082019050919050565b5f6020820190508181035f8301526102fd816102c4565b9050919050565b60805161551e61034d5f395f818161044401528181610cd8015281816116230152818161178501528181611d0201528181611e4d01528181611f8a0152612606015261551e5ff3fe608060405234801561000f575f5ffd5b506004361061012a575f3560e01c8063aadc3b72116100ab578063ddede5011161006f578063ddede5011461039b578063e751f271146103b9578063e801134c146103d5578063eccc8f5f14610406578063f96dae0a146104245761012a565b8063aadc3b72146102e5578063b4b0713e14610315578063c4d252f514610345578063c509034614610361578063d6df096d1461037d5761012a565b80633c8f2dae116100f25780633c8f2dae1461021457806340f197d51461024957806361d585da146102795780639a341b9f146102a9578063a6c26603146102c75761012a565b80631fb586911461012e578063206137aa1461014a578063247f60941461017a57806332ed5b12146101aa5780633950518c146101e4575b5f5ffd5b61014860048036038101906101439190612eb3565b610442565b005b610164600480360381019061015f9190612f0d565b6107d8565b6040516101719190612f52565b60405180910390f35b610194600480360381019061018f9190612f0d565b6107f5565b6040516101a191906133af565b60405180910390f35b6101c460048036038101906101bf9190612f0d565b610aa8565b6040516101db9b9a999897969594939291906134b7565b60405180910390f35b6101fe60048036038101906101f99190613613565b610cd5565b60405161020b919061369b565b60405180910390f35b61022e60048036038101906102299190612f0d565b611338565b604051610240969594939291906136b4565b60405180910390f35b610263600480360381019061025e9190612f0d565b611370565b604051610270919061385a565b60405180910390f35b610293600480360381019061028e9190612f0d565b611534565b6040516102a091906138c0565b60405180910390f35b6102b161174e565b6040516102be91906138d9565b60405180910390f35b6102cf611753565b6040516102dc91906138d9565b60405180910390f35b6102ff60048036038101906102fa919061391c565b611758565b60405161030c9190612f52565b60405180910390f35b61032f600480360381019061032a9190613990565b611782565b60405161033c91906138d9565b60405180910390f35b61035f600480360381019061035a9190612f0d565b611c3c565b005b61037b600480360381019061037691906139ce565b611e4b565b005b610385611f64565b6040516103929190613a54565b60405180910390f35b6103a3611f88565b6040516103b09190613a8d565b60405180910390f35b6103d360048036038101906103ce9190612f0d565b611fac565b005b6103ef60048036038101906103ea9190612f0d565b6122d4565b6040516103fd929190613c28565b60405180910390f35b61040e612603565b60405161041b91906138d9565b60405180910390f35b61042c612696565b6040516104399190613c76565b60405180910390f35b7f000000000000000000000000000000000000000000000000000000000000000073ffffffffffffffffffffffffffffffffffffffff166371942a01336040518263ffffffff1660e01b815260040161049b9190613c8f565b602060405180830381865afa1580156104b6573d5f5f3e3d5ffd5b505050506040513d601f19601f820116820180604052508101906104da9190613cd2565b610519576040517f08c379a000000000000000000000000000000000000000000000000000000000815260040161051090613d47565b60405180910390fd5b815f5f1b60025f8381526020019081526020015f205f015403610571576040517f08c379a000000000000000000000000000000000000000000000000000000000815260040161056890613daf565b60405180910390fd5b600780811115610584576105836133ed565b5b3073ffffffffffffffffffffffffffffffffffffffff166361d585da856040518263ffffffff1660e01b81526004016105bd919061369b565b602060405180830381865afa1580156105d8573d5f5f3e3d5ffd5b505050506040513d601f19601f820116820180604052508101906105fc9190613df0565b600781111561060e5761060d6133ed565b5b1461064e576040517f08c379a000000000000000000000000000000000000000000000000000000000815260040161064590613e65565b60405180910390fd5b5f60045f8581526020019081526020015f2090505f5f1b815f0154036106a9576040517f08c379a00000000000000000000000000000000000000000000000000000000081526004016106a090613ecd565b60405180910390fd5b806003015f9054906101000a900460ff16156106fa576040517f08c379a00000000000000000000000000000000000000000000000000000000081526004016106f190613f35565b60405180910390fd5b5f8360405160200161070c9190613f8d565b604051602081830303815290604052805190602001209050815f01548114610769576040517f08c379a000000000000000000000000000000000000000000000000000000000815260040161076090613fed565b60405180910390fd5b6001826003015f6101000a81548160ff0219169083151502179055508382600401908161079691906141ff565b50847f8195164ae8a6201e478d71a848d03adc6b0d631b1c61e1124f222c3fc51521b385426040516107c99291906142ce565b60405180910390a25050505050565b6007602052805f5260405f205f915054906101000a900460ff1681565b6107fd61296d565b60055f8381526020019081526020015f206040518060800160405290815f820180548060200260200160405190810160405280929190818152602001828054801561089a57602002820191905f5260205f20905b815f9054906101000a900473ffffffffffffffffffffffffffffffffffffffff1673ffffffffffffffffffffffffffffffffffffffff1681526020019060010190808311610851575b50505050508152602001600182018054806020026020016040519081016040528092919081815260200182805480156108f057602002820191905f5260205f20905b8154815260200190600101908083116108dc575b5050505050815260200160028201805480602002602001604051908101604052809291908181526020015f905b828210156109c5578382905f5260205f2001805461093a90614038565b80601f016020809104026020016040519081016040528092919081815260200182805461096690614038565b80156109b15780601f10610988576101008083540402835291602001916109b1565b820191905f5260205f20905b81548152906001019060200180831161099457829003601f168201915b50505050508152602001906001019061091d565b50505050815260200160038201805480602002602001604051908101604052809291908181526020015f905b82821015610a99578382905f5260205f20018054610a0e90614038565b80601f0160208091040260200160405190810160405280929190818152602001828054610a3a90614038565b8015610a855780601f10610a5c57610100808354040283529160200191610a85565b820191905f5260205f20905b815481529060010190602001808311610a6857829003601f168201915b5050505050815260200190600101906109f1565b50505050815250509050919050565b6002602052805f5260405f205f91509050805f015490806001015f9054906101000a900473ffffffffffffffffffffffffffffffffffffffff16908060010160149054906101000a900460ff1690806002018054610b0590614038565b80601f0160208091040260200160405190810160405280929190818152602001828054610b3190614038565b8015610b7c5780601f10610b5357610100808354040283529160200191610b7c565b820191905f5260205f20905b815481529060010190602001808311610b5f57829003601f168201915b505050505090806003018054610b9190614038565b80601f0160208091040260200160405190810160405280929190818152602001828054610bbd90614038565b8015610c085780601f10610bdf57610100808354040283529160200191610c08565b820191905f5260205f20905b815481529060010190602001808311610beb57829003601f168201915b505050505090806004018054610c1d90614038565b80601f0160208091040260200160405190810160405280929190818152602001828054610c4990614038565b8015610c945780601f10610c6b57610100808354040283529160200191610c94565b820191905f5260205f20905b815481529060010190602001808311610c7757829003601f168201915b505050505090806005015490806006015490806007015490806008015f9054906101000a900460ff16908060080160019054906101000a900460ff1690508b565b5f7f000000000000000000000000000000000000000000000000000000000000000073ffffffffffffffffffffffffffffffffffffffff166371942a01336040518263ffffffff1660e01b8152600401610d2f9190613c8f565b602060405180830381865afa158015610d4a573d5f5f3e3d5ffd5b505050506040513d601f19601f82011682018060405250810190610d6e9190613cd2565b610dad576040517f08c379a0000000000000000000000000000000000000000000000000000000008152600401610da490613d47565b60405180910390fd5b5f5f1b8403610df1576040517f08c379a0000000000000000000000000000000000000000000000000000000008152600401610de890614346565b60405180910390fd5b5f5f1b60025f8681526020019081526020015f205f015414610e48576040517f08c379a0000000000000000000000000000000000000000000000000000000008152600401610e3f906143ae565b60405180910390fd5b5f835111610e8b576040517f08c379a0000000000000000000000000000000000000000000000000000000008152600401610e8290614416565b60405180910390fd5b5f5f5f5f5f86806020019051810190610ea49190614b4f565b945094509450945094505f610eb8866126bb565b90505f4290505f8282610ecb9190614c63565b90506040518061016001604052808d81526020013373ffffffffffffffffffffffffffffffffffffffff168152602001896006811115610f0e57610f0d6133ed565b5b81526020018881526020018c8152602001878152602001838152602001828152602001610f3a8a61276c565b81526020015f151581526020015f151581525060025f8e81526020019081526020015f205f820151815f01556020820151816001015f6101000a81548173ffffffffffffffffffffffffffffffffffffffff021916908373ffffffffffffffffffffffffffffffffffffffff16021790555060408201518160010160146101000a81548160ff02191690836006811115610fd757610fd66133ed565b5b02179055506060820151816002019081610ff191906141ff565b50608082015181600301908161100791906141ff565b5060a082015181600401908161101d91906141ff565b5060c0820151816005015560e082015181600601556101008201518160070155610120820151816008015f6101000a81548160ff0219169083151502179055506101408201518160080160016101000a81548160ff0219169083151502179055509050506040518060c001604052805f81526020015f81526020015f81526020015f81526020016110ad8a6127e6565b81526020016110bb8a6128c4565b81525060035f8e81526020019081526020015f205f820151815f01556020820151816001015560408201518160020155606082015181600301556080820151816004015560a082015181600501559050505f855f01515111156111a0578460055f8e81526020019081526020015f205f820151815f019080519060200190611144929190612995565b506020820151816001019080519060200190611161929190612a1c565b50604082015181600201908051906020019061117e929190612a67565b50606082015181600301908051906020019061119b929190612abe565b509050505b5f5f1b845f01511461126f578360045f8e81526020019081526020015f205f820151815f015560208201518160010190816111db9190614cee565b5060408201518160020190805190602001906111f8929190612b15565b506060820151816003015f6101000a81548160ff021916908315150217905550608082015181600401908161122d91906141ff565b509050508b7f60383b9f22d47bf27e76d50142e9582ddd47e1b0b6975477150219b51b21ea7c855f015142604051611266929190614dbd565b60405180910390a25b3373ffffffffffffffffffffffffffffffffffffffff168c7fe5e40c160f3b9a59e91b766f139aa9c1aea545e7be1debf5b377c9c1a88b9a7984848f6040516112ba93929190614de4565b60405180910390a38760068111156112d5576112d46133ed565b5b3373ffffffffffffffffffffffffffffffffffffffff168d7f448a125bbf9294072a9d053676d3aaf5e507229e40a25b7efea025d97ab72f1d858560405161131e929190614e20565b60405180910390a48b985050505050505050509392505050565b6003602052805f5260405f205f91509050805f0154908060010154908060020154908060030154908060040154908060050154905086565b611378612b60565b60045f8381526020019081526020015f206040518060a00160405290815f82015481526020016001820180546113ad90614038565b80601f01602080910402602001604051908101604052809291908181526020018280546113d990614038565b80156114245780601f106113fb57610100808354040283529160200191611424565b820191905f5260205f20905b81548152906001019060200180831161140757829003601f168201915b505050505081526020016002820180548060200260200160405190810160405280929190818152602001828054801561147a57602002820191905f5260205f20905b815481526020019060010190808311611466575b50505050508152602001600382015f9054906101000a900460ff161515151581526020016004820180546114ad90614038565b80601f01602080910402602001604051908101604052809291908181526020018280546114d990614038565b80156115245780601f106114fb57610100808354040283529160200191611524565b820191905f5260205f20905b81548152906001019060200180831161150757829003601f168201915b5050505050815250509050919050565b5f815f5f1b60025f8381526020019081526020015f205f01540361158d576040517f08c379a000000000000000000000000000000000000000000000000000000000815260040161158490613daf565b60405180910390fd5b5f60025f8581526020019081526020015f2090508060080160019054906101000a900460ff16156115c2576002925050611748565b806008015f9054906101000a900460ff16156115e2576007925050611748565b80600501544210156115f7575f925050611748565b8060060154421161160c576001925050611748565b5f60035f8681526020019081526020015f2090505f7f000000000000000000000000000000000000000000000000000000000000000073ffffffffffffffffffffffffffffffffffffffff16631668dbc36040518163ffffffff1660e01b8152600401602060405180830381865afa15801561168a573d5f5f3e3d5ffd5b505050506040513d601f19601f820116820180604052508101906116ae9190614e47565b9050816004015481606484600301546116c79190614e72565b6116d19190614ee0565b10156116e35760039450505050611748565b5f8260010154835f01546116f79190614c63565b90505f810361170d576003955050505050611748565b8260050154816064855f01546117239190614e72565b61172d9190614ee0565b1061173f576004955050505050611748565b60039550505050505b50919050565b603381565b600181565b6006602052815f5260405f20602052805f5260405f205f915091509054906101000a900460ff1681565b5f7f000000000000000000000000000000000000000000000000000000000000000073ffffffffffffffffffffffffffffffffffffffff166371942a01336040518263ffffffff1660e01b81526004016117dc9190613c8f565b602060405180830381865afa1580156117f7573d5f5f3e3d5ffd5b505050506040513d601f19601f8201168201806040525081019061181b9190613cd2565b61185a576040517f08c379a000000000000000000000000000000000000000000000000000000000815260040161185190613d47565b60405180910390fd5b825f5f1b60025f8381526020019081526020015f205f0154036118b2576040517f08c379a00000000000000000000000000000000000000000000000000000000081526004016118a990613daf565b60405180910390fd5b5f60025f8681526020019081526020015f209050806005015442101561190d576040517f08c379a000000000000000000000000000000000000000000000000000000000815260040161190490614f5a565b60405180910390fd5b8060060154421115611954576040517f08c379a000000000000000000000000000000000000000000000000000000000815260040161194b90614fc2565b60405180910390fd5b60065f8681526020019081526020015f205f3373ffffffffffffffffffffffffffffffffffffffff1673ffffffffffffffffffffffffffffffffffffffff1681526020019081526020015f205f9054906101000a900460ff16156119ed576040517f08c379a00000000000000000000000000000000000000000000000000000000081526004016119e49061502a565b60405180910390fd5b60028460ff161115611a34576040517f08c379a0000000000000000000000000000000000000000000000000000000008152600401611a2b90615092565b60405180910390fd5b5f60019050600160065f8881526020019081526020015f205f3373ffffffffffffffffffffffffffffffffffffffff1673ffffffffffffffffffffffffffffffffffffffff1681526020019081526020015f205f6101000a81548160ff0219169083151502179055505f60035f8881526020019081526020015f20905060016002811115611ac557611ac46133ed565b5b60ff168660ff1603611aef5781815f015f828254611ae39190614c63565b92505081905550611b49565b5f6002811115611b0257611b016133ed565b5b60ff168660ff1603611b2d5781816001015f828254611b219190614c63565b92505081905550611b48565b81816002015f828254611b409190614c63565b925050819055505b5b81816003015f828254611b5c9190614c63565b92505081905550863373ffffffffffffffffffffffffffffffffffffffff167f94e4e69590623c0c3d93b01ee6b9d9857c775cc8c798683da66eadacb9c326448885604051611bac9291906150e2565b60405180910390a38560ff166002811115611bca57611bc96133ed565b5b6002811115611bdc57611bdb6133ed565b5b3373ffffffffffffffffffffffffffffffffffffffff16887f1fb9558e00fb6a5fdb304932bda143aa239f1a0d21374ce3449d350dae10be1c855f5f1b604051611c2792919061511c565b60405180910390a48194505050505092915050565b805f5f1b60025f8381526020019081526020015f205f015403611c94576040517f08c379a0000000000000000000000000000000000000000000000000000000008152600401611c8b90613daf565b60405180910390fd5b5f60025f8481526020019081526020015f209050806001015f9054906101000a900473ffffffffffffffffffffffffffffffffffffffff1673ffffffffffffffffffffffffffffffffffffffff163373ffffffffffffffffffffffffffffffffffffffff161480611d9957507f000000000000000000000000000000000000000000000000000000000000000073ffffffffffffffffffffffffffffffffffffffff166338287259336040518263ffffffff1660e01b8152600401611d599190613c8f565b602060405180830381865afa158015611d74573d5f5f3e3d5ffd5b505050506040513d601f19601f82011682018060405250810190611d989190613cd2565b5b611dd8576040517f08c379a0000000000000000000000000000000000000000000000000000000008152600401611dcf9061518d565b60405180910390fd5b806008015f9054906101000a900460ff1615611e29576040517f08c379a0000000000000000000000000000000000000000000000000000000008152600401611e20906151f5565b60405180910390fd5b60018160080160016101000a81548160ff021916908315150217905550505050565b7f000000000000000000000000000000000000000000000000000000000000000073ffffffffffffffffffffffffffffffffffffffff166338287259336040518263ffffffff1660e01b8152600401611ea49190613c8f565b602060405180830381865afa158015611ebf573d5f5f3e3d5ffd5b505050506040513d601f19601f82011682018060405250810190611ee39190613cd2565b611f22576040517f08c379a0000000000000000000000000000000000000000000000000000000008152600401611f199061525d565b60405180910390fd5b805f5f6101000a81548173ffffffffffffffffffffffffffffffffffffffff021916908373ffffffffffffffffffffffffffffffffffffffff16021790555050565b5f5f9054906101000a900473ffffffffffffffffffffffffffffffffffffffff1681565b7f000000000000000000000000000000000000000000000000000000000000000081565b805f5f1b60025f8381526020019081526020015f205f015403612004576040517f08c379a0000000000000000000000000000000000000000000000000000000008152600401611ffb90613daf565b60405180910390fd5b5f60025f8481526020019081526020015f2090506004600781111561202c5761202b6133ed565b5b61203584611534565b6007811115612047576120466133ed565b5b14612087576040517f08c379a000000000000000000000000000000000000000000000000000000000815260040161207e906152c5565b60405180910390fd5b806008015f9054906101000a900460ff16156120d8576040517f08c379a00000000000000000000000000000000000000000000000000000000081526004016120cf9061532d565b60405180910390fd5b806007015481600601546120ec9190614c63565b42101561212e576040517f08c379a000000000000000000000000000000000000000000000000000000000815260040161212590615395565b60405180910390fd5b6001816008015f6101000a81548160ff0219169083151502179055505f60055f8581526020019081526020015f2090505f5f90505b815f01805490508110156122a0575f825f018281548110612187576121866153b3565b5b905f5260205f20015f9054906101000a900473ffffffffffffffffffffffffffffffffffffffff1673ffffffffffffffffffffffffffffffffffffffff168360010183815481106121db576121da6153b3565b5b905f5260205f2001548460020184815481106121fa576121f96153b3565b5b905f5260205f200160405161220f919061546a565b5f6040518083038185875af1925050503d805f8114612249576040519150601f19603f3d011682016040523d82523d5f602084013e61224e565b606091505b5050905080612292576040517f08c379a0000000000000000000000000000000000000000000000000000000008152600401612289906154ca565b60405180910390fd5b508080600101915050612163565b50837f7b1bcf1ccf901a11589afff5504d59fd0a53780eed2a952adade0348985139e060405160405180910390a250505050565b6122dc612b8f565b6122e4612c0d565b60025f8481526020019081526020015f2060035f8581526020019081526020015f2081604051806101600160405290815f8201548152602001600182015f9054906101000a900473ffffffffffffffffffffffffffffffffffffffff1673ffffffffffffffffffffffffffffffffffffffff1673ffffffffffffffffffffffffffffffffffffffff1681526020016001820160149054906101000a900460ff166006811115612396576123956133ed565b5b60068111156123a8576123a76133ed565b5b81526020016002820180546123bc90614038565b80601f01602080910402602001604051908101604052809291908181526020018280546123e890614038565b80156124335780601f1061240a57610100808354040283529160200191612433565b820191905f5260205f20905b81548152906001019060200180831161241657829003601f168201915b5050505050815260200160038201805461244c90614038565b80601f016020809104026020016040519081016040528092919081815260200182805461247890614038565b80156124c35780601f1061249a576101008083540402835291602001916124c3565b820191905f5260205f20905b8154815290600101906020018083116124a657829003601f168201915b505050505081526020016004820180546124dc90614038565b80601f016020809104026020016040519081016040528092919081815260200182805461250890614038565b80156125535780601f1061252a57610100808354040283529160200191612553565b820191905f5260205f20905b81548152906001019060200180831161253657829003601f168201915b50505050508152602001600582015481526020016006820154815260200160078201548152602001600882015f9054906101000a900460ff161515151581526020016008820160019054906101000a900460ff1615151515815250509150806040518060c00160405290815f820154815260200160018201548152602001600282015481526020016003820154815260200160048201548152602001600582015481525050905091509150915091565b5f7f000000000000000000000000000000000000000000000000000000000000000073ffffffffffffffffffffffffffffffffffffffff16631668dbc36040518163ffffffff1660e01b8152600401602060405180830381865afa15801561266d573d5f5f3e3d5ffd5b505050506040513d601f19601f820116820180604052508101906126919190614e47565b905090565b60015f9054906101000a900473ffffffffffffffffffffffffffffffffffffffff1681565b5f6006808111156126cf576126ce6133ed565b5b8260068111156126e2576126e16133ed565b5b036126f25762093a809050612767565b60046006811115612706576127056133ed565b5b826006811115612719576127186133ed565b5b0361272957621275009050612767565b6001600681111561273d5761273c6133ed565b5b8260068111156127505761274f6133ed565b5b0361276057620697809050612767565b6203f48090505b919050565b5f6006808111156127805761277f6133ed565b5b826006811115612793576127926133ed565b5b036127a3576202a30090506127e1565b600460068111156127b7576127b66133ed565b5b8260068111156127ca576127c96133ed565b5b036127da5762093a8090506127e1565b6201518090505b919050565b5f6006808111156127fa576127f96133ed565b5b82600681111561280d5761280c6133ed565b5b0361281b57604390506128bf565b6004600681111561282f5761282e6133ed565b5b826006811115612842576128416133ed565b5b0361285057604b90506128bf565b60026006811115612864576128636133ed565b5b826006811115612877576128766133ed565b5b0361288557603c90506128bf565b60016006811115612899576128986133ed565b5b8260068111156128ac576128ab6133ed565b5b036128ba57603390506128bf565b603390505b919050565b5f6006808111156128d8576128d76133ed565b5b8260068111156128eb576128ea6133ed565b5b036128f95760439050612968565b6004600681111561290d5761290c6133ed565b5b8260068111156129205761291f6133ed565b5b0361292e57604b9050612968565b60026006811115612942576129416133ed565b5b826006811115612955576129546133ed565b5b0361296357603c9050612968565b603390505b919050565b6040518060800160405280606081526020016060815260200160608152602001606081525090565b828054828255905f5260205f20908101928215612a0b579160200282015b82811115612a0a578251825f6101000a81548173ffffffffffffffffffffffffffffffffffffffff021916908373ffffffffffffffffffffffffffffffffffffffff160217905550916020019190600101906129b3565b5b509050612a189190612c3d565b5090565b828054828255905f5260205f20908101928215612a56579160200282015b82811115612a55578251825591602001919060010190612a3a565b5b509050612a639190612c3d565b5090565b828054828255905f5260205f20908101928215612aad579160200282015b82811115612aac578251829081612a9c9190614cee565b5091602001919060010190612a85565b5b509050612aba9190612c58565b5090565b828054828255905f5260205f20908101928215612b04579160200282015b82811115612b03578251829081612af391906141ff565b5091602001919060010190612adc565b5b509050612b119190612c7b565b5090565b828054828255905f5260205f20908101928215612b4f579160200282015b82811115612b4e578251825591602001919060010190612b33565b5b509050612b5c9190612c9e565b5090565b6040518060a001604052805f815260200160608152602001606081526020015f15158152602001606081525090565b6040518061016001604052805f81526020015f73ffffffffffffffffffffffffffffffffffffffff1681526020015f6006811115612bd057612bcf6133ed565b5b81526020016060815260200160608152602001606081526020015f81526020015f81526020015f81526020015f151581526020015f151581525090565b6040518060c001604052805f81526020015f81526020015f81526020015f81526020015f81526020015f81525090565b5b80821115612c54575f815f905550600101612c3e565b5090565b5b80821115612c77575f8181612c6e9190612cb9565b50600101612c59565b5090565b5b80821115612c9a575f8181612c919190612cf6565b50600101612c7c565b5090565b5b80821115612cb5575f815f905550600101612c9f565b5090565b508054612cc590614038565b5f825580601f10612cd65750612cf3565b601f0160209004905f5260205f2090810190612cf29190612c3d565b5b50565b508054612d0290614038565b5f825580601f10612d135750612d30565b601f0160209004905f5260205f2090810190612d2f9190612c3d565b5b50565b5f604051905090565b5f5ffd5b5f5ffd5b5f819050919050565b612d5681612d44565b8114612d60575f5ffd5b50565b5f81359050612d7181612d4d565b92915050565b5f5ffd5b5f5ffd5b5f601f19601f8301169050919050565b7f4e487b71000000000000000000000000000000000000000000000000000000005f52604160045260245ffd5b612dc582612d7f565b810181811067ffffffffffffffff82111715612de457612de3612d8f565b5b80604052505050565b5f612df6612d33565b9050612e028282612dbc565b919050565b5f67ffffffffffffffff821115612e2157612e20612d8f565b5b612e2a82612d7f565b9050602081019050919050565b828183375f83830152505050565b5f612e57612e5284612e07565b612ded565b905082815260208101848484011115612e7357612e72612d7b565b5b612e7e848285612e37565b509392505050565b5f82601f830112612e9a57612e99612d77565b5b8135612eaa848260208601612e45565b91505092915050565b5f5f60408385031215612ec957612ec8612d3c565b5b5f612ed685828601612d63565b925050602083013567ffffffffffffffff811115612ef757612ef6612d40565b5b612f0385828601612e86565b9150509250929050565b5f60208284031215612f2257612f21612d3c565b5b5f612f2f84828501612d63565b91505092915050565b5f8115159050919050565b612f4c81612f38565b82525050565b5f602082019050612f655f830184612f43565b92915050565b5f81519050919050565b5f82825260208201905092915050565b5f819050602082019050919050565b5f73ffffffffffffffffffffffffffffffffffffffff82169050919050565b5f612fbd82612f94565b9050919050565b612fcd81612fb3565b82525050565b5f612fde8383612fc4565b60208301905092915050565b5f602082019050919050565b5f61300082612f6b565b61300a8185612f75565b935061301583612f85565b805f5b8381101561304557815161302c8882612fd3565b975061303783612fea565b925050600181019050613018565b5085935050505092915050565b5f81519050919050565b5f82825260208201905092915050565b5f819050602082019050919050565b5f819050919050565b61308d8161307b565b82525050565b5f61309e8383613084565b60208301905092915050565b5f602082019050919050565b5f6130c082613052565b6130ca818561305c565b93506130d58361306c565b805f5b838110156131055781516130ec8882613093565b97506130f7836130aa565b9250506001810190506130d8565b5085935050505092915050565b5f81519050919050565b5f82825260208201905092915050565b5f819050602082019050919050565b5f81519050919050565b5f82825260208201905092915050565b8281835e5f83830152505050565b5f61316d8261313b565b6131778185613145565b9350613187818560208601613155565b61319081612d7f565b840191505092915050565b5f6131a68383613163565b905092915050565b5f602082019050919050565b5f6131c482613112565b6131ce818561311c565b9350836020820285016131e08561312c565b805f5b8581101561321b57848403895281516131fc858261319b565b9450613207836131ae565b925060208a019950506001810190506131e3565b50829750879550505050505092915050565b5f81519050919050565b5f82825260208201905092915050565b5f819050602082019050919050565b5f81519050919050565b5f82825260208201905092915050565b5f61327a82613256565b6132848185613260565b9350613294818560208601613155565b61329d81612d7f565b840191505092915050565b5f6132b38383613270565b905092915050565b5f602082019050919050565b5f6132d18261322d565b6132db8185613237565b9350836020820285016132ed85613247565b805f5b85811015613328578484038952815161330985826132a8565b9450613314836132bb565b925060208a019950506001810190506132f0565b50829750879550505050505092915050565b5f608083015f8301518482035f8601526133548282612ff6565b9150506020830151848203602086015261336e82826130b6565b9150506040830151848203604086015261338882826131ba565b915050606083015184820360608601526133a282826132c7565b9150508091505092915050565b5f6020820190508181035f8301526133c7818461333a565b905092915050565b6133d881612d44565b82525050565b6133e781612fb3565b82525050565b7f4e487b71000000000000000000000000000000000000000000000000000000005f52602160045260245ffd5b6007811061342b5761342a6133ed565b5b50565b5f81905061343b8261341a565b919050565b5f61344a8261342e565b9050919050565b61345a81613440565b82525050565b5f82825260208201905092915050565b5f61347a82613256565b6134848185613460565b9350613494818560208601613155565b61349d81612d7f565b840191505092915050565b6134b18161307b565b82525050565b5f610160820190506134cb5f83018e6133cf565b6134d8602083018d6133de565b6134e5604083018c613451565b81810360608301526134f7818b613470565b9050818103608083015261350b818a613470565b905081810360a083015261351f8189613470565b905061352e60c08301886134a8565b61353b60e08301876134a8565b6135496101008301866134a8565b613557610120830185612f43565b613565610140830184612f43565b9c9b505050505050505050505050565b5f67ffffffffffffffff82111561358f5761358e612d8f565b5b61359882612d7f565b9050602081019050919050565b5f6135b76135b284613575565b612ded565b9050828152602081018484840111156135d3576135d2612d7b565b5b6135de848285612e37565b509392505050565b5f82601f8301126135fa576135f9612d77565b5b813561360a8482602086016135a5565b91505092915050565b5f5f5f6060848603121561362a57613629612d3c565b5b5f61363786828701612d63565b935050602084013567ffffffffffffffff81111561365857613657612d40565b5b61366486828701612e86565b925050604084013567ffffffffffffffff81111561368557613684612d40565b5b613691868287016135e6565b9150509250925092565b5f6020820190506136ae5f8301846133cf565b92915050565b5f60c0820190506136c75f8301896134a8565b6136d460208301886134a8565b6136e160408301876134a8565b6136ee60608301866134a8565b6136fb60808301856134a8565b61370860a08301846134a8565b979650505050505050565b61371c81612d44565b82525050565b5f81519050919050565b5f82825260208201905092915050565b5f819050602082019050919050565b5f6137568383613713565b60208301905092915050565b5f602082019050919050565b5f61377882613722565b613782818561372c565b935061378d8361373c565b805f5b838110156137bd5781516137a4888261374b565b97506137af83613762565b925050600181019050613790565b5085935050505092915050565b6137d381612f38565b82525050565b5f60a083015f8301516137ee5f860182613713565b50602083015184820360208601526138068282613163565b91505060408301518482036040860152613820828261376e565b915050606083015161383560608601826137ca565b506080830151848203608086015261384d8282613270565b9150508091505092915050565b5f6020820190508181035f83015261387281846137d9565b905092915050565b6008811061388b5761388a6133ed565b5b50565b5f81905061389b8261387a565b919050565b5f6138aa8261388e565b9050919050565b6138ba816138a0565b82525050565b5f6020820190506138d35f8301846138b1565b92915050565b5f6020820190506138ec5f8301846134a8565b92915050565b6138fb81612fb3565b8114613905575f5ffd5b50565b5f81359050613916816138f2565b92915050565b5f5f6040838503121561393257613931612d3c565b5b5f61393f85828601612d63565b925050602061395085828601613908565b9150509250929050565b5f60ff82169050919050565b61396f8161395a565b8114613979575f5ffd5b50565b5f8135905061398a81613966565b92915050565b5f5f604083850312156139a6576139a5612d3c565b5b5f6139b385828601612d63565b92505060206139c48582860161397c565b9150509250929050565b5f602082840312156139e3576139e2612d3c565b5b5f6139f084828501613908565b91505092915050565b5f819050919050565b5f613a1c613a17613a1284612f94565b6139f9565b612f94565b9050919050565b5f613a2d82613a02565b9050919050565b5f613a3e82613a23565b9050919050565b613a4e81613a34565b82525050565b5f602082019050613a675f830184613a45565b92915050565b5f613a7782613a23565b9050919050565b613a8781613a6d565b82525050565b5f602082019050613aa05f830184613a7e565b92915050565b613aaf81613440565b82525050565b5f61016083015f830151613acb5f860182613713565b506020830151613ade6020860182612fc4565b506040830151613af16040860182613aa6565b5060608301518482036060860152613b098282613270565b91505060808301518482036080860152613b238282613270565b91505060a083015184820360a0860152613b3d8282613270565b91505060c0830151613b5260c0860182613084565b5060e0830151613b6560e0860182613084565b50610100830151613b7a610100860182613084565b50610120830151613b8f6101208601826137ca565b50610140830151613ba46101408601826137ca565b508091505092915050565b60c082015f820151613bc35f850182613084565b506020820151613bd66020850182613084565b506040820151613be96040850182613084565b506060820151613bfc6060850182613084565b506080820151613c0f6080850182613084565b5060a0820151613c2260a0850182613084565b50505050565b5f60e0820190508181035f830152613c408185613ab5565b9050613c4f6020830184613baf565b9392505050565b5f613c6082613a23565b9050919050565b613c7081613c56565b82525050565b5f602082019050613c895f830184613c67565b92915050565b5f602082019050613ca25f8301846133de565b92915050565b613cb181612f38565b8114613cbb575f5ffd5b50565b5f81519050613ccc81613ca8565b92915050565b5f60208284031215613ce757613ce6612d3c565b5b5f613cf484828501613cbe565b91505092915050565b7f4e6f74206120626f617264206d656d62657200000000000000000000000000005f82015250565b5f613d31601283613460565b9150613d3c82613cfd565b602082019050919050565b5f6020820190508181035f830152613d5e81613d25565b9050919050565b7f50726f706f73616c20646f6573206e6f742065786973740000000000000000005f82015250565b5f613d99601783613460565b9150613da482613d65565b602082019050919050565b5f6020820190508181035f830152613dc681613d8d565b9050919050565b60088110613dd9575f5ffd5b50565b5f81519050613dea81613dcd565b92915050565b5f60208284031215613e0557613e04612d3c565b5b5f613e1284828501613ddc565b91505092915050565b7f50726f706f73616c206e6f7420657865637574656400000000000000000000005f82015250565b5f613e4f601583613460565b9150613e5a82613e1b565b602082019050919050565b5f6020820190508181035f830152613e7c81613e43565b9050919050565b7f4e6f20656e6372797074656420627564676574000000000000000000000000005f82015250565b5f613eb7601383613460565b9150613ec282613e83565b602082019050919050565b5f6020820190508181035f830152613ee481613eab565b9050919050565b7f416c7265616479206465637279707465640000000000000000000000000000005f82015250565b5f613f1f601183613460565b9150613f2a82613eeb565b602082019050919050565b5f6020820190508181035f830152613f4c81613f13565b9050919050565b5f81905092915050565b5f613f6782613256565b613f718185613f53565b9350613f81818560208601613155565b80840191505092915050565b5f613f988284613f5d565b915081905092915050565b7f496e76616c69642064656372797074696f6e00000000000000000000000000005f82015250565b5f613fd7601283613460565b9150613fe282613fa3565b602082019050919050565b5f6020820190508181035f83015261400481613fcb565b9050919050565b7f4e487b71000000000000000000000000000000000000000000000000000000005f52602260045260245ffd5b5f600282049050600182168061404f57607f821691505b6020821081036140625761406161400b565b5b50919050565b5f819050815f5260205f209050919050565b5f6020601f8301049050919050565b5f82821b905092915050565b5f600883026140c47fffffffffffffffffffffffffffffffffffffffffffffffffffffffffffffffff82614089565b6140ce8683614089565b95508019841693508086168417925050509392505050565b5f6141006140fb6140f68461307b565b6139f9565b61307b565b9050919050565b5f819050919050565b614119836140e6565b61412d61412582614107565b848454614095565b825550505050565b5f5f905090565b614144614135565b61414f818484614110565b505050565b5b81811015614172576141675f8261413c565b600181019050614155565b5050565b601f8211156141b75761418881614068565b6141918461407a565b810160208510156141a0578190505b6141b46141ac8561407a565b830182614154565b50505b505050565b5f82821c905092915050565b5f6141d75f19846008026141bc565b1980831691505092915050565b5f6141ef83836141c8565b9150826002028217905092915050565b61420882613256565b67ffffffffffffffff81111561422157614220612d8f565b5b61422b8254614038565b614236828285614176565b5f60209050601f831160018114614267575f8415614255578287015190505b61425f85826141e4565b8655506142c6565b601f19841661427586614068565b5f5b8281101561429c57848901518255600182019150602085019450602081019050614277565b868310156142b957848901516142b5601f8916826141c8565b8355505b6001600288020188555050505b505050505050565b5f6040820190508181035f8301526142e68185613470565b90506142f560208301846134a8565b9392505050565b7f496e76616c69642070726f706f73616c204944000000000000000000000000005f82015250565b5f614330601383613460565b915061433b826142fc565b602082019050919050565b5f6020820190508181035f83015261435d81614324565b9050919050565b7f50726f706f73616c20616c7265616479206578697374730000000000000000005f82015250565b5f614398601783613460565b91506143a382614364565b602082019050919050565b5f6020820190508181035f8301526143c58161438c565b9050919050565b7f456d707479206465736372697074696f6e0000000000000000000000000000005f82015250565b5f614400601183613460565b915061440b826143cc565b602082019050919050565b5f6020820190508181035f83015261442d816143f4565b9050919050565b60078110614440575f5ffd5b50565b5f8151905061445181614434565b92915050565b5f61446961446484612e07565b612ded565b90508281526020810184848401111561448557614484612d7b565b5b614490848285613155565b509392505050565b5f82601f8301126144ac576144ab612d77565b5b81516144bc848260208601614457565b91505092915050565b5f5ffd5b5f5ffd5b5f67ffffffffffffffff8211156144e7576144e6612d8f565b5b602082029050602081019050919050565b5f5ffd5b5f8151905061450a816138f2565b92915050565b5f61452261451d846144cd565b612ded565b90508083825260208201905060208402830185811115614545576145446144f8565b5b835b8181101561456e578061455a88826144fc565b845260208401935050602081019050614547565b5050509392505050565b5f82601f83011261458c5761458b612d77565b5b815161459c848260208601614510565b91505092915050565b5f67ffffffffffffffff8211156145bf576145be612d8f565b5b602082029050602081019050919050565b6145d98161307b565b81146145e3575f5ffd5b50565b5f815190506145f4816145d0565b92915050565b5f61460c614607846145a5565b612ded565b9050808382526020820190506020840283018581111561462f5761462e6144f8565b5b835b81811015614658578061464488826145e6565b845260208401935050602081019050614631565b5050509392505050565b5f82601f83011261467657614675612d77565b5b81516146868482602086016145fa565b91505092915050565b5f67ffffffffffffffff8211156146a9576146a8612d8f565b5b602082029050602081019050919050565b5f6146cc6146c784613575565b612ded565b9050828152602081018484840111156146e8576146e7612d7b565b5b6146f3848285613155565b509392505050565b5f82601f83011261470f5761470e612d77565b5b815161471f8482602086016146ba565b91505092915050565b5f61473a6147358461468f565b612ded565b9050808382526020820190506020840283018581111561475d5761475c6144f8565b5b835b818110156147a457805167ffffffffffffffff81111561478257614781612d77565b5b80860161478f89826146fb565b8552602085019450505060208101905061475f565b5050509392505050565b5f82601f8301126147c2576147c1612d77565b5b81516147d2848260208601614728565b91505092915050565b5f67ffffffffffffffff8211156147f5576147f4612d8f565b5b602082029050602081019050919050565b5f614818614813846147db565b612ded565b9050808382526020820190506020840283018581111561483b5761483a6144f8565b5b835b8181101561488257805167ffffffffffffffff8111156148605761485f612d77565b5b80860161486d8982614498565b8552602085019450505060208101905061483d565b5050509392505050565b5f82601f8301126148a05761489f612d77565b5b81516148b0848260208601614806565b91505092915050565b5f608082840312156148ce576148cd6144c5565b5b6148d86080612ded565b90505f82015167ffffffffffffffff8111156148f7576148f66144c9565b5b61490384828501614578565b5f83015250602082015167ffffffffffffffff811115614926576149256144c9565b5b61493284828501614662565b602083015250604082015167ffffffffffffffff811115614956576149556144c9565b5b614962848285016147ae565b604083015250606082015167ffffffffffffffff811115614986576149856144c9565b5b6149928482850161488c565b60608301525092915050565b5f815190506149ac81612d4d565b92915050565b5f67ffffffffffffffff8211156149cc576149cb612d8f565b5b602082029050602081019050919050565b5f6149ef6149ea846149b2565b612ded565b90508083825260208201905060208402830185811115614a1257614a116144f8565b5b835b81811015614a3b5780614a27888261499e565b845260208401935050602081019050614a14565b5050509392505050565b5f82601f830112614a5957614a58612d77565b5b8151614a698482602086016149dd565b91505092915050565b5f60a08284031215614a8757614a866144c5565b5b614a9160a0612ded565b90505f614aa08482850161499e565b5f83015250602082015167ffffffffffffffff811115614ac357614ac26144c9565b5b614acf848285016146fb565b602083015250604082015167ffffffffffffffff811115614af357614af26144c9565b5b614aff84828501614a45565b6040830152506060614b1384828501613cbe565b606083015250608082015167ffffffffffffffff811115614b3757614b366144c9565b5b614b4384828501614498565b60808301525092915050565b5f5f5f5f5f60a08688031215614b6857614b67612d3c565b5b5f614b7588828901614443565b955050602086015167ffffffffffffffff811115614b9657614b95612d40565b5b614ba288828901614498565b945050604086015167ffffffffffffffff811115614bc357614bc2612d40565b5b614bcf88828901614498565b935050606086015167ffffffffffffffff811115614bf057614bef612d40565b5b614bfc888289016148b9565b925050608086015167ffffffffffffffff811115614c1d57614c1c612d40565b5b614c2988828901614a72565b9150509295509295909350565b7f4e487b71000000000000000000000000000000000000000000000000000000005f52601160045260245ffd5b5f614c6d8261307b565b9150614c788361307b565b9250828201905080821115614c9057614c8f614c36565b5b92915050565b5f819050815f5260205f209050919050565b601f821115614ce957614cba81614c96565b614cc38461407a565b81016020851015614cd2578190505b614ce6614cde8561407a565b830182614154565b50505b505050565b614cf78261313b565b67ffffffffffffffff811115614d1057614d0f612d8f565b5b614d1a8254614038565b614d25828285614ca8565b5f60209050601f831160018114614d56575f8415614d44578287015190505b614d4e85826141e4565b865550614db5565b601f198416614d6486614c96565b5f5b82811015614d8b57848901518255600182019150602085019450602081019050614d66565b86831015614da85784890151614da4601f8916826141c8565b8355505b6001600288020188555050505b505050505050565b5f604082019050614dd05f8301856133cf565b614ddd60208301846134a8565b9392505050565b5f606082019050614df75f8301866134a8565b614e0460208301856134a8565b8181036040830152614e168184613470565b9050949350505050565b5f604082019050614e335f8301856134a8565b614e4060208301846134a8565b9392505050565b5f60208284031215614e5c57614e5b612d3c565b5b5f614e69848285016145e6565b91505092915050565b5f614e7c8261307b565b9150614e878361307b565b9250828202614e958161307b565b91508282048414831517614eac57614eab614c36565b5b5092915050565b7f4e487b71000000000000000000000000000000000000000000000000000000005f52601260045260245ffd5b5f614eea8261307b565b9150614ef58361307b565b925082614f0557614f04614eb3565b5b828204905092915050565b7f566f74696e67206e6f74207374617274656400000000000000000000000000005f82015250565b5f614f44601283613460565b9150614f4f82614f10565b602082019050919050565b5f6020820190508181035f830152614f7181614f38565b9050919050565b7f566f74696e6720656e64656400000000000000000000000000000000000000005f82015250565b5f614fac600c83613460565b9150614fb782614f78565b602082019050919050565b5f6020820190508181035f830152614fd981614fa0565b9050919050565b7f416c726561647920766f746564000000000000000000000000000000000000005f82015250565b5f615014600d83613460565b915061501f82614fe0565b602082019050919050565b5f6020820190508181035f83015261504181615008565b9050919050565b7f496e76616c696420766f746520747970650000000000000000000000000000005f82015250565b5f61507c601183613460565b915061508782615048565b602082019050919050565b5f6020820190508181035f8301526150a981615070565b9050919050565b6150b98161395a565b82525050565b50565b5f6150cd5f83613460565b91506150d8826150bf565b5f82019050919050565b5f6060820190506150f55f8301856150b0565b61510260208301846134a8565b8181036040830152615113816150c2565b90509392505050565b5f60408201905061512f5f8301856134a8565b61513c60208301846133cf565b9392505050565b7f4e6f7420617574686f72697a656420746f2063616e63656c00000000000000005f82015250565b5f615177601883613460565b915061518282615143565b602082019050919050565b5f6020820190508181035f8301526151a48161516b565b9050919050565b7f43616e6e6f742063616e63656c2065786563757465642070726f706f73616c005f82015250565b5f6151df601f83613460565b91506151ea826151ab565b602082019050919050565b5f6020820190508181035f83015261520c816151d3565b9050919050565b7f4f6e6c792063686169726d616e2063616e2073657420766572696669657200005f82015250565b5f615247601e83613460565b915061525282615213565b602082019050919050565b5f6020820190508181035f8301526152748161523b565b9050919050565b7f50726f706f73616c206e6f7420726561647920666f7220657865637574696f6e5f82015250565b5f6152af602083613460565b91506152ba8261527b565b602082019050919050565b5f6020820190508181035f8301526152dc816152a3565b9050919050565b7f416c7265616479206578656375746564000000000000000000000000000000005f82015250565b5f615317601083613460565b9150615322826152e3565b602082019050919050565b5f6020820190508181035f8301526153448161530b565b9050919050565b7f457865637574696f6e2064656c6179206e6f74206d65740000000000000000005f82015250565b5f61537f601783613460565b915061538a8261534b565b602082019050919050565b5f6020820190508181035f8301526153ac81615373565b9050919050565b7f4e487b71000000000000000000000000000000000000000000000000000000005f52603260045260245ffd5b5f81905092915050565b5f81546153f681614038565b61540081866153e0565b9450600182165f811461541a576001811461542f57615461565b60ff1983168652811515820286019350615461565b61543885614c96565b5f5b838110156154595781548189015260018201915060208101905061543a565b838801955050505b50505092915050565b5f61547582846153ea565b915081905092915050565b7f457865637574696f6e206661696c6564000000000000000000000000000000005f82015250565b5f6154b4601083613460565b91506154bf82615480565b602082019050919050565b5f6020820190508181035f8301526154e1816154a8565b905091905056fea2646970667358221220f5cf8df5284d9c4d29d2a01d49c38ffe364928cc2bfbb165512a36dcef6181d464736f6c634300081e0033","linkReferences":{}},"methodIdentifiers":{"DEFAULT_QUORUM()":"9a341b9f","PROPOSAL_THRESHOLD()":"a6c26603","boardManagement()":"ddede501","cancel(bytes32)":"c4d252f5","castVote(bytes32,uint8)":"b4b0713e","decryptBudget(bytes32,string)":"1fb58691","execute(bytes32)":"e751f271","getBoardVotingPower()":"eccc8f5f","getEncryptedBudget(bytes32)":"40f197d5","getProposalActions(bytes32)":"247f6094","getProposalDetails(bytes32)":"e801134c","governanceToken()":"f96dae0a","hasVoted(bytes32,address)":"aadc3b72","proposals(bytes32)":"32ed5b12","propose(bytes32,string,bytes)":"3950518c","setZKVerifier(address)":"c5090346","state(bytes32)":"61d585da","usedNullifiers(bytes32)":"206137aa","votingResults(bytes32)":"3c8f2dae","zkVerifier()":"d6df096d"},"id":16}