{"abi":[{"type":"constructor","inputs":[],"stateMutability":"nonpayable"},{"type":"function","name":"CLOCK_MODE","inputs":[],"outputs":[{"name":"","type":"string","internalType":"string"}],"stateMutability":"view"},{"type":"function","name":"DOMAIN_SEPARATOR","inputs":[],"outputs":[{"name":"","type":"bytes32","internalType":"bytes32"}],"stateMutability":"view"},{"type":"function","name":"allowance","inputs":[{"name":"owner","type":"address","internalType":"address"},{"name":"spender","type":"address","internalType":"address"}],"outputs":[{"name":"","type":"uint256","internalType":"uint256"}],"stateMutability":"view"},{"type":"function","name":"approve","inputs":[{"name":"spender","type":"address","internalType":"address"},{"name":"value","type":"uint256","internalType":"uint256"}],"outputs":[{"name":"","type":"bool","internalType":"bool"}],"stateMutability":"nonpayable"},{"type":"function","name":"balanceOf","inputs":[{"name":"account","type":"address","internalType":"address"}],"outputs":[{"name":"","type":"uint256","internalType":"uint256"}],"stateMutability":"view"},{"type":"function","name":"checkpoints","inputs":[{"name":"account","type":"address","internalType":"address"},{"name":"pos","type":"uint32","internalType":"uint32"}],"outputs":[{"name":"","type":"tuple","internalType":"struct Checkpoints.Checkpoint208","components":[{"name":"_key","type":"uint48","internalType":"uint48"},{"name":"_value","type":"uint208","internalType":"uint208"}]}],"stateMutability":"view"},{"type":"function","name":"clock","inputs":[],"outputs":[{"name":"","type":"uint48","internalType":"uint48"}],"stateMutability":"view"},{"type":"function","name":"decimals","inputs":[],"outputs":[{"name":"","type":"uint8","internalType":"uint8"}],"stateMutability":"view"},{"type":"function","name":"delegate","inputs":[{"name":"delegatee","type":"address","internalType":"address"}],"outputs":[],"stateMutability":"nonpayable"},{"type":"function","name":"delegateBySig","inputs":[{"name":"delegatee","type":"address","internalType":"address"},{"name":"nonce","type":"uint256","internalType":"uint256"},{"name":"expiry","type":"uint256","internalType":"uint256"},{"name":"v","type":"uint8","internalType":"uint8"},{"name":"r","type":"bytes32","internalType":"bytes32"},{"name":"s","type":"bytes32","internalType":"bytes32"}],"outputs":[],"stateMutability":"nonpayable"},{"type":"function","name":"delegates","inputs":[{"name":"account","type":"address","internalType":"address"}],"outputs":[{"name":"","type":"address","internalType":"address"}],"stateMutability":"view"},{"type":"function","name":"eip712Domain","inputs":[],"outputs":[{"name":"fields","type":"bytes1","internalType":"bytes1"},{"name":"name","type":"string","internalType":"string"},{"name":"version","type":"string","internalType":"string"},{"name":"chainId","type":"uint256","internalType":"uint256"},{"name":"verifyingContract","type":"address","internalType":"address"},{"name":"salt","type":"bytes32","internalType":"bytes32"},{"name":"extensions","type":"uint256[]","internalType":"uint256[]"}],"stateMutability":"view"},{"type":"function","name":"getPastTotalSupply","inputs":[{"name":"timepoint","type":"uint256","internalType":"uint256"}],"outputs":[{"name":"","type":"uint256","internalType":"uint256"}],"stateMutability":"view"},{"type":"function","name":"getPastVotes","inputs":[{"name":"account","type":"address","internalType":"address"},{"name":"timepoint","type":"uint256","internalType":"uint256"}],"outputs":[{"name":"","type":"uint256","internalType":"uint256"}],"stateMutability":"view"},{"type":"function","name":"getVotes","inputs":[{"name":"account","type":"address","internalType":"address"}],"outputs":[{"name":"","type":"uint256","internalType":"uint256"}],"stateMutability":"view"},{"type":"function","name":"mint","inputs":[{"name":"to","type":"address","internalType":"address"},{"name":"amount","type":"uint256","internalType":"uint256"}],"outputs":[],"stateMutability":"nonpayable"},{"type":"function","name":"name","inputs":[],"outputs":[{"name":"","type":"string","internalType":"string"}],"stateMutability":"view"},{"type":"function","name":"nonces","inputs":[{"name":"owner","type":"address","internalType":"address"}],"outputs":[{"name":"","type":"uint256","internalType":"uint256"}],"stateMutability":"view"},{"type":"function","name":"numCheckpoints","inputs":[{"name":"account","type":"address","internalType":"address"}],"outputs":[{"name":"","type":"uint32","internalType":"uint32"}],"stateMutability":"view"},{"type":"function","name":"owner","inputs":[],"outputs":[{"name":"","type":"address","internalType":"address"}],"stateMutability":"view"},{"type":"function","name":"permit","inputs":[{"name":"owner","type":"address","internalType":"address"},{"name":"spender","type":"address","internalType":"address"},{"name":"value","type":"uint256","internalType":"uint256"},{"name":"deadline","type":"uint256","internalType":"uint256"},{"name":"v","type":"uint8","internalType":"uint8"},{"name":"r","type":"bytes32","internalType":"bytes32"},{"name":"s","type":"bytes32","internalType":"bytes32"}],"outputs":[],"stateMutability":"nonpayable"},{"type":"function","name":"renounceOwnership","inputs":[],"outputs":[],"stateMutability":"nonpayable"},{"type":"function","name":"symbol","inputs":[],"outputs":[{"name":"","type":"string","internalType":"string"}],"stateMutability":"view"},{"type":"function","name":"totalSupply","inputs":[],"outputs":[{"name":"","type":"uint256","internalType":"uint256"}],"stateMutability":"view"},{"type":"function","name":"transfer","inputs":[{"name":"to","type":"address","internalType":"address"},{"name":"value","type":"uint256","internalType":"uint256"}],"outputs":[{"name":"","type":"bool","internalType":"bool"}],"stateMutability":"nonpayable"},{"type":"function","name":"transferFrom","inputs":[{"name":"from","type":"address","internalType":"address"},{"name":"to","type":"address","internalType":"address"},{"name":"value","type":"uint256","internalType":"uint256"}],"outputs":[{"name":"","type":"bool","internalType":"bool"}],"stateMutability":"nonpayable"},{"type":"function","name":"transferOwnership","inputs":[{"name":"newOwner","type":"address","internalType":"address"}],"outputs":[],"stateMutability":"nonpayable"},{"type":"event","name":"Approval","inputs":[{"name":"owner","type":"address","indexed":true,"internalType":"address"},{"name":"spender","type":"address","indexed":true,"internalType":"address"},{"name":"value","type":"uint256","indexed":false,"internalType":"uint256"}],"anonymous":false},{"type":"event","name":"DelegateChanged","inputs":[{"name":"delegator","type":"address","indexed":true,"internalType":"address"},{"name":"fromDelegate","type":"address","indexed":true,"internalType":"address"},{"name":"toDelegate","type":"address","indexed":true,"internalType":"address"}],"anonymous":false},{"type":"event","name":"DelegateVotesChanged","inputs":[{"name":"delegate","type":"address","indexed":true,"internalType":"address"},{"name":"previousVotes","type":"uint256","indexed":false,"internalType":"uint256"},{"name":"newVotes","type":"uint256","indexed":false,"internalType":"uint256"}],"anonymous":false},{"type":"event","name":"EIP712DomainChanged","inputs":[],"anonymous":false},{"type":"event","name":"OwnershipTransferred","inputs":[{"name":"previousOwner","type":"address","indexed":true,"internalType":"address"},{"name":"newOwner","type":"address","indexed":true,"internalType":"address"}],"anonymous":false},{"type":"event","name":"Transfer","inputs":[{"name":"from","type":"address","indexed":true,"internalType":"address"},{"name":"to","type":"address","indexed":true,"internalType":"address"},{"name":"value","type":"uint256","indexed":false,"internalType":"uint256"}],"anonymous":false},{"type":"error","name":"CheckpointUnorderedInsertion","inputs":[]},{"type":"error","name":"ECDSAInvalidSignature","inputs":[]},{"type":"error","name":"ECDSAInvalidSignatureLength","inputs":[{"name":"length","type":"uint256","internalType":"uint256"}]},{"type":"error","name":"ECDSAInvalidSignatureS","inputs":[{"name":"s","type":"bytes32","internalType":"bytes32"}]},{"type":"error","name":"ERC20ExceededSafeSupply","inputs":[{"name":"increasedSupply","type":"uint256","internalType":"uint256"},{"name":"cap","type":"uint256","internalType":"uint256"}]},{"type":"error","name":"ERC20InsufficientAllowance","inputs":[{"name":"spender","type":"address","internalType":"address"},{"name":"allowance","type":"uint256","internalType":"uint256"},{"name":"needed","type":"uint256","internalType":"uint256"}]},{"type":"error","name":"ERC20InsufficientBalance","inputs":[{"name":"sender","type":"address","internalType":"address"},{"name":"balance","type":"uint256","internalType":"uint256"},{"name":"needed","type":"uint256","internalType":"uint256"}]},{"type":"error","name":"ERC20InvalidApprover","inputs":[{"name":"approver","type":"address","internalType":"address"}]},{"type":"error","name":"ERC20InvalidReceiver","inputs":[{"name":"receiver","type":"address","internalType":"address"}]},{"type":"error","name":"ERC20InvalidSender","inputs":[{"name":"sender","type":"address","internalType":"address"}]},{"type":"error","name":"ERC20InvalidSpender","inputs":[{"name":"spender","type":"address","internalType":"address"}]},{"type":"error","name":"ERC2612ExpiredSignature","inputs":[{"name":"deadline","type":"uint256","internalType":"uint256"}]},{"type":"error","name":"ERC2612InvalidSigner","inputs":[{"name":"signer","type":"address","internalType":"address"},{"name":"owner","type":"address","internalType":"address"}]},{"type":"error","name":"ERC5805FutureLookup","inputs":[{"name":"timepoint","type":"uint256","internalType":"uint256"},{"name":"clock","type":"uint48","internalType":"uint48"}]},{"type":"error","name":"ERC6372InconsistentClock","inputs":[]},{"type":"error","name":"InvalidAccountNonce","inputs":[{"name":"account","type":"address","internalType":"address"},{"name":"currentNonce","type":"uint256","internalType":"uint256"}]},{"type":"error","name":"InvalidShortString","inputs":[]},{"type":"error","name":"OwnableInvalidOwner","inputs":[{"name":"owner","type":"address","internalType":"address"}]},{"type":"error","name":"OwnableUnauthorizedAccount","inputs":[{"name":"account","type":"address","internalType":"address"}]},{"type":"error","name":"SafeCastOverflowedUintDowncast","inputs":[{"name":"bits","type":"uint8","internalType":"uint8"},{"name":"value","type":"uint256","internalType":"uint256"}]},{"type":"error","name":"StringTooLong","inputs":[{"name":"str","type":"string","internalType":"string"}]},{"type":"error","name":"VotesExpiredSignature","inputs":[{"name":"expiry","type":"uint256","internalType":"uint256"}]}],"bytecode":{"object":"0x610160604052348015610010575f5ffd5b50336040518060400160405280601a81526020017f426f617264726f6f6d20476f7665726e616e636520546f6b656e000000000000815250806040518060400160405280600181526020017f31000000000000000000000000000000000000000000000000000000000000008152506040518060400160405280601a81526020017f426f617264726f6f6d20476f7665726e616e636520546f6b656e0000000000008152506040518060400160405280600381526020017f424754000000000000000000000000000000000000000000000000000000000081525081600390816100fa91906112f3565b50806004908161010a91906112f3565b50505061012160058361025760201b90919060201c565b610120818152505061013d60068261025760201b90919060201c565b6101408181525050818051906020012060e08181525050808051906020012061010081815250504660a0818152505061017a6102a460201b60201c565b608081815250503073ffffffffffffffffffffffffffffffffffffffff1660c08173ffffffffffffffffffffffffffffffffffffffff16815250505050505f73ffffffffffffffffffffffffffffffffffffffff168173ffffffffffffffffffffffffffffffffffffffff1603610228575f6040517f1e4fbdf700000000000000000000000000000000000000000000000000000000815260040161021f9190611401565b60405180910390fd5b610237816102fe60201b60201c565b506102523369d3c21bcecceda10000006103c160201b60201c565b61183e565b5f602083511015610278576102718361044660201b60201c565b905061029e565b82610288836104ab60201b60201c565b5f01908161029691906112f3565b5060ff5f1b90505b92915050565b5f7f8b73c3c69bb8fe3d512ecc4cf759cc79239f7b179b0ffacaa9a75d522b39400f60e0516101005146306040516020016102e3959493929190611441565b60405160208183030381529060405280519060200120905090565b5f600b5f9054906101000a900473ffffffffffffffffffffffffffffffffffffffff16905081600b5f6101000a81548173ffffffffffffffffffffffffffffffffffffffff021916908373ffffffffffffffffffffffffffffffffffffffff1602179055508173ffffffffffffffffffffffffffffffffffffffff168173ffffffffffffffffffffffffffffffffffffffff167f8be0079c531659141344cd1fd0a4f28419497f9722a3daafe3b4186f6b6457e060405160405180910390a35050565b5f73ffffffffffffffffffffffffffffffffffffffff168273ffffffffffffffffffffffffffffffffffffffff1603610431575f6040517fec442f050000000000000000000000000000000000000000000000000000000081526004016104289190611401565b60405180910390fd5b6104425f83836104b460201b60201c565b5050565b5f5f829050601f8151111561049257826040517f305a27a900000000000000000000000000000000000000000000000000000000815260040161048991906114f8565b60405180910390fd5b80518161049e90611545565b5f1c175f1b915050919050565b5f819050919050565b6104c58383836104ca60201b60201c565b505050565b6104db83838361059060201b60201c565b5f73ffffffffffffffffffffffffffffffffffffffff168373ffffffffffffffffffffffffffffffffffffffff160361057a575f61051d6107a960201b60201c565b90505f61052e6107b260201b60201c565b9050808211156105775781816040517f1cb15d2600000000000000000000000000000000000000000000000000000000815260040161056e9291906115ab565b60405180910390fd5b50505b61058b8383836107d560201b60201c565b505050565b5f73ffffffffffffffffffffffffffffffffffffffff168373ffffffffffffffffffffffffffffffffffffffff16036105e0578060025f8282546105d491906115ff565b925050819055506106ae565b5f5f5f8573ffffffffffffffffffffffffffffffffffffffff1673ffffffffffffffffffffffffffffffffffffffff1681526020019081526020015f2054905081811015610669578381836040517fe450d38c00000000000000000000000000000000000000000000000000000000815260040161066093929190611632565b60405180910390fd5b8181035f5f8673ffffffffffffffffffffffffffffffffffffffff1673ffffffffffffffffffffffffffffffffffffffff1681526020019081526020015f2081905550505b5f73ffffffffffffffffffffffffffffffffffffffff168273ffffffffffffffffffffffffffffffffffffffff16036106f5578060025f828254039250508190555061073f565b805f5f8473ffffffffffffffffffffffffffffffffffffffff1673ffffffffffffffffffffffffffffffffffffffff1681526020019081526020015f205f82825401925050819055505b8173ffffffffffffffffffffffffffffffffffffffff168373ffffffffffffffffffffffffffffffffffffffff167fddf252ad1be2c89b69c2b068fc378daa952ba7f163c4a11628f55a4df523b3ef8360405161079c9190611667565b60405180910390a3505050565b5f600254905090565b5f79ffffffffffffffffffffffffffffffffffffffffffffffffffff8016905090565b5f73ffffffffffffffffffffffffffffffffffffffff168373ffffffffffffffffffffffffffffffffffffffff160361083457610831600a6108c560201b610e1217610826846108da60201b60201c565b61094760201b60201c565b50505b5f73ffffffffffffffffffffffffffffffffffffffff168273ffffffffffffffffffffffffffffffffffffffff160361089357610890600a61098f60201b610e2717610885846108da60201b60201c565b61094760201b60201c565b50505b6108c06108a5846109a460201b60201c565b6108b4846109a460201b60201c565b83610a0960201b60201c565b505050565b5f81836108d291906116a5565b905092915050565b5f79ffffffffffffffffffffffffffffffffffffffffffffffffffff801682111561093f5760d0826040517f6dfcc650000000000000000000000000000000000000000000000000000000008152600401610936929190611737565b60405180910390fd5b819050919050565b5f5f61098361095a610c9f60201b60201c565b61097361096c88610cb360201b60201c565b868860201c565b87610d1b60201b9092919060201c565b91509150935093915050565b5f818361099c919061175e565b905092915050565b5f60085f8373ffffffffffffffffffffffffffffffffffffffff1673ffffffffffffffffffffffffffffffffffffffff1681526020019081526020015f205f9054906101000a900473ffffffffffffffffffffffffffffffffffffffff169050919050565b8173ffffffffffffffffffffffffffffffffffffffff168373ffffffffffffffffffffffffffffffffffffffff1614158015610a4457505f81115b15610c9a575f73ffffffffffffffffffffffffffffffffffffffff168373ffffffffffffffffffffffffffffffffffffffff1614610b71575f5f610ae260095f8773ffffffffffffffffffffffffffffffffffffffff1673ffffffffffffffffffffffffffffffffffffffff1681526020019081526020015f2061098f60201b610e2717610ad7866108da60201b60201c565b61094760201b60201c565b79ffffffffffffffffffffffffffffffffffffffffffffffffffff16915079ffffffffffffffffffffffffffffffffffffffffffffffffffff1691508473ffffffffffffffffffffffffffffffffffffffff167fdec2bacdd2f05b59de34da9b523dff8be42e5e38e818c82fdb0bae774387a7248383604051610b669291906115ab565b60405180910390a250505b5f73ffffffffffffffffffffffffffffffffffffffff168273ffffffffffffffffffffffffffffffffffffffff1614610c99575f5f610c0a60095f8673ffffffffffffffffffffffffffffffffffffffff1673ffffffffffffffffffffffffffffffffffffffff1681526020019081526020015f206108c560201b610e1217610bff866108da60201b60201c565b61094760201b60201c565b79ffffffffffffffffffffffffffffffffffffffffffffffffffff16915079ffffffffffffffffffffffffffffffffffffffffffffffffffff1691508373ffffffffffffffffffffffffffffffffffffffff167fdec2bacdd2f05b59de34da9b523dff8be42e5e38e818c82fdb0bae774387a7248383604051610c8e9291906115ab565b60405180910390a250505b5b505050565b5f610cae610d3c60201b60201c565b905090565b5f5f825f018054905090505f8114610d1157610ce3835f01600183610cd891906117ab565b610d5160201b60201c565b5f0160069054906101000a900479ffffffffffffffffffffffffffffffffffffffffffffffffffff16610d13565b5f5b915050919050565b5f5f610d30855f018585610d6360201b60201c565b91509150935093915050565b5f610d4c4361105d60201b60201c565b905090565b5f825f528160205f2001905092915050565b5f5f5f858054905090505f811115610f75575f610d9287600184610d8791906117ab565b610d5160201b60201c565b90505f815f015f9054906101000a900465ffffffffffff1690505f825f0160069054906101000a900479ffffffffffffffffffffffffffffffffffffffffffffffffffff1690508765ffffffffffff168265ffffffffffff161115610e23576040517f2520601d00000000000000000000000000000000000000000000000000000000815260040160405180910390fd5b8765ffffffffffff168265ffffffffffff1603610e8d5786835f0160066101000a81548179ffffffffffffffffffffffffffffffffffffffffffffffffffff021916908379ffffffffffffffffffffffffffffffffffffffffffffffffffff160217905550610f66565b8860405180604001604052808a65ffffffffffff1681526020018979ffffffffffffffffffffffffffffffffffffffffffffffffffff16815250908060018154018082558091505060019003905f5260205f20015f909190919091505f820151815f015f6101000a81548165ffffffffffff021916908365ffffffffffff1602179055506020820151815f0160066101000a81548179ffffffffffffffffffffffffffffffffffffffffffffffffffff021916908379ffffffffffffffffffffffffffffffffffffffffffffffffffff16021790555050505b80879550955050505050611055565b8560405180604001604052808765ffffffffffff1681526020018679ffffffffffffffffffffffffffffffffffffffffffffffffffff16815250908060018154018082558091505060019003905f5260205f20015f909190919091505f820151815f015f6101000a81548165ffffffffffff021916908365ffffffffffff1602179055506020820151815f0160066101000a81548179ffffffffffffffffffffffffffffffffffffffffffffffffffff021916908379ffffffffffffffffffffffffffffffffffffffffffffffffffff16021790555050505f8492509250505b935093915050565b5f65ffffffffffff80168211156110ae576030826040517f6dfcc6500000000000000000000000000000000000000000000000000000000081526004016110a5929190611817565b60405180910390fd5b819050919050565b5f81519050919050565b7f4e487b71000000000000000000000000000000000000000000000000000000005f52604160045260245ffd5b7f4e487b71000000000000000000000000000000000000000000000000000000005f52602260045260245ffd5b5f600282049050600182168061113157607f821691505b602082108103611144576111436110ed565b5b50919050565b5f819050815f5260205f209050919050565b5f6020601f8301049050919050565b5f82821b905092915050565b5f600883026111a67fffffffffffffffffffffffffffffffffffffffffffffffffffffffffffffffff8261116b565b6111b0868361116b565b95508019841693508086168417925050509392505050565b5f819050919050565b5f819050919050565b5f6111f46111ef6111ea846111c8565b6111d1565b6111c8565b9050919050565b5f819050919050565b61120d836111da565b611221611219826111fb565b848454611177565b825550505050565b5f5f905090565b611238611229565b611243818484611204565b505050565b5b818110156112665761125b5f82611230565b600181019050611249565b5050565b601f8211156112ab5761127c8161114a565b6112858461115c565b81016020851015611294578190505b6112a86112a08561115c565b830182611248565b50505b505050565b5f82821c905092915050565b5f6112cb5f19846008026112b0565b1980831691505092915050565b5f6112e383836112bc565b9150826002028217905092915050565b6112fc826110b6565b67ffffffffffffffff811115611315576113146110c0565b5b61131f825461111a565b61132a82828561126a565b5f60209050601f83116001811461135b575f8415611349578287015190505b61135385826112d8565b8655506113ba565b601f1984166113698661114a565b5f5b828110156113905784890151825560018201915060208501945060208101905061136b565b868310156113ad57848901516113a9601f8916826112bc565b8355505b6001600288020188555050505b505050505050565b5f73ffffffffffffffffffffffffffffffffffffffff82169050919050565b5f6113eb826113c2565b9050919050565b6113fb816113e1565b82525050565b5f6020820190506114145f8301846113f2565b92915050565b5f819050919050565b61142c8161141a565b82525050565b61143b816111c8565b82525050565b5f60a0820190506114545f830188611423565b6114616020830187611423565b61146e6040830186611423565b61147b6060830185611432565b61148860808301846113f2565b9695505050505050565b5f82825260208201905092915050565b8281835e5f83830152505050565b5f601f19601f8301169050919050565b5f6114ca826110b6565b6114d48185611492565b93506114e48185602086016114a2565b6114ed816114b0565b840191505092915050565b5f6020820190508181035f83015261151081846114c0565b905092915050565b5f81519050919050565b5f819050602082019050919050565b5f61153c825161141a565b80915050919050565b5f61154f82611518565b8261155984611522565b905061156481611531565b925060208210156115a45761159f7fffffffffffffffffffffffffffffffffffffffffffffffffffffffffffffffff8360200360080261116b565b831692505b5050919050565b5f6040820190506115be5f830185611432565b6115cb6020830184611432565b9392505050565b7f4e487b71000000000000000000000000000000000000000000000000000000005f52601160045260245ffd5b5f611609826111c8565b9150611614836111c8565b925082820190508082111561162c5761162b6115d2565b5b92915050565b5f6060820190506116455f8301866113f2565b6116526020830185611432565b61165f6040830184611432565b949350505050565b5f60208201905061167a5f830184611432565b92915050565b5f79ffffffffffffffffffffffffffffffffffffffffffffffffffff82169050919050565b5f6116af82611680565b91506116ba83611680565b9250828201905079ffffffffffffffffffffffffffffffffffffffffffffffffffff8111156116ec576116eb6115d2565b5b92915050565b5f819050919050565b5f60ff82169050919050565b5f61172161171c611717846116f2565b6111d1565b6116fb565b9050919050565b61173181611707565b82525050565b5f60408201905061174a5f830185611728565b6117576020830184611432565b9392505050565b5f61176882611680565b915061177383611680565b9250828203905079ffffffffffffffffffffffffffffffffffffffffffffffffffff8111156117a5576117a46115d2565b5b92915050565b5f6117b5826111c8565b91506117c0836111c8565b92508282039050818111156117d8576117d76115d2565b5b92915050565b5f819050919050565b5f6118016117fc6117f7846117de565b6111d1565b6116fb565b9050919050565b611811816117e7565b82525050565b5f60408201905061182a5f830185611808565b6118376020830184611432565b9392505050565b60805160a05160c05160e05161010051610120516101405161395561188f5f395f61157b01525f61154001525f61198301525f61196201525f610fdb01525f61103101525f61105a01526139555ff3fe608060405234801561000f575f5ffd5b50600436106101a7575f3560e01c8063715018a6116100f75780639ab24eb011610095578063d505accf1161006f578063d505accf146104fd578063dd62ed3e14610519578063f1127ed814610549578063f2fde38b14610579576101a7565b80639ab24eb014610481578063a9059cbb146104b1578063c3cda520146104e1576101a7565b80638da5cb5b116100d15780638da5cb5b146103f75780638e539e8c1461041557806391ddadf41461044557806395d89b4114610463576101a7565b8063715018a6146103995780637ecebe00146103a357806384b0196e146103d3576101a7565b80633a46b1a811610164578063587cde1e1161013e578063587cde1e146102ed5780635c19a95c1461031d5780636fcfff451461033957806370a0823114610369576101a7565b80633a46b1a81461028357806340c10f19146102b35780634bf5d7e9146102cf576101a7565b806306fdde03146101ab578063095ea7b3146101c957806318160ddd146101f957806323b872dd14610217578063313ce567146102475780633644e51514610265575b5f5ffd5b6101b3610595565b6040516101c09190612c78565b60405180910390f35b6101e360048036038101906101de9190612d29565b610625565b6040516101f09190612d81565b60405180910390f35b610201610647565b60405161020e9190612da9565b60405180910390f35b610231600480360381019061022c9190612dc2565b610650565b60405161023e9190612d81565b60405180910390f35b61024f61067e565b60405161025c9190612e2d565b60405180910390f35b61026d610686565b60405161027a9190612e5e565b60405180910390f35b61029d60048036038101906102989190612d29565b610694565b6040516102aa9190612da9565b60405180910390f35b6102cd60048036038101906102c89190612d29565b610710565b005b6102d7610726565b6040516102e49190612c78565b60405180910390f35b61030760048036038101906103029190612e77565b6107ba565b6040516103149190612eb1565b60405180910390f35b61033760048036038101906103329190612e77565b61081f565b005b610353600480360381019061034e9190612e77565b610838565b6040516103609190612ee8565b60405180910390f35b610383600480360381019061037e9190612e77565b610849565b6040516103909190612da9565b60405180910390f35b6103a161088e565b005b6103bd60048036038101906103b89190612e77565b6108a1565b6040516103ca9190612da9565b60405180910390f35b6103db6108b2565b6040516103ee9796959493929190612ff2565b60405180910390f35b6103ff610957565b60405161040c9190612eb1565b60405180910390f35b61042f600480360381019061042a9190613074565b61097f565b60405161043c9190612da9565b60405180910390f35b61044d6109bf565b60405161045a91906130bf565b60405180910390f35b61046b6109cd565b6040516104789190612c78565b60405180910390f35b61049b60048036038101906104969190612e77565b610a5d565b6040516104a89190612da9565b60405180910390f35b6104cb60048036038101906104c69190612d29565b610ac6565b6040516104d89190612d81565b60405180910390f35b6104fb60048036038101906104f6919061312c565b610ae8565b005b610517600480360381019061051291906131b5565b610bad565b005b610533600480360381019061052e9190613252565b610cf2565b6040516105409190612da9565b60405180910390f35b610563600480360381019061055e91906132ba565b610d74565b6040516105709190613368565b60405180910390f35b610593600480360381019061058e9190612e77565b610d8e565b005b6060600380546105a4906133ae565b80601f01602080910402602001604051908101604052809291908181526020018280546105d0906133ae565b801561061b5780601f106105f25761010080835404028352916020019161061b565b820191905f5260205f20905b8154815290600101906020018083116105fe57829003601f168201915b5050505050905090565b5f5f61062f610e3c565b905061063c818585610e43565b600191505092915050565b5f600254905090565b5f5f61065a610e3c565b9050610667858285610e55565b610672858585610ee8565b60019150509392505050565b5f6012905090565b5f61068f610fd8565b905090565b5f6106ec6106a18361108e565b60095f8673ffffffffffffffffffffffffffffffffffffffff1673ffffffffffffffffffffffffffffffffffffffff1681526020019081526020015f206110f990919063ffffffff16565b79ffffffffffffffffffffffffffffffffffffffffffffffffffff16905092915050565b6107186111e9565b6107228282611270565b5050565b60606107306112ef565b65ffffffffffff166107406109bf565b65ffffffffffff161461077f576040517f6ff0714000000000000000000000000000000000000000000000000000000000815260040160405180910390fd5b6040518060400160405280601d81526020017f6d6f64653d626c6f636b6e756d6265722666726f6d3d64656661756c74000000815250905090565b5f60085f8373ffffffffffffffffffffffffffffffffffffffff1673ffffffffffffffffffffffffffffffffffffffff1681526020019081526020015f205f9054906101000a900473ffffffffffffffffffffffffffffffffffffffff169050919050565b5f610828610e3c565b905061083481836112fe565b5050565b5f6108428261140e565b9050919050565b5f5f5f8373ffffffffffffffffffffffffffffffffffffffff1673ffffffffffffffffffffffffffffffffffffffff1681526020019081526020015f20549050919050565b6108966111e9565b61089f5f611463565b565b5f6108ab82611526565b9050919050565b5f6060805f5f5f60606108c3611537565b6108cb611572565b46305f5f1b5f67ffffffffffffffff8111156108ea576108e96133de565b5b6040519080825280602002602001820160405280156109185781602001602082028036833780820191505090505b507f0f00000000000000000000000000000000000000000000000000000000000000959493929190965096509650965096509650965090919293949596565b5f600b5f9054906101000a900473ffffffffffffffffffffffffffffffffffffffff16905090565b5f61099c61098c8361108e565b600a6110f990919063ffffffff16565b79ffffffffffffffffffffffffffffffffffffffffffffffffffff169050919050565b5f6109c86112ef565b905090565b6060600480546109dc906133ae565b80601f0160208091040260200160405190810160405280929190818152602001828054610a08906133ae565b8015610a535780601f10610a2a57610100808354040283529160200191610a53565b820191905f5260205f20905b815481529060010190602001808311610a3657829003601f168201915b5050505050905090565b5f610aa360095f8473ffffffffffffffffffffffffffffffffffffffff1673ffffffffffffffffffffffffffffffffffffffff1681526020019081526020015f206115ad565b79ffffffffffffffffffffffffffffffffffffffffffffffffffff169050919050565b5f5f610ad0610e3c565b9050610add818585610ee8565b600191505092915050565b83421115610b2d57836040517f4683af0e000000000000000000000000000000000000000000000000000000008152600401610b249190612da9565b60405180910390fd5b5f610b8e610b867fe48329057bfd03d55e49b547132e39cffd9c1820ad7b9d4c5307691425d15adf898989604051602001610b6b949392919061340b565b6040516020818303038152906040528051906020012061160f565b858585611628565b9050610b9a8187611656565b610ba481886112fe565b50505050505050565b83421115610bf257836040517f62791302000000000000000000000000000000000000000000000000000000008152600401610be99190612da9565b60405180910390fd5b5f7f6e71edae12b1b97f4d1f60370fef10105fa2faae0126114a169c64845d6126c9888888610c208c6116ad565b89604051602001610c369695949392919061344e565b6040516020818303038152906040528051906020012090505f610c588261160f565b90505f610c6782878787611628565b90508973ffffffffffffffffffffffffffffffffffffffff168173ffffffffffffffffffffffffffffffffffffffff1614610cdb57808a6040517f4b800e46000000000000000000000000000000000000000000000000000000008152600401610cd29291906134ad565b60405180910390fd5b610ce68a8a8a610e43565b50505050505050505050565b5f60015f8473ffffffffffffffffffffffffffffffffffffffff1673ffffffffffffffffffffffffffffffffffffffff1681526020019081526020015f205f8373ffffffffffffffffffffffffffffffffffffffff1673ffffffffffffffffffffffffffffffffffffffff1681526020019081526020015f2054905092915050565b610d7c612bcc565b610d868383611700565b905092915050565b610d966111e9565b5f73ffffffffffffffffffffffffffffffffffffffff168173ffffffffffffffffffffffffffffffffffffffff1603610e06575f6040517f1e4fbdf7000000000000000000000000000000000000000000000000000000008152600401610dfd9190612eb1565b60405180910390fd5b610e0f81611463565b50565b5f8183610e1f9190613501565b905092915050565b5f8183610e34919061354e565b905092915050565b5f33905090565b610e50838383600161175f565b505050565b5f610e608484610cf2565b90507fffffffffffffffffffffffffffffffffffffffffffffffffffffffffffffffff811015610ee25781811015610ed3578281836040517ffb8f41b2000000000000000000000000000000000000000000000000000000008152600401610eca9392919061359b565b60405180910390fd5b610ee184848484035f61175f565b5b50505050565b5f73ffffffffffffffffffffffffffffffffffffffff168373ffffffffffffffffffffffffffffffffffffffff1603610f58575f6040517f96c6fd1e000000000000000000000000000000000000000000000000000000008152600401610f4f9190612eb1565b60405180910390fd5b5f73ffffffffffffffffffffffffffffffffffffffff168273ffffffffffffffffffffffffffffffffffffffff1603610fc8575f6040517fec442f05000000000000000000000000000000000000000000000000000000008152600401610fbf9190612eb1565b60405180910390fd5b610fd383838361192e565b505050565b5f7f000000000000000000000000000000000000000000000000000000000000000073ffffffffffffffffffffffffffffffffffffffff163073ffffffffffffffffffffffffffffffffffffffff1614801561105357507f000000000000000000000000000000000000000000000000000000000000000046145b15611080577f0000000000000000000000000000000000000000000000000000000000000000905061108b565b61108861193e565b90505b90565b5f5f6110986109bf565b90508065ffffffffffff1683106110e85782816040517fecd3f81e0000000000000000000000000000000000000000000000000000000081526004016110df9291906135d0565b60405180910390fd5b6110f1836119d3565b915050919050565b5f5f835f018054905090505f5f90505f829050600583111561117d575f61111f84611a2c565b8461112a91906135f7565b9050611138875f0182611bc6565b5f015f9054906101000a900465ffffffffffff1665ffffffffffff168665ffffffffffff16101561116b5780915061117b565b600181611178919061362a565b92505b505b5f61118c875f01878585611bd8565b90505f81146111db576111ad875f016001836111a891906135f7565b611bc6565b5f0160069054906101000a900479ffffffffffffffffffffffffffffffffffffffffffffffffffff166111dd565b5f5b94505050505092915050565b6111f1610e3c565b73ffffffffffffffffffffffffffffffffffffffff1661120f610957565b73ffffffffffffffffffffffffffffffffffffffff161461126e57611232610e3c565b6040517f118cdaa70000000000000000000000000000000000000000000000000000000081526004016112659190612eb1565b60405180910390fd5b565b5f73ffffffffffffffffffffffffffffffffffffffff168273ffffffffffffffffffffffffffffffffffffffff16036112e0575f6040517fec442f050000000000000000000000000000000000000000000000000000000081526004016112d79190612eb1565b60405180910390fd5b6112eb5f838361192e565b5050565b5f6112f9436119d3565b905090565b5f611308836107ba565b90508160085f8573ffffffffffffffffffffffffffffffffffffffff1673ffffffffffffffffffffffffffffffffffffffff1681526020019081526020015f205f6101000a81548173ffffffffffffffffffffffffffffffffffffffff021916908373ffffffffffffffffffffffffffffffffffffffff1602179055508173ffffffffffffffffffffffffffffffffffffffff168173ffffffffffffffffffffffffffffffffffffffff168473ffffffffffffffffffffffffffffffffffffffff167f3134e8a2e6d97e929a7e54011ea5485d7d196dd5f0ba4d4ef95803e8e3fc257f60405160405180910390a4611409818361140486611c4d565b611c5e565b505050565b5f61145c61145760095f8573ffffffffffffffffffffffffffffffffffffffff1673ffffffffffffffffffffffffffffffffffffffff1681526020019081526020015f20611ece565b611edd565b9050919050565b5f600b5f9054906101000a900473ffffffffffffffffffffffffffffffffffffffff16905081600b5f6101000a81548173ffffffffffffffffffffffffffffffffffffffff021916908373ffffffffffffffffffffffffffffffffffffffff1602179055508173ffffffffffffffffffffffffffffffffffffffff168173ffffffffffffffffffffffffffffffffffffffff167f8be0079c531659141344cd1fd0a4f28419497f9722a3daafe3b4186f6b6457e060405160405180910390a35050565b5f61153082611f34565b9050919050565b606061156d60057f0000000000000000000000000000000000000000000000000000000000000000611f7a90919063ffffffff16565b905090565b60606115a860067f0000000000000000000000000000000000000000000000000000000000000000611f7a90919063ffffffff16565b905090565b5f5f825f018054905090505f8114611605576115d7835f016001836115d291906135f7565b611bc6565b5f0160069054906101000a900479ffffffffffffffffffffffffffffffffffffffffffffffffffff16611607565b5f5b915050919050565b5f61162161161b610fd8565b83612027565b9050919050565b5f5f5f5f61163888888888612067565b925092509250611648828261214e565b829350505050949350505050565b5f611660836116ad565b90508082146116a85782816040517f752d88c000000000000000000000000000000000000000000000000000000000815260040161169f92919061365d565b60405180910390fd5b505050565b5f60075f8373ffffffffffffffffffffffffffffffffffffffff1673ffffffffffffffffffffffffffffffffffffffff1681526020019081526020015f205f815480929190600101919050559050919050565b611708612bcc565b6117578260095f8673ffffffffffffffffffffffffffffffffffffffff1673ffffffffffffffffffffffffffffffffffffffff1681526020019081526020015f206122b090919063ffffffff16565b905092915050565b5f73ffffffffffffffffffffffffffffffffffffffff168473ffffffffffffffffffffffffffffffffffffffff16036117cf575f6040517fe602df050000000000000000000000000000000000000000000000000000000081526004016117c69190612eb1565b60405180910390fd5b5f73ffffffffffffffffffffffffffffffffffffffff168373ffffffffffffffffffffffffffffffffffffffff160361183f575f6040517f94280d620000000000000000000000000000000000000000000000000000000081526004016118369190612eb1565b60405180910390fd5b8160015f8673ffffffffffffffffffffffffffffffffffffffff1673ffffffffffffffffffffffffffffffffffffffff1681526020019081526020015f205f8573ffffffffffffffffffffffffffffffffffffffff1673ffffffffffffffffffffffffffffffffffffffff1681526020019081526020015f20819055508015611928578273ffffffffffffffffffffffffffffffffffffffff168473ffffffffffffffffffffffffffffffffffffffff167f8c5be1e5ebec7d5bd14f71427d1e84f3dd0314c0f7b2291e5b200ac8c7c3b9258460405161191f9190612da9565b60405180910390a35b50505050565b61193983838361237f565b505050565b5f7f8b73c3c69bb8fe3d512ecc4cf759cc79239f7b179b0ffacaa9a75d522b39400f7f00000000000000000000000000000000000000000000000000000000000000007f000000000000000000000000000000000000000000000000000000000000000046306040516020016119b8959493929190613684565b60405160208183030381529060405280519060200120905090565b5f65ffffffffffff8016821115611a24576030826040517f6dfcc650000000000000000000000000000000000000000000000000000000008152600401611a1b929190613717565b60405180910390fd5b819050919050565b5f60018211611a3d57819050611bc1565b5f8290505f600190507001000000000000000000000000000000008210611a6d57608082901c9150604081901b90505b680100000000000000008210611a8c57604082901c9150602081901b90505b6401000000008210611aa757602082901c9150601081901b90505b620100008210611ac057601082901c9150600881901b90505b6101008210611ad857600882901c9150600481901b90505b60108210611aef57600482901c9150600281901b90505b60048210611aff57600181901b90505b600181600302901c90506001818581611b1b57611b1a61373e565b5b048201901c90506001818581611b3457611b3361373e565b5b048201901c90506001818581611b4d57611b4c61373e565b5b048201901c90506001818581611b6657611b6561373e565b5b048201901c90506001818581611b7f57611b7e61373e565b5b048201901c90506001818581611b9857611b9761373e565b5b048201901c9050611bba818581611bb257611bb161373e565b5b04821161242d565b8103925050505b919050565b5f825f528160205f2001905092915050565b5f5b81831015611c42575f611bed8484612438565b90508465ffffffffffff16611c028783611bc6565b5f015f9054906101000a900465ffffffffffff1665ffffffffffff161115611c2c57809250611c3c565b600181611c39919061362a565b93505b50611bda565b819050949350505050565b5f611c5782610849565b9050919050565b8173ffffffffffffffffffffffffffffffffffffffff168373ffffffffffffffffffffffffffffffffffffffff1614158015611c9957505f81115b15611ec9575f73ffffffffffffffffffffffffffffffffffffffff168373ffffffffffffffffffffffffffffffffffffffff1614611db3575f5f611d2460095f8773ffffffffffffffffffffffffffffffffffffffff1673ffffffffffffffffffffffffffffffffffffffff1681526020019081526020015f20610e27611d1f8661245d565b6124ca565b79ffffffffffffffffffffffffffffffffffffffffffffffffffff16915079ffffffffffffffffffffffffffffffffffffffffffffffffffff1691508473ffffffffffffffffffffffffffffffffffffffff167fdec2bacdd2f05b59de34da9b523dff8be42e5e38e818c82fdb0bae774387a7248383604051611da892919061376b565b60405180910390a250505b5f73ffffffffffffffffffffffffffffffffffffffff168273ffffffffffffffffffffffffffffffffffffffff1614611ec8575f5f611e3960095f8673ffffffffffffffffffffffffffffffffffffffff1673ffffffffffffffffffffffffffffffffffffffff1681526020019081526020015f20610e12611e348661245d565b6124ca565b79ffffffffffffffffffffffffffffffffffffffffffffffffffff16915079ffffffffffffffffffffffffffffffffffffffffffffffffffff1691508373ffffffffffffffffffffffffffffffffffffffff167fdec2bacdd2f05b59de34da9b523dff8be42e5e38e818c82fdb0bae774387a7248383604051611ebd92919061376b565b60405180910390a250505b5b505050565b5f815f01805490509050919050565b5f63ffffffff8016821115611f2c576020826040517f6dfcc650000000000000000000000000000000000000000000000000000000008152600401611f239291906137cb565b60405180910390fd5b819050919050565b5f60075f8373ffffffffffffffffffffffffffffffffffffffff1673ffffffffffffffffffffffffffffffffffffffff1681526020019081526020015f20549050919050565b606060ff5f1b8314611f9657611f8f83612509565b9050612021565b818054611fa2906133ae565b80601f0160208091040260200160405190810160405280929190818152602001828054611fce906133ae565b80156120195780601f10611ff057610100808354040283529160200191612019565b820191905f5260205f20905b815481529060010190602001808311611ffc57829003601f168201915b505050505090505b92915050565b5f6040517f190100000000000000000000000000000000000000000000000000000000000081528360028201528260228201526042812091505092915050565b5f5f5f7f7fffffffffffffffffffffffffffffff5d576e7357a4501ddfe92f46681b20a0845f1c11156120a3575f600385925092509250612144565b5f6001888888886040515f81526020016040526040516120c694939291906137f2565b6020604051602081039080840390855afa1580156120e6573d5f5f3e3d5ffd5b5050506020604051035190505f73ffffffffffffffffffffffffffffffffffffffff168173ffffffffffffffffffffffffffffffffffffffff1603612137575f60015f5f1b93509350935050612144565b805f5f5f1b935093509350505b9450945094915050565b5f600381111561216157612160613835565b5b82600381111561217457612173613835565b5b03156122ac576001600381111561218e5761218d613835565b5b8260038111156121a1576121a0613835565b5b036121d8576040517ff645eedf00000000000000000000000000000000000000000000000000000000815260040160405180910390fd5b600260038111156121ec576121eb613835565b5b8260038111156121ff576121fe613835565b5b0361224357805f1c6040517ffce698f700000000000000000000000000000000000000000000000000000000815260040161223a9190612da9565b60405180910390fd5b60038081111561225657612255613835565b5b82600381111561226957612268613835565b5b036122ab57806040517fd78bce0c0000000000000000000000000000000000000000000000000000000081526004016122a29190612e5e565b60405180910390fd5b5b5050565b6122b8612bcc565b825f018263ffffffff16815481106122d3576122d2613862565b5b905f5260205f20016040518060400160405290815f82015f9054906101000a900465ffffffffffff1665ffffffffffff1665ffffffffffff1681526020015f820160069054906101000a900479ffffffffffffffffffffffffffffffffffffffffffffffffffff1679ffffffffffffffffffffffffffffffffffffffffffffffffffff1679ffffffffffffffffffffffffffffffffffffffffffffffffffff1681525050905092915050565b61238a83838361257b565b5f73ffffffffffffffffffffffffffffffffffffffff168373ffffffffffffffffffffffffffffffffffffffff160361241d575f6123c6610647565b90505f6123d1612794565b90508082111561241a5781816040517f1cb15d2600000000000000000000000000000000000000000000000000000000815260040161241192919061376b565b60405180910390fd5b50505b6124288383836127b7565b505050565b5f8115159050919050565b5f6002828418612448919061388f565b828416612455919061362a565b905092915050565b5f79ffffffffffffffffffffffffffffffffffffffffffffffffffff80168211156124c25760d0826040517f6dfcc6500000000000000000000000000000000000000000000000000000000081526004016124b99291906138f8565b60405180910390fd5b819050919050565b5f5f6124fd6124d76109bf565b6124ed6124e3886115ad565b868863ffffffff16565b8761286f9092919063ffffffff16565b91509150935093915050565b60605f6125158361288a565b90505f602067ffffffffffffffff811115612533576125326133de565b5b6040519080825280601f01601f1916602001820160405280156125655781602001600182028036833780820191505090505b5090508181528360208201528092505050919050565b5f73ffffffffffffffffffffffffffffffffffffffff168373ffffffffffffffffffffffffffffffffffffffff16036125cb578060025f8282546125bf919061362a565b92505081905550612699565b5f5f5f8573ffffffffffffffffffffffffffffffffffffffff1673ffffffffffffffffffffffffffffffffffffffff1681526020019081526020015f2054905081811015612654578381836040517fe450d38c00000000000000000000000000000000000000000000000000000000815260040161264b9392919061359b565b60405180910390fd5b8181035f5f8673ffffffffffffffffffffffffffffffffffffffff1673ffffffffffffffffffffffffffffffffffffffff1681526020019081526020015f2081905550505b5f73ffffffffffffffffffffffffffffffffffffffff168273ffffffffffffffffffffffffffffffffffffffff16036126e0578060025f828254039250508190555061272a565b805f5f8473ffffffffffffffffffffffffffffffffffffffff1673ffffffffffffffffffffffffffffffffffffffff1681526020019081526020015f205f82825401925050819055505b8173ffffffffffffffffffffffffffffffffffffffff168373ffffffffffffffffffffffffffffffffffffffff167fddf252ad1be2c89b69c2b068fc378daa952ba7f163c4a11628f55a4df523b3ef836040516127879190612da9565b60405180910390a3505050565b5f79ffffffffffffffffffffffffffffffffffffffffffffffffffff8016905090565b5f73ffffffffffffffffffffffffffffffffffffffff168373ffffffffffffffffffffffffffffffffffffffff160361280357612800600a610e126127fb8461245d565b6124ca565b50505b5f73ffffffffffffffffffffffffffffffffffffffff168273ffffffffffffffffffffffffffffffffffffffff160361284f5761284c600a610e276128478461245d565b6124ca565b50505b61286a61285b846107ba565b612864846107ba565b83611c5e565b505050565b5f5f61287e855f0185856128d8565b91509150935093915050565b5f5f60ff835f1c169050601f8111156128cf576040517fb3512b0c00000000000000000000000000000000000000000000000000000000815260040160405180910390fd5b80915050919050565b5f5f5f858054905090505f811115612ae4575f612901876001846128fc91906135f7565b611bc6565b90505f815f015f9054906101000a900465ffffffffffff1690505f825f0160069054906101000a900479ffffffffffffffffffffffffffffffffffffffffffffffffffff1690508765ffffffffffff168265ffffffffffff161115612992576040517f2520601d00000000000000000000000000000000000000000000000000000000815260040160405180910390fd5b8765ffffffffffff168265ffffffffffff16036129fc5786835f0160066101000a81548179ffffffffffffffffffffffffffffffffffffffffffffffffffff021916908379ffffffffffffffffffffffffffffffffffffffffffffffffffff160217905550612ad5565b8860405180604001604052808a65ffffffffffff1681526020018979ffffffffffffffffffffffffffffffffffffffffffffffffffff16815250908060018154018082558091505060019003905f5260205f20015f909190919091505f820151815f015f6101000a81548165ffffffffffff021916908365ffffffffffff1602179055506020820151815f0160066101000a81548179ffffffffffffffffffffffffffffffffffffffffffffffffffff021916908379ffffffffffffffffffffffffffffffffffffffffffffffffffff16021790555050505b80879550955050505050612bc4565b8560405180604001604052808765ffffffffffff1681526020018679ffffffffffffffffffffffffffffffffffffffffffffffffffff16815250908060018154018082558091505060019003905f5260205f20015f909190919091505f820151815f015f6101000a81548165ffffffffffff021916908365ffffffffffff1602179055506020820151815f0160066101000a81548179ffffffffffffffffffffffffffffffffffffffffffffffffffff021916908379ffffffffffffffffffffffffffffffffffffffffffffffffffff16021790555050505f8492509250505b935093915050565b60405180604001604052805f65ffffffffffff1681526020015f79ffffffffffffffffffffffffffffffffffffffffffffffffffff1681525090565b5f81519050919050565b5f82825260208201905092915050565b8281835e5f83830152505050565b5f601f19601f8301169050919050565b5f612c4a82612c08565b612c548185612c12565b9350612c64818560208601612c22565b612c6d81612c30565b840191505092915050565b5f6020820190508181035f830152612c908184612c40565b905092915050565b5f5ffd5b5f73ffffffffffffffffffffffffffffffffffffffff82169050919050565b5f612cc582612c9c565b9050919050565b612cd581612cbb565b8114612cdf575f5ffd5b50565b5f81359050612cf081612ccc565b92915050565b5f819050919050565b612d0881612cf6565b8114612d12575f5ffd5b50565b5f81359050612d2381612cff565b92915050565b5f5f60408385031215612d3f57612d3e612c98565b5b5f612d4c85828601612ce2565b9250506020612d5d85828601612d15565b9150509250929050565b5f8115159050919050565b612d7b81612d67565b82525050565b5f602082019050612d945f830184612d72565b92915050565b612da381612cf6565b82525050565b5f602082019050612dbc5f830184612d9a565b92915050565b5f5f5f60608486031215612dd957612dd8612c98565b5b5f612de686828701612ce2565b9350506020612df786828701612ce2565b9250506040612e0886828701612d15565b9150509250925092565b5f60ff82169050919050565b612e2781612e12565b82525050565b5f602082019050612e405f830184612e1e565b92915050565b5f819050919050565b612e5881612e46565b82525050565b5f602082019050612e715f830184612e4f565b92915050565b5f60208284031215612e8c57612e8b612c98565b5b5f612e9984828501612ce2565b91505092915050565b612eab81612cbb565b82525050565b5f602082019050612ec45f830184612ea2565b92915050565b5f63ffffffff82169050919050565b612ee281612eca565b82525050565b5f602082019050612efb5f830184612ed9565b92915050565b5f7fff0000000000000000000000000000000000000000000000000000000000000082169050919050565b612f3581612f01565b82525050565b5f81519050919050565b5f82825260208201905092915050565b5f819050602082019050919050565b612f6d81612cf6565b82525050565b5f612f7e8383612f64565b60208301905092915050565b5f602082019050919050565b5f612fa082612f3b565b612faa8185612f45565b9350612fb583612f55565b805f5b83811015612fe5578151612fcc8882612f73565b9750612fd783612f8a565b925050600181019050612fb8565b5085935050505092915050565b5f60e0820190506130055f83018a612f2c565b81810360208301526130178189612c40565b9050818103604083015261302b8188612c40565b905061303a6060830187612d9a565b6130476080830186612ea2565b61305460a0830185612e4f565b81810360c08301526130668184612f96565b905098975050505050505050565b5f6020828403121561308957613088612c98565b5b5f61309684828501612d15565b91505092915050565b5f65ffffffffffff82169050919050565b6130b98161309f565b82525050565b5f6020820190506130d25f8301846130b0565b92915050565b6130e181612e12565b81146130eb575f5ffd5b50565b5f813590506130fc816130d8565b92915050565b61310b81612e46565b8114613115575f5ffd5b50565b5f8135905061312681613102565b92915050565b5f5f5f5f5f5f60c0878903121561314657613145612c98565b5b5f61315389828a01612ce2565b965050602061316489828a01612d15565b955050604061317589828a01612d15565b945050606061318689828a016130ee565b935050608061319789828a01613118565b92505060a06131a889828a01613118565b9150509295509295509295565b5f5f5f5f5f5f5f60e0888a0312156131d0576131cf612c98565b5b5f6131dd8a828b01612ce2565b97505060206131ee8a828b01612ce2565b96505060406131ff8a828b01612d15565b95505060606132108a828b01612d15565b94505060806132218a828b016130ee565b93505060a06132328a828b01613118565b92505060c06132438a828b01613118565b91505092959891949750929550565b5f5f6040838503121561326857613267612c98565b5b5f61327585828601612ce2565b925050602061328685828601612ce2565b9150509250929050565b61329981612eca565b81146132a3575f5ffd5b50565b5f813590506132b481613290565b92915050565b5f5f604083850312156132d0576132cf612c98565b5b5f6132dd85828601612ce2565b92505060206132ee858286016132a6565b9150509250929050565b6133018161309f565b82525050565b5f79ffffffffffffffffffffffffffffffffffffffffffffffffffff82169050919050565b61333581613307565b82525050565b604082015f82015161334f5f8501826132f8565b506020820151613362602085018261332c565b50505050565b5f60408201905061337b5f83018461333b565b92915050565b7f4e487b71000000000000000000000000000000000000000000000000000000005f52602260045260245ffd5b5f60028204905060018216806133c557607f821691505b6020821081036133d8576133d7613381565b5b50919050565b7f4e487b71000000000000000000000000000000000000000000000000000000005f52604160045260245ffd5b5f60808201905061341e5f830187612e4f565b61342b6020830186612ea2565b6134386040830185612d9a565b6134456060830184612d9a565b95945050505050565b5f60c0820190506134615f830189612e4f565b61346e6020830188612ea2565b61347b6040830187612ea2565b6134886060830186612d9a565b6134956080830185612d9a565b6134a260a0830184612d9a565b979650505050505050565b5f6040820190506134c05f830185612ea2565b6134cd6020830184612ea2565b9392505050565b7f4e487b71000000000000000000000000000000000000000000000000000000005f52601160045260245ffd5b5f61350b82613307565b915061351683613307565b9250828201905079ffffffffffffffffffffffffffffffffffffffffffffffffffff811115613548576135476134d4565b5b92915050565b5f61355882613307565b915061356383613307565b9250828203905079ffffffffffffffffffffffffffffffffffffffffffffffffffff811115613595576135946134d4565b5b92915050565b5f6060820190506135ae5f830186612ea2565b6135bb6020830185612d9a565b6135c86040830184612d9a565b949350505050565b5f6040820190506135e35f830185612d9a565b6135f060208301846130b0565b9392505050565b5f61360182612cf6565b915061360c83612cf6565b9250828203905081811115613624576136236134d4565b5b92915050565b5f61363482612cf6565b915061363f83612cf6565b9250828201905080821115613657576136566134d4565b5b92915050565b5f6040820190506136705f830185612ea2565b61367d6020830184612d9a565b9392505050565b5f60a0820190506136975f830188612e4f565b6136a46020830187612e4f565b6136b16040830186612e4f565b6136be6060830185612d9a565b6136cb6080830184612ea2565b9695505050505050565b5f819050919050565b5f819050919050565b5f6137016136fc6136f7846136d5565b6136de565b612e12565b9050919050565b613711816136e7565b82525050565b5f60408201905061372a5f830185613708565b6137376020830184612d9a565b9392505050565b7f4e487b71000000000000000000000000000000000000000000000000000000005f52601260045260245ffd5b5f60408201905061377e5f830185612d9a565b61378b6020830184612d9a565b9392505050565b5f819050919050565b5f6137b56137b06137ab84613792565b6136de565b612e12565b9050919050565b6137c58161379b565b82525050565b5f6040820190506137de5f8301856137bc565b6137eb6020830184612d9a565b9392505050565b5f6080820190506138055f830187612e4f565b6138126020830186612e1e565b61381f6040830185612e4f565b61382c6060830184612e4f565b95945050505050565b7f4e487b71000000000000000000000000000000000000000000000000000000005f52602160045260245ffd5b7f4e487b71000000000000000000000000000000000000000000000000000000005f52603260045260245ffd5b5f61389982612cf6565b91506138a483612cf6565b9250826138b4576138b361373e565b5b828204905092915050565b5f819050919050565b5f6138e26138dd6138d8846138bf565b6136de565b612e12565b9050919050565b6138f2816138c8565b82525050565b5f60408201905061390b5f8301856138e9565b6139186020830184612d9a565b939250505056fea2646970667358221220473f09757b7e0d035ee93d1a3e560d09bbaa1d8d3f5636e5196ffc3190e1ea7c64736f6c634300081e0033","linkReferences":{}},"methodIdentifiers":{"CLOCK_MODE()":"4bf5d7e9","DOMAIN_SEPARATOR()":"3644e515","allowance(address,address)":"dd62ed3e","approve(address,uint256)":"095ea7b3","balanceOf(address)":"70a08231","checkpoints(address,uint32)":"f1127ed8","clock()":"91ddadf4","decimals()":"313ce567","delegate(address)":"5c19a95c","delegateBySig(address,uint256,uint256,uint8,bytes32,bytes32)":"c3cda520","delegates(address)":"587cde1e","eip712Domain()":"84b0196e","getPastTotalSupply(uint256)":"8e539e8c","getPastVotes(address,uint256)":"3a46b1a8","getVotes(address)":"9ab24eb0","mint(address,uint256)":"40c10f19","name()":"06fdde03","nonces(address)":"7ecebe00","numCheckpoints(address)":"6fcfff45","owner()":"8da5cb5b","permit(address,address,uint256,uint256,uint8,bytes32,bytes32)":"d505accf","renounceOwnership()":"715018a6","symbol()":"95d89b41","totalSupply()":"18160ddd","transfer(address,uint256)":"a9059cbb","transferFrom(address,address,uint256)":"23b872dd","transferOwnership(address)":"f2fde38b"},"id":52}